{
	"contracts/09_SameValue.sol": {
		"SmaeValue": {
			"abi": [
				{
					"inputs": [
						{
							"internalType": "uint256",
							"name": "i",
							"type": "uint256"
						}
					],
					"name": "mayBeSet",
					"outputs": [],
					"stateMutability": "payable",
					"type": "function"
				},
				{
					"inputs": [
						{
							"internalType": "uint256",
							"name": "i",
							"type": "uint256"
						}
					],
					"name": "mayBetSet1",
					"outputs": [],
					"stateMutability": "payable",
					"type": "function"
				}
			],
			"devdoc": {
				"kind": "dev",
				"methods": {},
				"version": 1
			},
			"evm": {
				"assembly": "    /* \"contracts/09_SameValue.sol\":57:1320  contract SmaeValue{... */\n  mstore(0x40, 0x80)\n    /* \"contracts/09_SameValue.sol\":109:110  1 */\n  0x01\n    /* \"contracts/09_SameValue.sol\":81:110  uint256 private myInteger = 1 */\n  0x00\n  sstore\n    /* \"contracts/09_SameValue.sol\":145:146  1 */\n  0x01\n    /* \"contracts/09_SameValue.sol\":116:146  uint256 private myInteger1 = 1 */\n  dup1\n  sstore\n    /* \"contracts/09_SameValue.sol\":57:1320  contract SmaeValue{... */\n  callvalue\n  dup1\n  iszero\n  tag_1\n  jumpi\n  0x00\n  dup1\n  revert\ntag_1:\n  pop\n  dataSize(sub_0)\n  dup1\n  dataOffset(sub_0)\n  0x00\n  codecopy\n  0x00\n  return\nstop\n\nsub_0: assembly {\n        /* \"contracts/09_SameValue.sol\":57:1320  contract SmaeValue{... */\n      mstore(0x40, 0x80)\n      jumpi(tag_1, lt(calldatasize, 0x04))\n      shr(0xe0, calldataload(0x00))\n      dup1\n      0x352c1046\n      eq\n      tag_2\n      jumpi\n      dup1\n      0xcbfe2f06\n      eq\n      tag_3\n      jumpi\n    tag_1:\n      0x00\n      dup1\n      revert\n        /* \"contracts/09_SameValue.sol\":556:632  function  mayBeSet(uint256 i)external payable {... */\n    tag_2:\n      tag_4\n      0x04\n      dup1\n      calldatasize\n      sub\n      dup2\n      add\n      swap1\n      tag_5\n      swap2\n      swap1\n      tag_6\n      jump\t// in\n    tag_5:\n      tag_7\n      jump\t// in\n    tag_4:\n      stop\n        /* \"contracts/09_SameValue.sol\":1117:1318  function mayBetSet1(uint256 i)external payable {... */\n    tag_3:\n      tag_8\n      0x04\n      dup1\n      calldatasize\n      sub\n      dup2\n      add\n      swap1\n      tag_9\n      swap2\n      swap1\n      tag_6\n      jump\t// in\n    tag_9:\n      tag_10\n      jump\t// in\n    tag_8:\n      stop\n        /* \"contracts/09_SameValue.sol\":556:632  function  mayBeSet(uint256 i)external payable {... */\n    tag_7:\n        /* \"contracts/09_SameValue.sol\":624:625  i */\n      dup1\n        /* \"contracts/09_SameValue.sol\":612:621  myInteger */\n      0x00\n        /* \"contracts/09_SameValue.sol\":612:625  myInteger = i */\n      dup2\n      swap1\n      sstore\n      pop\n        /* \"contracts/09_SameValue.sol\":556:632  function  mayBeSet(uint256 i)external payable {... */\n      pop\n      jump\t// out\n        /* \"contracts/09_SameValue.sol\":1117:1318  function mayBetSet1(uint256 i)external payable {... */\n    tag_10:\n        /* \"contracts/09_SameValue.sol\":1174:1193  uint256 _myInteger1 */\n      0x00\n        /* \"contracts/09_SameValue.sol\":1196:1206  myInteger1 */\n      sload(0x01)\n        /* \"contracts/09_SameValue.sol\":1174:1206  uint256 _myInteger1 = myInteger1 */\n      swap1\n      pop\n        /* \"contracts/09_SameValue.sol\":1239:1242  100 */\n      0x64\n        /* \"contracts/09_SameValue.sol\":1224:1235  _myInteger1 */\n      dup2\n        /* \"contracts/09_SameValue.sol\":1224:1242  _myInteger1 != 100 */\n      sub\n        /* \"contracts/09_SameValue.sol\":1216:1243  require(_myInteger1 != 100) */\n      tag_13\n      jumpi\n      0x00\n      dup1\n      revert\n    tag_13:\n        /* \"contracts/09_SameValue.sol\":1271:1272  i */\n      dup2\n        /* \"contracts/09_SameValue.sol\":1256:1267  _myInteger1 */\n      dup2\n        /* \"contracts/09_SameValue.sol\":1256:1272  _myInteger1 != i */\n      eq\n        /* \"contracts/09_SameValue.sol\":1253:1312  if(_myInteger1 != i){... */\n      tag_14\n      jumpi\n        /* \"contracts/09_SameValue.sol\":1300:1301  i */\n      dup2\n        /* \"contracts/09_SameValue.sol\":1287:1297  myInteger1 */\n      0x01\n        /* \"contracts/09_SameValue.sol\":1287:1301  myInteger1 = i */\n      dup2\n      swap1\n      sstore\n      pop\n        /* \"contracts/09_SameValue.sol\":1253:1312  if(_myInteger1 != i){... */\n    tag_14:\n        /* \"contracts/09_SameValue.sol\":1164:1318  {... */\n      pop\n        /* \"contracts/09_SameValue.sol\":1117:1318  function mayBetSet1(uint256 i)external payable {... */\n      pop\n      jump\t// out\n        /* \"#utility.yul\":88:205   */\n    tag_16:\n        /* \"#utility.yul\":197:198   */\n      0x00\n        /* \"#utility.yul\":194:195   */\n      dup1\n        /* \"#utility.yul\":187:199   */\n      revert\n        /* \"#utility.yul\":334:411   */\n    tag_18:\n        /* \"#utility.yul\":371:378   */\n      0x00\n        /* \"#utility.yul\":400:405   */\n      dup2\n        /* \"#utility.yul\":389:405   */\n      swap1\n      pop\n        /* \"#utility.yul\":334:411   */\n      swap2\n      swap1\n      pop\n      jump\t// out\n        /* \"#utility.yul\":417:539   */\n    tag_19:\n        /* \"#utility.yul\":490:514   */\n      tag_27\n        /* \"#utility.yul\":508:513   */\n      dup2\n        /* \"#utility.yul\":490:514   */\n      tag_18\n      jump\t// in\n    tag_27:\n        /* \"#utility.yul\":483:488   */\n      dup2\n        /* \"#utility.yul\":480:515   */\n      eq\n        /* \"#utility.yul\":470:533   */\n      tag_28\n      jumpi\n        /* \"#utility.yul\":529:530   */\n      0x00\n        /* \"#utility.yul\":526:527   */\n      dup1\n        /* \"#utility.yul\":519:531   */\n      revert\n        /* \"#utility.yul\":470:533   */\n    tag_28:\n        /* \"#utility.yul\":417:539   */\n      pop\n      jump\t// out\n        /* \"#utility.yul\":545:684   */\n    tag_20:\n        /* \"#utility.yul\":591:596   */\n      0x00\n        /* \"#utility.yul\":629:635   */\n      dup2\n        /* \"#utility.yul\":616:636   */\n      calldataload\n        /* \"#utility.yul\":607:636   */\n      swap1\n      pop\n        /* \"#utility.yul\":645:678   */\n      tag_30\n        /* \"#utility.yul\":672:677   */\n      dup2\n        /* \"#utility.yul\":645:678   */\n      tag_19\n      jump\t// in\n    tag_30:\n        /* \"#utility.yul\":545:684   */\n      swap3\n      swap2\n      pop\n      pop\n      jump\t// out\n        /* \"#utility.yul\":690:1019   */\n    tag_6:\n        /* \"#utility.yul\":749:755   */\n      0x00\n        /* \"#utility.yul\":798:800   */\n      0x20\n        /* \"#utility.yul\":786:795   */\n      dup3\n        /* \"#utility.yul\":777:784   */\n      dup5\n        /* \"#utility.yul\":773:796   */\n      sub\n        /* \"#utility.yul\":769:801   */\n      slt\n        /* \"#utility.yul\":766:885   */\n      iszero\n      tag_32\n      jumpi\n        /* \"#utility.yul\":804:883   */\n      tag_33\n      tag_16\n      jump\t// in\n    tag_33:\n        /* \"#utility.yul\":766:885   */\n    tag_32:\n        /* \"#utility.yul\":924:925   */\n      0x00\n        /* \"#utility.yul\":949:1002   */\n      tag_34\n        /* \"#utility.yul\":994:1001   */\n      dup5\n        /* \"#utility.yul\":985:991   */\n      dup3\n        /* \"#utility.yul\":974:983   */\n      dup6\n        /* \"#utility.yul\":970:992   */\n      add\n        /* \"#utility.yul\":949:1002   */\n      tag_20\n      jump\t// in\n    tag_34:\n        /* \"#utility.yul\":939:1002   */\n      swap2\n      pop\n        /* \"#utility.yul\":895:1012   */\n      pop\n        /* \"#utility.yul\":690:1019   */\n      swap3\n      swap2\n      pop\n      pop\n      jump\t// out\n\n    auxdata: 0xa26469706673582212200a5e1306d7b0dd9147e87122abd8d95f888df1e1d109b04cc1dbaa5a0f7ffa4e64736f6c63430008140033\n}\n",
				"bytecode": {
					"linkReferences": {},
					"object": "608060405260015f5560018055348015610017575f80fd5b50610113806100255f395ff3fe6080604052600436106025575f3560e01c8063352c1046146029578063cbfe2f06146041575b5f80fd5b603f6004803603810190603b919060b7565b6059565b005b605760048036038101906053919060b7565b6062565b005b805f8190555050565b5f6001549050606481036073575f80fd5b818114608157816001819055505b5050565b5f80fd5b5f819050919050565b6099816089565b811460a2575f80fd5b50565b5f8135905060b1816092565b92915050565b5f6020828403121560c95760c86085565b5b5f60d48482850160a5565b9150509291505056fea26469706673582212200a5e1306d7b0dd9147e87122abd8d95f888df1e1d109b04cc1dbaa5a0f7ffa4e64736f6c63430008140033",
					"opcodes": "PUSH1 0x80 PUSH1 0x40 MSTORE PUSH1 0x1 PUSH0 SSTORE PUSH1 0x1 DUP1 SSTORE CALLVALUE DUP1 ISZERO PUSH2 0x17 JUMPI PUSH0 DUP1 REVERT JUMPDEST POP PUSH2 0x113 DUP1 PUSH2 0x25 PUSH0 CODECOPY PUSH0 RETURN INVALID PUSH1 0x80 PUSH1 0x40 MSTORE PUSH1 0x4 CALLDATASIZE LT PUSH1 0x25 JUMPI PUSH0 CALLDATALOAD PUSH1 0xE0 SHR DUP1 PUSH4 0x352C1046 EQ PUSH1 0x29 JUMPI DUP1 PUSH4 0xCBFE2F06 EQ PUSH1 0x41 JUMPI JUMPDEST PUSH0 DUP1 REVERT JUMPDEST PUSH1 0x3F PUSH1 0x4 DUP1 CALLDATASIZE SUB DUP2 ADD SWAP1 PUSH1 0x3B SWAP2 SWAP1 PUSH1 0xB7 JUMP JUMPDEST PUSH1 0x59 JUMP JUMPDEST STOP JUMPDEST PUSH1 0x57 PUSH1 0x4 DUP1 CALLDATASIZE SUB DUP2 ADD SWAP1 PUSH1 0x53 SWAP2 SWAP1 PUSH1 0xB7 JUMP JUMPDEST PUSH1 0x62 JUMP JUMPDEST STOP JUMPDEST DUP1 PUSH0 DUP2 SWAP1 SSTORE POP POP JUMP JUMPDEST PUSH0 PUSH1 0x1 SLOAD SWAP1 POP PUSH1 0x64 DUP2 SUB PUSH1 0x73 JUMPI PUSH0 DUP1 REVERT JUMPDEST DUP2 DUP2 EQ PUSH1 0x81 JUMPI DUP2 PUSH1 0x1 DUP2 SWAP1 SSTORE POP JUMPDEST POP POP JUMP JUMPDEST PUSH0 DUP1 REVERT JUMPDEST PUSH0 DUP2 SWAP1 POP SWAP2 SWAP1 POP JUMP JUMPDEST PUSH1 0x99 DUP2 PUSH1 0x89 JUMP JUMPDEST DUP2 EQ PUSH1 0xA2 JUMPI PUSH0 DUP1 REVERT JUMPDEST POP JUMP JUMPDEST PUSH0 DUP2 CALLDATALOAD SWAP1 POP PUSH1 0xB1 DUP2 PUSH1 0x92 JUMP JUMPDEST SWAP3 SWAP2 POP POP JUMP JUMPDEST PUSH0 PUSH1 0x20 DUP3 DUP5 SUB SLT ISZERO PUSH1 0xC9 JUMPI PUSH1 0xC8 PUSH1 0x85 JUMP JUMPDEST JUMPDEST PUSH0 PUSH1 0xD4 DUP5 DUP3 DUP6 ADD PUSH1 0xA5 JUMP JUMPDEST SWAP2 POP POP SWAP3 SWAP2 POP POP JUMP INVALID LOG2 PUSH5 0x6970667358 0x22 SLT KECCAK256 EXP 0x5E SGT MOD 0xD7 0xB0 0xDD SWAP2 SELFBALANCE 0xE8 PUSH18 0x22ABD8D95F888DF1E1D109B04CC1DBAA5A0F PUSH32 0xFA4E64736F6C6343000814003300000000000000000000000000000000000000 "
				},
				"gasEstimates": {
					"creation": {
						"codeDepositCost": "55000",
						"executionCost": "44314",
						"totalCost": "99314"
					},
					"external": {
						"mayBeSet(uint256)": "22468",
						"mayBetSet1(uint256)": "24649"
					}
				},
				"methodIdentifiers": {
					"mayBeSet(uint256)": "352c1046",
					"mayBetSet1(uint256)": "cbfe2f06"
				}
			},
			"storageLayout": {
				"storage": [
					{
						"astId": 4,
						"contract": "contracts/09_SameValue.sol:SmaeValue",
						"label": "myInteger",
						"offset": 0,
						"slot": "0",
						"type": "t_uint256"
					},
					{
						"astId": 7,
						"contract": "contracts/09_SameValue.sol:SmaeValue",
						"label": "myInteger1",
						"offset": 0,
						"slot": "1",
						"type": "t_uint256"
					}
				],
				"types": {
					"t_uint256": {
						"encoding": "inplace",
						"label": "uint256",
						"numberOfBytes": "32"
					}
				}
			},
			"userdoc": {
				"kind": "user",
				"methods": {},
				"version": 1
			}
		}
	}
}