{
	"contracts/11_GasRefund.sol": {
		"GasRefund": {
			"abi": [
				{
					"inputs": [],
					"stateMutability": "nonpayable",
					"type": "constructor"
				},
				{
					"inputs": [],
					"name": "case0Berlin",
					"outputs": [],
					"stateMutability": "payable",
					"type": "function"
				},
				{
					"inputs": [],
					"name": "case1",
					"outputs": [],
					"stateMutability": "payable",
					"type": "function"
				},
				{
					"inputs": [],
					"name": "case1Berlin",
					"outputs": [],
					"stateMutability": "payable",
					"type": "function"
				},
				{
					"inputs": [],
					"name": "case2",
					"outputs": [],
					"stateMutability": "payable",
					"type": "function"
				},
				{
					"inputs": [],
					"name": "case3",
					"outputs": [],
					"stateMutability": "payable",
					"type": "function"
				},
				{
					"inputs": [],
					"name": "case4a",
					"outputs": [],
					"stateMutability": "payable",
					"type": "function"
				},
				{
					"inputs": [],
					"name": "case4b",
					"outputs": [],
					"stateMutability": "payable",
					"type": "function"
				},
				{
					"inputs": [],
					"name": "case5",
					"outputs": [],
					"stateMutability": "payable",
					"type": "function"
				},
				{
					"inputs": [],
					"name": "case6",
					"outputs": [],
					"stateMutability": "payable",
					"type": "function"
				},
				{
					"inputs": [],
					"name": "case7",
					"outputs": [],
					"stateMutability": "payable",
					"type": "function"
				}
			],
			"devdoc": {
				"kind": "dev",
				"methods": {},
				"version": 1
			},
			"evm": {
				"assembly": "    /* \"contracts/11_GasRefund.sol\":57:5541  contract GasRefund{... */\n  mstore(0x40, 0x80)\n    /* \"contracts/11_GasRefund.sol\":110:111  1 */\n  0x01\n    /* \"contracts/11_GasRefund.sol\":81:111  uint256 private berlinVar1 = 1 */\n  0x00\n  sstore\n    /* \"contracts/11_GasRefund.sol\":863:864  1 */\n  0x01\n    /* \"contracts/11_GasRefund.sol\":834:864  uint256 private berlinVar2 = 1 */\n  dup1\n  sstore\n    /* \"contracts/11_GasRefund.sol\":899:900  0 */\n  0x00\n    /* \"contracts/11_GasRefund.sol\":870:900  uint256 private berlinVar3 = 0 */\n  0x02\n  sstore\n    /* \"contracts/11_GasRefund.sol\":1451:1452  1 */\n  0x01\n    /* \"contracts/11_GasRefund.sol\":1428:1452  uint256 private var1 = 1 */\n  0x03\n  sstore\n    /* \"contracts/11_GasRefund.sol\":2410:2411  1 */\n  0x01\n    /* \"contracts/11_GasRefund.sol\":2387:2411  uint256 private var2 = 1 */\n  0x04\n  sstore\n    /* \"contracts/11_GasRefund.sol\":2440:2441  1 */\n  0x01\n    /* \"contracts/11_GasRefund.sol\":2417:2441  uint256 private var3 = 1 */\n  0x05\n  sstore\n    /* \"contracts/11_GasRefund.sol\":2915:2916  1 */\n  0x01\n    /* \"contracts/11_GasRefund.sol\":2892:2916  uint256 private var4 = 1 */\n  0x06\n  sstore\n    /* \"contracts/11_GasRefund.sol\":2945:2946  1 */\n  0x01\n    /* \"contracts/11_GasRefund.sol\":2922:2946  uint256 private var5 = 1 */\n  0x07\n  sstore\n    /* \"contracts/11_GasRefund.sol\":2975:2976  1 */\n  0x01\n    /* \"contracts/11_GasRefund.sol\":2952:2976  uint256 private var6 = 1 */\n  0x08\n  sstore\n    /* \"contracts/11_GasRefund.sol\":4520:4521  1 */\n  0x01\n    /* \"contracts/11_GasRefund.sol\":4497:4521  uint256 private var9 = 1 */\n  0x0b\n  sstore\n    /* \"contracts/11_GasRefund.sol\":4551:4552  0 */\n  0x00\n    /* \"contracts/11_GasRefund.sol\":4527:4552  uint256 private var10 = 0 */\n  0x0c\n  sstore\n    /* \"contracts/11_GasRefund.sol\":5070:5071  1 */\n  0x01\n    /* \"contracts/11_GasRefund.sol\":5046:5071  uint256 private var11 = 1 */\n  0x0d\n  sstore\n    /* \"contracts/11_GasRefund.sol\":5101:5102  1 */\n  0x01\n    /* \"contracts/11_GasRefund.sol\":5077:5102  uint256 private var12 = 1 */\n  0x0e\n  sstore\n    /* \"contracts/11_GasRefund.sol\":5132:5133  0 */\n  0x00\n    /* \"contracts/11_GasRefund.sol\":5108:5133  uint256 private var13 = 0 */\n  0x0f\n  sstore\n    /* \"contracts/11_GasRefund.sol\":5285:5286  1 */\n  0x01\n    /* \"contracts/11_GasRefund.sol\":5261:5286  uint256 private var14 = 1 */\n  0x10\n  sstore\n    /* \"contracts/11_GasRefund.sol\":5316:5317  1 */\n  0x01\n    /* \"contracts/11_GasRefund.sol\":5292:5317  uint256 private var15 = 1 */\n  0x11\n  sstore\n    /* \"contracts/11_GasRefund.sol\":3540:3635  constructor(){... */\n  callvalue\n  dup1\n  iszero\n  tag_1\n  jumpi\n  0x00\n  dup1\n  revert\ntag_1:\n  pop\n    /* \"contracts/11_GasRefund.sol\":3563:3580  var7[2] = [1,2,3] */\n  mload(0x40)\n  dup1\n  0x60\n  add\n  0x40\n  mstore\n  dup1\n    /* \"contracts/11_GasRefund.sol\":3574:3575  1 */\n  0x01\n    /* \"contracts/11_GasRefund.sol\":3563:3580  var7[2] = [1,2,3] */\n  0xff\n  and\n  dup2\n  mstore\n  0x20\n  add\n    /* \"contracts/11_GasRefund.sol\":3576:3577  2 */\n  0x02\n    /* \"contracts/11_GasRefund.sol\":3563:3580  var7[2] = [1,2,3] */\n  0xff\n  and\n  dup2\n  mstore\n  0x20\n  add\n    /* \"contracts/11_GasRefund.sol\":3578:3579  3 */\n  0x03\n    /* \"contracts/11_GasRefund.sol\":3563:3580  var7[2] = [1,2,3] */\n  0xff\n  and\n  dup2\n  mstore\n  pop\n    /* \"contracts/11_GasRefund.sol\":3563:3567  var7 */\n  0x09\n    /* \"contracts/11_GasRefund.sol\":3563:3570  var7[2] */\n  0x00\n    /* \"contracts/11_GasRefund.sol\":3568:3569  2 */\n  0x02\n    /* \"contracts/11_GasRefund.sol\":3563:3570  var7[2] */\n  dup2\n  mstore\n  0x20\n  add\n  swap1\n  dup2\n  mstore\n  0x20\n  add\n  0x00\n  keccak256\n    /* \"contracts/11_GasRefund.sol\":3563:3580  var7[2] = [1,2,3] */\n  swap1\n  0x03\n  tag_4\n  swap3\n  swap2\n  swap1\n  tag_5\n  jump\t// in\ntag_4:\n  pop\n    /* \"contracts/11_GasRefund.sol\":3590:3628  var8[2] = [1,2,3,4,5,6,7,8,9,10,11,12] */\n  mload(0x40)\n  dup1\n  0x0180\n  add\n  0x40\n  mstore\n  dup1\n    /* \"contracts/11_GasRefund.sol\":3601:3602  1 */\n  0x01\n    /* \"contracts/11_GasRefund.sol\":3590:3628  var8[2] = [1,2,3,4,5,6,7,8,9,10,11,12] */\n  0xff\n  and\n  dup2\n  mstore\n  0x20\n  add\n    /* \"contracts/11_GasRefund.sol\":3603:3604  2 */\n  0x02\n    /* \"contracts/11_GasRefund.sol\":3590:3628  var8[2] = [1,2,3,4,5,6,7,8,9,10,11,12] */\n  0xff\n  and\n  dup2\n  mstore\n  0x20\n  add\n    /* \"contracts/11_GasRefund.sol\":3605:3606  3 */\n  0x03\n    /* \"contracts/11_GasRefund.sol\":3590:3628  var8[2] = [1,2,3,4,5,6,7,8,9,10,11,12] */\n  0xff\n  and\n  dup2\n  mstore\n  0x20\n  add\n    /* \"contracts/11_GasRefund.sol\":3607:3608  4 */\n  0x04\n    /* \"contracts/11_GasRefund.sol\":3590:3628  var8[2] = [1,2,3,4,5,6,7,8,9,10,11,12] */\n  0xff\n  and\n  dup2\n  mstore\n  0x20\n  add\n    /* \"contracts/11_GasRefund.sol\":3609:3610  5 */\n  0x05\n    /* \"contracts/11_GasRefund.sol\":3590:3628  var8[2] = [1,2,3,4,5,6,7,8,9,10,11,12] */\n  0xff\n  and\n  dup2\n  mstore\n  0x20\n  add\n    /* \"contracts/11_GasRefund.sol\":3611:3612  6 */\n  0x06\n    /* \"contracts/11_GasRefund.sol\":3590:3628  var8[2] = [1,2,3,4,5,6,7,8,9,10,11,12] */\n  0xff\n  and\n  dup2\n  mstore\n  0x20\n  add\n    /* \"contracts/11_GasRefund.sol\":3613:3614  7 */\n  0x07\n    /* \"contracts/11_GasRefund.sol\":3590:3628  var8[2] = [1,2,3,4,5,6,7,8,9,10,11,12] */\n  0xff\n  and\n  dup2\n  mstore\n  0x20\n  add\n    /* \"contracts/11_GasRefund.sol\":3615:3616  8 */\n  0x08\n    /* \"contracts/11_GasRefund.sol\":3590:3628  var8[2] = [1,2,3,4,5,6,7,8,9,10,11,12] */\n  0xff\n  and\n  dup2\n  mstore\n  0x20\n  add\n    /* \"contracts/11_GasRefund.sol\":3617:3618  9 */\n  0x09\n    /* \"contracts/11_GasRefund.sol\":3590:3628  var8[2] = [1,2,3,4,5,6,7,8,9,10,11,12] */\n  0xff\n  and\n  dup2\n  mstore\n  0x20\n  add\n    /* \"contracts/11_GasRefund.sol\":3619:3621  10 */\n  0x0a\n    /* \"contracts/11_GasRefund.sol\":3590:3628  var8[2] = [1,2,3,4,5,6,7,8,9,10,11,12] */\n  0xff\n  and\n  dup2\n  mstore\n  0x20\n  add\n    /* \"contracts/11_GasRefund.sol\":3622:3624  11 */\n  0x0b\n    /* \"contracts/11_GasRefund.sol\":3590:3628  var8[2] = [1,2,3,4,5,6,7,8,9,10,11,12] */\n  0xff\n  and\n  dup2\n  mstore\n  0x20\n  add\n    /* \"contracts/11_GasRefund.sol\":3625:3627  12 */\n  0x0c\n    /* \"contracts/11_GasRefund.sol\":3590:3628  var8[2] = [1,2,3,4,5,6,7,8,9,10,11,12] */\n  0xff\n  and\n  dup2\n  mstore\n  pop\n    /* \"contracts/11_GasRefund.sol\":3590:3594  var8 */\n  0x0a\n    /* \"contracts/11_GasRefund.sol\":3590:3597  var8[2] */\n  0x00\n    /* \"contracts/11_GasRefund.sol\":3595:3596  2 */\n  0x02\n    /* \"contracts/11_GasRefund.sol\":3590:3597  var8[2] */\n  dup2\n  mstore\n  0x20\n  add\n  swap1\n  dup2\n  mstore\n  0x20\n  add\n  0x00\n  keccak256\n    /* \"contracts/11_GasRefund.sol\":3590:3628  var8[2] = [1,2,3,4,5,6,7,8,9,10,11,12] */\n  swap1\n  0x0c\n  tag_6\n  swap3\n  swap2\n  swap1\n  tag_7\n  jump\t// in\ntag_6:\n  pop\n    /* \"contracts/11_GasRefund.sol\":57:5541  contract GasRefund{... */\n  jump(tag_8)\ntag_5:\n  dup3\n  dup1\n  sload\n  dup3\n  dup3\n  sstore\n  swap1\n  0x00\n  mstore\n  keccak256(0x00, 0x20)\n  swap1\n  dup2\n  add\n  swap3\n  dup3\n  iszero\n  tag_9\n  jumpi\n  swap2\n  0x20\n  mul\n  dup3\n  add\ntag_10:\n  dup3\n  dup2\n  gt\n  iszero\n  tag_11\n  jumpi\n  dup3\n  mload\n  dup3\n  swap1\n  0xff\n  and\n  swap1\n  sstore\n  swap2\n  0x20\n  add\n  swap2\n  swap1\n  0x01\n  add\n  swap1\n  jump(tag_10)\ntag_11:\ntag_9:\n  pop\n  swap1\n  pop\n  tag_12\n  swap2\n  swap1\n  tag_13\n  jump\t// in\ntag_12:\n  pop\n  swap1\n  jump\t// out\ntag_7:\n  dup3\n  dup1\n  sload\n  dup3\n  dup3\n  sstore\n  swap1\n  0x00\n  mstore\n  keccak256(0x00, 0x20)\n  swap1\n  dup2\n  add\n  swap3\n  dup3\n  iszero\n  tag_14\n  jumpi\n  swap2\n  0x20\n  mul\n  dup3\n  add\ntag_15:\n  dup3\n  dup2\n  gt\n  iszero\n  tag_16\n  jumpi\n  dup3\n  mload\n  dup3\n  swap1\n  0xff\n  and\n  swap1\n  sstore\n  swap2\n  0x20\n  add\n  swap2\n  swap1\n  0x01\n  add\n  swap1\n  jump(tag_15)\ntag_16:\ntag_14:\n  pop\n  swap1\n  pop\n  tag_17\n  swap2\n  swap1\n  tag_13\n  jump\t// in\ntag_17:\n  pop\n  swap1\n  jump\t// out\ntag_13:\ntag_18:\n  dup1\n  dup3\n  gt\n  iszero\n  tag_19\n  jumpi\n  0x00\n  dup2\n  0x00\n  swap1\n  sstore\n  pop\n  0x01\n  add\n  jump(tag_18)\ntag_19:\n  pop\n  swap1\n  jump\t// out\ntag_8:\n  dataSize(sub_0)\n  dup1\n  dataOffset(sub_0)\n  0x00\n  codecopy\n  0x00\n  return\nstop\n\nsub_0: assembly {\n        /* \"contracts/11_GasRefund.sol\":57:5541  contract GasRefund{... */\n      mstore(0x40, 0x80)\n      jumpi(tag_1, lt(calldatasize, 0x04))\n      shr(0xe0, calldataload(0x00))\n      dup1\n      0x778dfe2d\n      gt\n      tag_12\n      jumpi\n      dup1\n      0x778dfe2d\n      eq\n      tag_7\n      jumpi\n      dup1\n      0xb791938e\n      eq\n      tag_8\n      jumpi\n      dup1\n      0xc896bbb0\n      eq\n      tag_9\n      jumpi\n      dup1\n      0xe8d76c95\n      eq\n      tag_10\n      jumpi\n      dup1\n      0xfe25fbe7\n      eq\n      tag_11\n      jumpi\n      jump(tag_1)\n    tag_12:\n      dup1\n      0x06050b96\n      eq\n      tag_2\n      jumpi\n      dup1\n      0x06a18519\n      eq\n      tag_3\n      jumpi\n      dup1\n      0x13f2d65c\n      eq\n      tag_4\n      jumpi\n      dup1\n      0x6af88e1b\n      eq\n      tag_5\n      jumpi\n      dup1\n      0x76bde603\n      eq\n      tag_6\n      jumpi\n    tag_1:\n      0x00\n      dup1\n      revert\n        /* \"contracts/11_GasRefund.sol\":3333:3427  function case3()external payable {... */\n    tag_2:\n      tag_13\n      tag_14\n      jump\t// in\n    tag_13:\n      stop\n        /* \"contracts/11_GasRefund.sol\":2309:2368  function case1()external  payable {... */\n    tag_3:\n      tag_15\n      tag_16\n      jump\t// in\n    tag_15:\n      stop\n        /* \"contracts/11_GasRefund.sol\":758:828  function case0Berlin()external payable {... */\n    tag_4:\n      tag_17\n      tag_18\n      jump\t// in\n    tag_17:\n      stop\n        /* \"contracts/11_GasRefund.sol\":5140:5237  function case6()external payable {... */\n    tag_5:\n      tag_19\n      tag_20\n      jump\t// in\n    tag_19:\n      stop\n        /* \"contracts/11_GasRefund.sol\":2798:2873  function case2()external payable{... */\n    tag_6:\n      tag_21\n      tag_22\n      jump\t// in\n    tag_21:\n      stop\n        /* \"contracts/11_GasRefund.sol\":1314:1408  function case1Berlin()external payable {... */\n    tag_7:\n      tag_23\n      tag_24\n      jump\t// in\n    tag_23:\n      stop\n        /* \"contracts/11_GasRefund.sol\":4413:4478  function case4b()external payable {... */\n    tag_8:\n      tag_25\n      tag_26\n      jump\t// in\n    tag_25:\n      stop\n        /* \"contracts/11_GasRefund.sol\":5324:5403  function case7()external payable {... */\n    tag_9:\n      tag_27\n      tag_28\n      jump\t// in\n    tag_27:\n      stop\n        /* \"contracts/11_GasRefund.sol\":3991:4056  function case4a()external payable {... */\n    tag_10:\n      tag_29\n      tag_30\n      jump\t// in\n    tag_29:\n      stop\n        /* \"contracts/11_GasRefund.sol\":4945:5023  function case5() external payable {... */\n    tag_11:\n      tag_31\n      tag_32\n      jump\t// in\n    tag_31:\n      stop\n        /* \"contracts/11_GasRefund.sol\":3333:3427  function case3()external payable {... */\n    tag_14:\n        /* \"contracts/11_GasRefund.sol\":3383:3384  0 */\n      0x00\n        /* \"contracts/11_GasRefund.sol\":3376:3380  var4 */\n      0x06\n        /* \"contracts/11_GasRefund.sol\":3376:3384  var4 = 0 */\n      dup2\n      swap1\n      sstore\n      pop\n        /* \"contracts/11_GasRefund.sol\":3401:3402  0 */\n      0x00\n        /* \"contracts/11_GasRefund.sol\":3394:3398  var5 */\n      0x07\n        /* \"contracts/11_GasRefund.sol\":3394:3402  var5 = 0 */\n      dup2\n      swap1\n      sstore\n      pop\n        /* \"contracts/11_GasRefund.sol\":3419:3420  0 */\n      0x00\n        /* \"contracts/11_GasRefund.sol\":3412:3416  var6 */\n      0x08\n        /* \"contracts/11_GasRefund.sol\":3412:3420  var6 = 0 */\n      dup2\n      swap1\n      sstore\n      pop\n        /* \"contracts/11_GasRefund.sol\":3333:3427  function case3()external payable {... */\n      jump\t// out\n        /* \"contracts/11_GasRefund.sol\":2309:2368  function case1()external  payable {... */\n    tag_16:\n        /* \"contracts/11_GasRefund.sol\":2360:2361  0 */\n      0x00\n        /* \"contracts/11_GasRefund.sol\":2353:2357  var1 */\n      0x03\n        /* \"contracts/11_GasRefund.sol\":2353:2361  var1 = 0 */\n      dup2\n      swap1\n      sstore\n      pop\n        /* \"contracts/11_GasRefund.sol\":2309:2368  function case1()external  payable {... */\n      jump\t// out\n        /* \"contracts/11_GasRefund.sol\":758:828  function case0Berlin()external payable {... */\n    tag_18:\n        /* \"contracts/11_GasRefund.sol\":820:821  0 */\n      0x00\n        /* \"contracts/11_GasRefund.sol\":807:817  berlinVar1 */\n      dup1\n        /* \"contracts/11_GasRefund.sol\":807:821  berlinVar1 = 0 */\n      dup2\n      swap1\n      sstore\n      pop\n        /* \"contracts/11_GasRefund.sol\":758:828  function case0Berlin()external payable {... */\n      jump\t// out\n        /* \"contracts/11_GasRefund.sol\":5140:5237  function case6()external payable {... */\n    tag_20:\n        /* \"contracts/11_GasRefund.sol\":5191:5192  0 */\n      0x00\n        /* \"contracts/11_GasRefund.sol\":5183:5188  var11 */\n      0x0d\n        /* \"contracts/11_GasRefund.sol\":5183:5192  var11 = 0 */\n      dup2\n      swap1\n      sstore\n      pop\n        /* \"contracts/11_GasRefund.sol\":5210:5211  0 */\n      0x00\n        /* \"contracts/11_GasRefund.sol\":5202:5207  var12 */\n      0x0e\n        /* \"contracts/11_GasRefund.sol\":5202:5211  var12 = 0 */\n      dup2\n      swap1\n      sstore\n      pop\n        /* \"contracts/11_GasRefund.sol\":5229:5230  1 */\n      0x01\n        /* \"contracts/11_GasRefund.sol\":5221:5226  var13 */\n      0x0f\n        /* \"contracts/11_GasRefund.sol\":5221:5230  var13 = 1 */\n      dup2\n      swap1\n      sstore\n      pop\n        /* \"contracts/11_GasRefund.sol\":5140:5237  function case6()external payable {... */\n      jump\t// out\n        /* \"contracts/11_GasRefund.sol\":2798:2873  function case2()external payable{... */\n    tag_22:\n        /* \"contracts/11_GasRefund.sol\":2847:2848  0 */\n      0x00\n        /* \"contracts/11_GasRefund.sol\":2840:2844  var2 */\n      0x04\n        /* \"contracts/11_GasRefund.sol\":2840:2848  var2 = 0 */\n      dup2\n      swap1\n      sstore\n      pop\n        /* \"contracts/11_GasRefund.sol\":2865:2866  0 */\n      0x00\n        /* \"contracts/11_GasRefund.sol\":2858:2862  var3 */\n      0x05\n        /* \"contracts/11_GasRefund.sol\":2858:2866  var3 = 0 */\n      dup2\n      swap1\n      sstore\n      pop\n        /* \"contracts/11_GasRefund.sol\":2798:2873  function case2()external payable{... */\n      jump\t// out\n        /* \"contracts/11_GasRefund.sol\":1314:1408  function case1Berlin()external payable {... */\n    tag_24:\n        /* \"contracts/11_GasRefund.sol\":1376:1377  0 */\n      0x00\n        /* \"contracts/11_GasRefund.sol\":1363:1373  berlinVar2 */\n      0x01\n        /* \"contracts/11_GasRefund.sol\":1363:1377  berlinVar2 = 0 */\n      dup2\n      swap1\n      sstore\n      pop\n        /* \"contracts/11_GasRefund.sol\":1400:1401  1 */\n      0x01\n        /* \"contracts/11_GasRefund.sol\":1387:1397  berlinVar3 */\n      0x02\n        /* \"contracts/11_GasRefund.sol\":1387:1401  berlinVar3 = 1 */\n      dup2\n      swap1\n      sstore\n      pop\n        /* \"contracts/11_GasRefund.sol\":1314:1408  function case1Berlin()external payable {... */\n      jump\t// out\n        /* \"contracts/11_GasRefund.sol\":4413:4478  function case4b()external payable {... */\n    tag_26:\n        /* \"contracts/11_GasRefund.sol\":4464:4468  var8 */\n      0x0a\n        /* \"contracts/11_GasRefund.sol\":4464:4471  var8[2] */\n      0x00\n        /* \"contracts/11_GasRefund.sol\":4469:4470  2 */\n      0x02\n        /* \"contracts/11_GasRefund.sol\":4464:4471  var8[2] */\n      dup2\n      mstore\n      0x20\n      add\n      swap1\n      dup2\n      mstore\n      0x20\n      add\n      0x00\n      keccak256\n      0x00\n        /* \"contracts/11_GasRefund.sol\":4457:4471  delete var8[2] */\n      tag_40\n      swap2\n      swap1\n      tag_41\n      jump\t// in\n    tag_40:\n        /* \"contracts/11_GasRefund.sol\":4413:4478  function case4b()external payable {... */\n      jump\t// out\n        /* \"contracts/11_GasRefund.sol\":5324:5403  function case7()external payable {... */\n    tag_28:\n        /* \"contracts/11_GasRefund.sol\":5375:5376  0 */\n      0x00\n        /* \"contracts/11_GasRefund.sol\":5367:5372  var14 */\n      0x10\n        /* \"contracts/11_GasRefund.sol\":5367:5376  var14 = 0 */\n      dup2\n      swap1\n      sstore\n      pop\n        /* \"contracts/11_GasRefund.sol\":5394:5395  2 */\n      0x02\n        /* \"contracts/11_GasRefund.sol\":5386:5391  var15 */\n      0x11\n        /* \"contracts/11_GasRefund.sol\":5386:5395  var15 = 2 */\n      dup2\n      swap1\n      sstore\n      pop\n        /* \"contracts/11_GasRefund.sol\":5324:5403  function case7()external payable {... */\n      jump\t// out\n        /* \"contracts/11_GasRefund.sol\":3991:4056  function case4a()external payable {... */\n    tag_30:\n        /* \"contracts/11_GasRefund.sol\":4042:4046  var7 */\n      0x09\n        /* \"contracts/11_GasRefund.sol\":4042:4049  var7[2] */\n      0x00\n        /* \"contracts/11_GasRefund.sol\":4047:4048  2 */\n      0x02\n        /* \"contracts/11_GasRefund.sol\":4042:4049  var7[2] */\n      dup2\n      mstore\n      0x20\n      add\n      swap1\n      dup2\n      mstore\n      0x20\n      add\n      0x00\n      keccak256\n      0x00\n        /* \"contracts/11_GasRefund.sol\":4035:4049  delete var7[2] */\n      tag_44\n      swap2\n      swap1\n      tag_41\n      jump\t// in\n    tag_44:\n        /* \"contracts/11_GasRefund.sol\":3991:4056  function case4a()external payable {... */\n      jump\t// out\n        /* \"contracts/11_GasRefund.sol\":4945:5023  function case5() external payable {... */\n    tag_32:\n        /* \"contracts/11_GasRefund.sol\":4996:4997  0 */\n      0x00\n        /* \"contracts/11_GasRefund.sol\":4989:4993  var9 */\n      0x0b\n        /* \"contracts/11_GasRefund.sol\":4989:4997  var9 = 0 */\n      dup2\n      swap1\n      sstore\n      pop\n        /* \"contracts/11_GasRefund.sol\":5015:5016  1 */\n      0x01\n        /* \"contracts/11_GasRefund.sol\":5007:5012  var10 */\n      0x0c\n        /* \"contracts/11_GasRefund.sol\":5007:5016  var10 = 1 */\n      dup2\n      swap1\n      sstore\n      pop\n        /* \"contracts/11_GasRefund.sol\":4945:5023  function case5() external payable {... */\n      jump\t// out\n    tag_41:\n      pop\n      dup1\n      sload\n      0x00\n      dup3\n      sstore\n      swap1\n      0x00\n      mstore\n      keccak256(0x00, 0x20)\n      swap1\n      dup2\n      add\n      swap1\n      tag_47\n      swap2\n      swap1\n      tag_48\n      jump\t// in\n    tag_47:\n      pop\n      jump\t// out\n    tag_48:\n    tag_49:\n      dup1\n      dup3\n      gt\n      iszero\n      tag_50\n      jumpi\n      0x00\n      dup2\n      0x00\n      swap1\n      sstore\n      pop\n      0x01\n      add\n      jump(tag_49)\n    tag_50:\n      pop\n      swap1\n      jump\t// out\n\n    auxdata: 0xa264697066735822122079548468f66192c591ad7a38ae50f33ace8e78465a1cb7e897c785510343a42464736f6c63430008070033\n}\n",
				"bytecode": {
					"linkReferences": {},
					"object": "608060405260016000556001805560006002556001600355600160045560016005556001600655600160075560016008556001600b556000600c556001600d556001600e556000600f556001601055600160115534801561005f57600080fd5b506040518060600160405280600160ff168152602001600260ff168152602001600360ff1681525060096000600281526020019081526020016000209060036100a9929190610154565b50604051806101800160405280600160ff168152602001600260ff168152602001600360ff168152602001600460ff168152602001600560ff168152602001600660ff168152602001600760ff168152602001600860ff168152602001600960ff168152602001600a60ff168152602001600b60ff168152602001600c60ff16815250600a60006002815260200190815260200160002090600c61014e9291906101a6565b50610215565b828054828255906000526020600020908101928215610195579160200282015b82811115610194578251829060ff16905591602001919060010190610174565b5b5090506101a291906101f8565b5090565b8280548282559060005260206000209081019282156101e7579160200282015b828111156101e6578251829060ff169055916020019190600101906101c6565b5b5090506101f491906101f8565b5090565b5b808211156102115760008160009055506001016101f9565b5090565b610241806102246000396000f3fe6080604052600436106100915760003560e01c8063778dfe2d11610059578063778dfe2d146100c8578063b791938e146100d2578063c896bbb0146100dc578063e8d76c95146100e6578063fe25fbe7146100f057610091565b806306050b961461009657806306a18519146100a057806313f2d65c146100aa5780636af88e1b146100b457806376bde603146100be575b600080fd5b61009e6100fa565b005b6100a8610114565b005b6100b261011e565b005b6100bc610127565b005b6100c6610141565b005b6100d0610153565b005b6100da610165565b005b6100e4610187565b005b6100ee610199565b005b6100f86101bb565b005b600060068190555060006007819055506000600881905550565b6000600381905550565b60008081905550565b6000600d819055506000600e819055506001600f81905550565b60006004819055506000600581905550565b60006001819055506001600281905550565b600a600060028152602001908152602001600020600061018591906101cd565b565b60006010819055506002601181905550565b600960006002815260200190815260200160002060006101b991906101cd565b565b6000600b819055506001600c81905550565b50805460008255906000526020600020908101906101eb91906101ee565b50565b5b808211156102075760008160009055506001016101ef565b509056fea264697066735822122079548468f66192c591ad7a38ae50f33ace8e78465a1cb7e897c785510343a42464736f6c63430008070033",
					"opcodes": "PUSH1 0x80 PUSH1 0x40 MSTORE PUSH1 0x1 PUSH1 0x0 SSTORE PUSH1 0x1 DUP1 SSTORE PUSH1 0x0 PUSH1 0x2 SSTORE PUSH1 0x1 PUSH1 0x3 SSTORE PUSH1 0x1 PUSH1 0x4 SSTORE PUSH1 0x1 PUSH1 0x5 SSTORE PUSH1 0x1 PUSH1 0x6 SSTORE PUSH1 0x1 PUSH1 0x7 SSTORE PUSH1 0x1 PUSH1 0x8 SSTORE PUSH1 0x1 PUSH1 0xB SSTORE PUSH1 0x0 PUSH1 0xC SSTORE PUSH1 0x1 PUSH1 0xD SSTORE PUSH1 0x1 PUSH1 0xE SSTORE PUSH1 0x0 PUSH1 0xF SSTORE PUSH1 0x1 PUSH1 0x10 SSTORE PUSH1 0x1 PUSH1 0x11 SSTORE CALLVALUE DUP1 ISZERO PUSH2 0x5F JUMPI PUSH1 0x0 DUP1 REVERT JUMPDEST POP PUSH1 0x40 MLOAD DUP1 PUSH1 0x60 ADD PUSH1 0x40 MSTORE DUP1 PUSH1 0x1 PUSH1 0xFF AND DUP2 MSTORE PUSH1 0x20 ADD PUSH1 0x2 PUSH1 0xFF AND DUP2 MSTORE PUSH1 0x20 ADD PUSH1 0x3 PUSH1 0xFF AND DUP2 MSTORE POP PUSH1 0x9 PUSH1 0x0 PUSH1 0x2 DUP2 MSTORE PUSH1 0x20 ADD SWAP1 DUP2 MSTORE PUSH1 0x20 ADD PUSH1 0x0 KECCAK256 SWAP1 PUSH1 0x3 PUSH2 0xA9 SWAP3 SWAP2 SWAP1 PUSH2 0x154 JUMP JUMPDEST POP PUSH1 0x40 MLOAD DUP1 PUSH2 0x180 ADD PUSH1 0x40 MSTORE DUP1 PUSH1 0x1 PUSH1 0xFF AND DUP2 MSTORE PUSH1 0x20 ADD PUSH1 0x2 PUSH1 0xFF AND DUP2 MSTORE PUSH1 0x20 ADD PUSH1 0x3 PUSH1 0xFF AND DUP2 MSTORE PUSH1 0x20 ADD PUSH1 0x4 PUSH1 0xFF AND DUP2 MSTORE PUSH1 0x20 ADD PUSH1 0x5 PUSH1 0xFF AND DUP2 MSTORE PUSH1 0x20 ADD PUSH1 0x6 PUSH1 0xFF AND DUP2 MSTORE PUSH1 0x20 ADD PUSH1 0x7 PUSH1 0xFF AND DUP2 MSTORE PUSH1 0x20 ADD PUSH1 0x8 PUSH1 0xFF AND DUP2 MSTORE PUSH1 0x20 ADD PUSH1 0x9 PUSH1 0xFF AND DUP2 MSTORE PUSH1 0x20 ADD PUSH1 0xA PUSH1 0xFF AND DUP2 MSTORE PUSH1 0x20 ADD PUSH1 0xB PUSH1 0xFF AND DUP2 MSTORE PUSH1 0x20 ADD PUSH1 0xC PUSH1 0xFF AND DUP2 MSTORE POP PUSH1 0xA PUSH1 0x0 PUSH1 0x2 DUP2 MSTORE PUSH1 0x20 ADD SWAP1 DUP2 MSTORE PUSH1 0x20 ADD PUSH1 0x0 KECCAK256 SWAP1 PUSH1 0xC PUSH2 0x14E SWAP3 SWAP2 SWAP1 PUSH2 0x1A6 JUMP JUMPDEST POP PUSH2 0x215 JUMP JUMPDEST DUP3 DUP1 SLOAD DUP3 DUP3 SSTORE SWAP1 PUSH1 0x0 MSTORE PUSH1 0x20 PUSH1 0x0 KECCAK256 SWAP1 DUP2 ADD SWAP3 DUP3 ISZERO PUSH2 0x195 JUMPI SWAP2 PUSH1 0x20 MUL DUP3 ADD JUMPDEST DUP3 DUP2 GT ISZERO PUSH2 0x194 JUMPI DUP3 MLOAD DUP3 SWAP1 PUSH1 0xFF AND SWAP1 SSTORE SWAP2 PUSH1 0x20 ADD SWAP2 SWAP1 PUSH1 0x1 ADD SWAP1 PUSH2 0x174 JUMP JUMPDEST JUMPDEST POP SWAP1 POP PUSH2 0x1A2 SWAP2 SWAP1 PUSH2 0x1F8 JUMP JUMPDEST POP SWAP1 JUMP JUMPDEST DUP3 DUP1 SLOAD DUP3 DUP3 SSTORE SWAP1 PUSH1 0x0 MSTORE PUSH1 0x20 PUSH1 0x0 KECCAK256 SWAP1 DUP2 ADD SWAP3 DUP3 ISZERO PUSH2 0x1E7 JUMPI SWAP2 PUSH1 0x20 MUL DUP3 ADD JUMPDEST DUP3 DUP2 GT ISZERO PUSH2 0x1E6 JUMPI DUP3 MLOAD DUP3 SWAP1 PUSH1 0xFF AND SWAP1 SSTORE SWAP2 PUSH1 0x20 ADD SWAP2 SWAP1 PUSH1 0x1 ADD SWAP1 PUSH2 0x1C6 JUMP JUMPDEST JUMPDEST POP SWAP1 POP PUSH2 0x1F4 SWAP2 SWAP1 PUSH2 0x1F8 JUMP JUMPDEST POP SWAP1 JUMP JUMPDEST JUMPDEST DUP1 DUP3 GT ISZERO PUSH2 0x211 JUMPI PUSH1 0x0 DUP2 PUSH1 0x0 SWAP1 SSTORE POP PUSH1 0x1 ADD PUSH2 0x1F9 JUMP JUMPDEST POP SWAP1 JUMP JUMPDEST PUSH2 0x241 DUP1 PUSH2 0x224 PUSH1 0x0 CODECOPY PUSH1 0x0 RETURN INVALID PUSH1 0x80 PUSH1 0x40 MSTORE PUSH1 0x4 CALLDATASIZE LT PUSH2 0x91 JUMPI PUSH1 0x0 CALLDATALOAD PUSH1 0xE0 SHR DUP1 PUSH4 0x778DFE2D GT PUSH2 0x59 JUMPI DUP1 PUSH4 0x778DFE2D EQ PUSH2 0xC8 JUMPI DUP1 PUSH4 0xB791938E EQ PUSH2 0xD2 JUMPI DUP1 PUSH4 0xC896BBB0 EQ PUSH2 0xDC JUMPI DUP1 PUSH4 0xE8D76C95 EQ PUSH2 0xE6 JUMPI DUP1 PUSH4 0xFE25FBE7 EQ PUSH2 0xF0 JUMPI PUSH2 0x91 JUMP JUMPDEST DUP1 PUSH4 0x6050B96 EQ PUSH2 0x96 JUMPI DUP1 PUSH4 0x6A18519 EQ PUSH2 0xA0 JUMPI DUP1 PUSH4 0x13F2D65C EQ PUSH2 0xAA JUMPI DUP1 PUSH4 0x6AF88E1B EQ PUSH2 0xB4 JUMPI DUP1 PUSH4 0x76BDE603 EQ PUSH2 0xBE JUMPI JUMPDEST PUSH1 0x0 DUP1 REVERT JUMPDEST PUSH2 0x9E PUSH2 0xFA JUMP JUMPDEST STOP JUMPDEST PUSH2 0xA8 PUSH2 0x114 JUMP JUMPDEST STOP JUMPDEST PUSH2 0xB2 PUSH2 0x11E JUMP JUMPDEST STOP JUMPDEST PUSH2 0xBC PUSH2 0x127 JUMP JUMPDEST STOP JUMPDEST PUSH2 0xC6 PUSH2 0x141 JUMP JUMPDEST STOP JUMPDEST PUSH2 0xD0 PUSH2 0x153 JUMP JUMPDEST STOP JUMPDEST PUSH2 0xDA PUSH2 0x165 JUMP JUMPDEST STOP JUMPDEST PUSH2 0xE4 PUSH2 0x187 JUMP JUMPDEST STOP JUMPDEST PUSH2 0xEE PUSH2 0x199 JUMP JUMPDEST STOP JUMPDEST PUSH2 0xF8 PUSH2 0x1BB JUMP JUMPDEST STOP JUMPDEST PUSH1 0x0 PUSH1 0x6 DUP2 SWAP1 SSTORE POP PUSH1 0x0 PUSH1 0x7 DUP2 SWAP1 SSTORE POP PUSH1 0x0 PUSH1 0x8 DUP2 SWAP1 SSTORE POP JUMP JUMPDEST PUSH1 0x0 PUSH1 0x3 DUP2 SWAP1 SSTORE POP JUMP JUMPDEST PUSH1 0x0 DUP1 DUP2 SWAP1 SSTORE POP JUMP JUMPDEST PUSH1 0x0 PUSH1 0xD DUP2 SWAP1 SSTORE POP PUSH1 0x0 PUSH1 0xE DUP2 SWAP1 SSTORE POP PUSH1 0x1 PUSH1 0xF DUP2 SWAP1 SSTORE POP JUMP JUMPDEST PUSH1 0x0 PUSH1 0x4 DUP2 SWAP1 SSTORE POP PUSH1 0x0 PUSH1 0x5 DUP2 SWAP1 SSTORE POP JUMP JUMPDEST PUSH1 0x0 PUSH1 0x1 DUP2 SWAP1 SSTORE POP PUSH1 0x1 PUSH1 0x2 DUP2 SWAP1 SSTORE POP JUMP JUMPDEST PUSH1 0xA PUSH1 0x0 PUSH1 0x2 DUP2 MSTORE PUSH1 0x20 ADD SWAP1 DUP2 MSTORE PUSH1 0x20 ADD PUSH1 0x0 KECCAK256 PUSH1 0x0 PUSH2 0x185 SWAP2 SWAP1 PUSH2 0x1CD JUMP JUMPDEST JUMP JUMPDEST PUSH1 0x0 PUSH1 0x10 DUP2 SWAP1 SSTORE POP PUSH1 0x2 PUSH1 0x11 DUP2 SWAP1 SSTORE POP JUMP JUMPDEST PUSH1 0x9 PUSH1 0x0 PUSH1 0x2 DUP2 MSTORE PUSH1 0x20 ADD SWAP1 DUP2 MSTORE PUSH1 0x20 ADD PUSH1 0x0 KECCAK256 PUSH1 0x0 PUSH2 0x1B9 SWAP2 SWAP1 PUSH2 0x1CD JUMP JUMPDEST JUMP JUMPDEST PUSH1 0x0 PUSH1 0xB DUP2 SWAP1 SSTORE POP PUSH1 0x1 PUSH1 0xC DUP2 SWAP1 SSTORE POP JUMP JUMPDEST POP DUP1 SLOAD PUSH1 0x0 DUP3 SSTORE SWAP1 PUSH1 0x0 MSTORE PUSH1 0x20 PUSH1 0x0 KECCAK256 SWAP1 DUP2 ADD SWAP1 PUSH2 0x1EB SWAP2 SWAP1 PUSH2 0x1EE JUMP JUMPDEST POP JUMP JUMPDEST JUMPDEST DUP1 DUP3 GT ISZERO PUSH2 0x207 JUMPI PUSH1 0x0 DUP2 PUSH1 0x0 SWAP1 SSTORE POP PUSH1 0x1 ADD PUSH2 0x1EF JUMP JUMPDEST POP SWAP1 JUMP INVALID LOG2 PUSH5 0x6970667358 0x22 SLT KECCAK256 PUSH26 0x548468F66192C591AD7A38AE50F33ACE8E78465A1CB7E897C785 MLOAD SUB NUMBER LOG4 0x24 PUSH5 0x736F6C6343 STOP ADDMOD SMOD STOP CALLER "
				},
				"gasEstimates": {
					"creation": {
						"codeDepositCost": "115400",
						"executionCost": "infinite",
						"totalCost": "infinite"
					},
					"external": {
						"case0Berlin()": "5179",
						"case1()": "5157",
						"case1Berlin()": "27248",
						"case2()": "10237",
						"case3()": "15163",
						"case4a()": "infinite",
						"case4b()": "infinite",
						"case5()": "27336",
						"case6()": "32329",
						"case7()": "27292"
					}
				},
				"methodIdentifiers": {
					"case0Berlin()": "13f2d65c",
					"case1()": "06a18519",
					"case1Berlin()": "778dfe2d",
					"case2()": "76bde603",
					"case3()": "06050b96",
					"case4a()": "e8d76c95",
					"case4b()": "b791938e",
					"case5()": "fe25fbe7",
					"case6()": "6af88e1b",
					"case7()": "c896bbb0"
				}
			},
			"storageLayout": {
				"storage": [
					{
						"astId": 4,
						"contract": "contracts/11_GasRefund.sol:GasRefund",
						"label": "berlinVar1",
						"offset": 0,
						"slot": "0",
						"type": "t_uint256"
					},
					{
						"astId": 15,
						"contract": "contracts/11_GasRefund.sol:GasRefund",
						"label": "berlinVar2",
						"offset": 0,
						"slot": "1",
						"type": "t_uint256"
					},
					{
						"astId": 18,
						"contract": "contracts/11_GasRefund.sol:GasRefund",
						"label": "berlinVar3",
						"offset": 0,
						"slot": "2",
						"type": "t_uint256"
					},
					{
						"astId": 33,
						"contract": "contracts/11_GasRefund.sol:GasRefund",
						"label": "var1",
						"offset": 0,
						"slot": "3",
						"type": "t_uint256"
					},
					{
						"astId": 44,
						"contract": "contracts/11_GasRefund.sol:GasRefund",
						"label": "var2",
						"offset": 0,
						"slot": "4",
						"type": "t_uint256"
					},
					{
						"astId": 47,
						"contract": "contracts/11_GasRefund.sol:GasRefund",
						"label": "var3",
						"offset": 0,
						"slot": "5",
						"type": "t_uint256"
					},
					{
						"astId": 62,
						"contract": "contracts/11_GasRefund.sol:GasRefund",
						"label": "var4",
						"offset": 0,
						"slot": "6",
						"type": "t_uint256"
					},
					{
						"astId": 65,
						"contract": "contracts/11_GasRefund.sol:GasRefund",
						"label": "var5",
						"offset": 0,
						"slot": "7",
						"type": "t_uint256"
					},
					{
						"astId": 68,
						"contract": "contracts/11_GasRefund.sol:GasRefund",
						"label": "var6",
						"offset": 0,
						"slot": "8",
						"type": "t_uint256"
					},
					{
						"astId": 89,
						"contract": "contracts/11_GasRefund.sol:GasRefund",
						"label": "var7",
						"offset": 0,
						"slot": "9",
						"type": "t_mapping(t_uint256,t_array(t_uint256)dyn_storage)"
					},
					{
						"astId": 94,
						"contract": "contracts/11_GasRefund.sol:GasRefund",
						"label": "var8",
						"offset": 0,
						"slot": "10",
						"type": "t_mapping(t_uint256,t_array(t_uint256)dyn_storage)"
					},
					{
						"astId": 146,
						"contract": "contracts/11_GasRefund.sol:GasRefund",
						"label": "var9",
						"offset": 0,
						"slot": "11",
						"type": "t_uint256"
					},
					{
						"astId": 149,
						"contract": "contracts/11_GasRefund.sol:GasRefund",
						"label": "var10",
						"offset": 0,
						"slot": "12",
						"type": "t_uint256"
					},
					{
						"astId": 164,
						"contract": "contracts/11_GasRefund.sol:GasRefund",
						"label": "var11",
						"offset": 0,
						"slot": "13",
						"type": "t_uint256"
					},
					{
						"astId": 167,
						"contract": "contracts/11_GasRefund.sol:GasRefund",
						"label": "var12",
						"offset": 0,
						"slot": "14",
						"type": "t_uint256"
					},
					{
						"astId": 170,
						"contract": "contracts/11_GasRefund.sol:GasRefund",
						"label": "var13",
						"offset": 0,
						"slot": "15",
						"type": "t_uint256"
					},
					{
						"astId": 189,
						"contract": "contracts/11_GasRefund.sol:GasRefund",
						"label": "var14",
						"offset": 0,
						"slot": "16",
						"type": "t_uint256"
					},
					{
						"astId": 192,
						"contract": "contracts/11_GasRefund.sol:GasRefund",
						"label": "var15",
						"offset": 0,
						"slot": "17",
						"type": "t_uint256"
					}
				],
				"types": {
					"t_array(t_uint256)dyn_storage": {
						"base": "t_uint256",
						"encoding": "dynamic_array",
						"label": "uint256[]",
						"numberOfBytes": "32"
					},
					"t_mapping(t_uint256,t_array(t_uint256)dyn_storage)": {
						"encoding": "mapping",
						"key": "t_uint256",
						"label": "mapping(uint256 => uint256[])",
						"numberOfBytes": "32",
						"value": "t_array(t_uint256)dyn_storage"
					},
					"t_uint256": {
						"encoding": "inplace",
						"label": "uint256",
						"numberOfBytes": "32"
					}
				}
			},
			"userdoc": {
				"kind": "user",
				"methods": {},
				"version": 1
			}
		}
	}
}