{
	"contracts/12_ERC20_Files_Structs_Strings.sol": {
		"StructsStrings": {
			"abi": [
				{
					"inputs": [],
					"name": "getCV1",
					"outputs": [
						{
							"internalType": "bytes32",
							"name": "val",
							"type": "bytes32"
						}
					],
					"stateMutability": "view",
					"type": "function"
				},
				{
					"inputs": [],
					"name": "getCV2",
					"outputs": [
						{
							"internalType": "bytes32",
							"name": "val",
							"type": "bytes32"
						}
					],
					"stateMutability": "view",
					"type": "function"
				},
				{
					"inputs": [],
					"name": "getCV3",
					"outputs": [
						{
							"internalType": "bytes32",
							"name": "val",
							"type": "bytes32"
						}
					],
					"stateMutability": "view",
					"type": "function"
				},
				{
					"inputs": [],
					"name": "setStructV1",
					"outputs": [],
					"stateMutability": "nonpayable",
					"type": "function"
				},
				{
					"inputs": [],
					"name": "setStructV2",
					"outputs": [],
					"stateMutability": "nonpayable",
					"type": "function"
				},
				{
					"inputs": [],
					"name": "setStructV3",
					"outputs": [],
					"stateMutability": "nonpayable",
					"type": "function"
				},
				{
					"inputs": [],
					"name": "setStructV4",
					"outputs": [],
					"stateMutability": "nonpayable",
					"type": "function"
				},
				{
					"inputs": [],
					"name": "setStructV5",
					"outputs": [],
					"stateMutability": "nonpayable",
					"type": "function"
				},
				{
					"inputs": [],
					"name": "setStructV6",
					"outputs": [],
					"stateMutability": "nonpayable",
					"type": "function"
				}
			],
			"devdoc": {
				"kind": "dev",
				"methods": {},
				"version": 1
			},
			"evm": {
				"assembly": "    /* \"contracts/12_ERC20_Files_Structs_Strings.sol\":1370:4737  contract StructsStrings {... */\n  mstore(0x40, 0x80)\n  callvalue\n  dup1\n  iszero\n  tag_1\n  jumpi\n  0x00\n  dup1\n  revert\ntag_1:\n  pop\n  dataSize(sub_0)\n  dup1\n  dataOffset(sub_0)\n  0x00\n  codecopy\n  0x00\n  return\nstop\n\nsub_0: assembly {\n        /* \"contracts/12_ERC20_Files_Structs_Strings.sol\":1370:4737  contract StructsStrings {... */\n      mstore(0x40, 0x80)\n      callvalue\n      dup1\n      iszero\n      tag_1\n      jumpi\n      0x00\n      dup1\n      revert\n    tag_1:\n      pop\n      jumpi(tag_2, lt(calldatasize, 0x04))\n      shr(0xe0, calldataload(0x00))\n      dup1\n      0xb333bf69\n      gt\n      tag_12\n      jumpi\n      dup1\n      0xb333bf69\n      eq\n      tag_7\n      jumpi\n      dup1\n      0xbfc21b29\n      eq\n      tag_8\n      jumpi\n      dup1\n      0xd2200749\n      eq\n      tag_9\n      jumpi\n      dup1\n      0xf4fadc01\n      eq\n      tag_10\n      jumpi\n      dup1\n      0xf5a2c816\n      eq\n      tag_11\n      jumpi\n      jump(tag_2)\n    tag_12:\n      dup1\n      0x1fec1501\n      eq\n      tag_3\n      jumpi\n      dup1\n      0x4de0f289\n      eq\n      tag_4\n      jumpi\n      dup1\n      0xa0818010\n      eq\n      tag_5\n      jumpi\n      dup1\n      0xa594bf89\n      eq\n      tag_6\n      jumpi\n    tag_2:\n      0x00\n      dup1\n      revert\n        /* \"contracts/12_ERC20_Files_Structs_Strings.sol\":4449:4589  function getCV2() external view returns (bytes32 val) {... */\n    tag_3:\n      tag_13\n      tag_14\n      jump\t// in\n    tag_13:\n      mload(0x40)\n      tag_15\n      swap2\n      swap1\n      tag_16\n      jump\t// in\n    tag_15:\n      mload(0x40)\n      dup1\n      swap2\n      sub\n      swap1\n      return\n        /* \"contracts/12_ERC20_Files_Structs_Strings.sol\":4595:4735  function getCV3() external view returns (bytes32 val) {... */\n    tag_4:\n      tag_17\n      tag_18\n      jump\t// in\n    tag_17:\n      mload(0x40)\n      tag_19\n      swap2\n      swap1\n      tag_16\n      jump\t// in\n    tag_19:\n      mload(0x40)\n      dup1\n      swap2\n      sub\n      swap1\n      return\n        /* \"contracts/12_ERC20_Files_Structs_Strings.sol\":3503:3678  function setStructV5() external {... */\n    tag_5:\n      tag_20\n      tag_21\n      jump\t// in\n    tag_20:\n      stop\n        /* \"contracts/12_ERC20_Files_Structs_Strings.sol\":3119:3221  function setStructV4() external {... */\n    tag_6:\n      tag_22\n      tag_23\n      jump\t// in\n    tag_22:\n      stop\n        /* \"contracts/12_ERC20_Files_Structs_Strings.sol\":2355:2451  function setStructV2() external {... */\n    tag_7:\n      tag_24\n      tag_25\n      jump\t// in\n    tag_24:\n      stop\n        /* \"contracts/12_ERC20_Files_Structs_Strings.sol\":1984:2080  function setStructV1() external {... */\n    tag_8:\n      tag_26\n      tag_27\n      jump\t// in\n    tag_26:\n      stop\n        /* \"contracts/12_ERC20_Files_Structs_Strings.sol\":3911:4120  function setStructV6() external {... */\n    tag_9:\n      tag_28\n      tag_29\n      jump\t// in\n    tag_28:\n      stop\n        /* \"contracts/12_ERC20_Files_Structs_Strings.sol\":4303:4443  function getCV1() external view returns (bytes32 val) {... */\n    tag_10:\n      tag_30\n      tag_31\n      jump\t// in\n    tag_30:\n      mload(0x40)\n      tag_32\n      swap2\n      swap1\n      tag_16\n      jump\t// in\n    tag_32:\n      mload(0x40)\n      dup1\n      swap2\n      sub\n      swap1\n      return\n        /* \"contracts/12_ERC20_Files_Structs_Strings.sol\":2734:2836  function setStructV3() external {... */\n    tag_11:\n      tag_33\n      tag_34\n      jump\t// in\n    tag_33:\n      stop\n        /* \"contracts/12_ERC20_Files_Structs_Strings.sol\":4449:4589  function getCV2() external view returns (bytes32 val) {... */\n    tag_14:\n        /* \"contracts/12_ERC20_Files_Structs_Strings.sol\":4490:4501  bytes32 val */\n      0x00\n        /* \"contracts/12_ERC20_Files_Structs_Strings.sol\":4570:4571  2 */\n      0x02\n        /* \"contracts/12_ERC20_Files_Structs_Strings.sol\":4553:4568  myStructV2.slot */\n      dup1\n        /* \"contracts/12_ERC20_Files_Structs_Strings.sol\":4549:4572  add(myStructV2.slot, 2) */\n      add\n        /* \"contracts/12_ERC20_Files_Structs_Strings.sol\":4543:4573  sload(add(myStructV2.slot, 2)) */\n      sload\n        /* \"contracts/12_ERC20_Files_Structs_Strings.sol\":4536:4573  val := sload(add(myStructV2.slot, 2)) */\n      swap1\n      pop\n        /* \"contracts/12_ERC20_Files_Structs_Strings.sol\":4449:4589  function getCV2() external view returns (bytes32 val) {... */\n      swap1\n      jump\t// out\n        /* \"contracts/12_ERC20_Files_Structs_Strings.sol\":4595:4735  function getCV3() external view returns (bytes32 val) {... */\n    tag_18:\n        /* \"contracts/12_ERC20_Files_Structs_Strings.sol\":4636:4647  bytes32 val */\n      0x00\n        /* \"contracts/12_ERC20_Files_Structs_Strings.sol\":4716:4717  2 */\n      0x02\n        /* \"contracts/12_ERC20_Files_Structs_Strings.sol\":4699:4714  myStructV3.slot */\n      0x05\n        /* \"contracts/12_ERC20_Files_Structs_Strings.sol\":4695:4718  add(myStructV3.slot, 2) */\n      add\n        /* \"contracts/12_ERC20_Files_Structs_Strings.sol\":4689:4719  sload(add(myStructV3.slot, 2)) */\n      sload\n        /* \"contracts/12_ERC20_Files_Structs_Strings.sol\":4682:4719  val := sload(add(myStructV3.slot, 2)) */\n      swap1\n      pop\n        /* \"contracts/12_ERC20_Files_Structs_Strings.sol\":4595:4735  function getCV3() external view returns (bytes32 val) {... */\n      swap1\n      jump\t// out\n        /* \"contracts/12_ERC20_Files_Structs_Strings.sol\":3503:3678  function setStructV5() external {... */\n    tag_21:\n        /* \"contracts/12_ERC20_Files_Structs_Strings.sol\":3558:3671  MyStructsV3({... */\n      mload(0x40)\n      dup1\n      0x60\n      add\n      0x40\n      mstore\n      dup1\n        /* \"contracts/12_ERC20_Files_Structs_Strings.sol\":3587:3588  5 */\n      0x05\n        /* \"contracts/12_ERC20_Files_Structs_Strings.sol\":3558:3671  MyStructsV3({... */\n      dup2\n      mstore\n      0x20\n      add\n        /* \"contracts/12_ERC20_Files_Structs_Strings.sol\":3605:3615  msg.sender */\n      caller\n        /* \"contracts/12_ERC20_Files_Structs_Strings.sol\":3558:3671  MyStructsV3({... */\n      0xffffffffffffffffffffffffffffffffffffffff\n      and\n      dup2\n      mstore\n      0x20\n      add\n      mload(0x40)\n      dup1\n      0x40\n      add\n      0x40\n      mstore\n      dup1\n      0x1a\n      dup2\n      mstore\n      0x20\n      add\n      0x6c6f72656d20697073756d20646f6c6f722073697420616d6574000000000000\n      dup2\n      mstore\n      pop\n      dup2\n      mstore\n      pop\n        /* \"contracts/12_ERC20_Files_Structs_Strings.sol\":3545:3555  myStructV3 */\n      0x05\n        /* \"contracts/12_ERC20_Files_Structs_Strings.sol\":3545:3671  myStructV3 = MyStructsV3({... */\n      0x00\n      dup3\n      add\n      mload\n      dup2\n      0x00\n      add\n      sstore\n      0x20\n      dup3\n      add\n      mload\n      dup2\n      0x01\n      add\n      exp(0x0100, 0x00)\n      dup2\n      sload\n      dup2\n      0xffffffffffffffffffffffffffffffffffffffff\n      mul\n      not\n      and\n      swap1\n      dup4\n      0xffffffffffffffffffffffffffffffffffffffff\n      and\n      mul\n      or\n      swap1\n      sstore\n      pop\n      0x40\n      dup3\n      add\n      mload\n      dup2\n      0x02\n      add\n      swap1\n      dup2\n      tag_38\n      swap2\n      swap1\n      tag_39\n      jump\t// in\n    tag_38:\n      pop\n      swap1\n      pop\n      pop\n        /* \"contracts/12_ERC20_Files_Structs_Strings.sol\":3503:3678  function setStructV5() external {... */\n      jump\t// out\n        /* \"contracts/12_ERC20_Files_Structs_Strings.sol\":3119:3221  function setStructV4() external {... */\n    tag_23:\n        /* \"contracts/12_ERC20_Files_Structs_Strings.sol\":3174:3214  MyStructsV2({a: 6, b: msg.sender, c: 0}) */\n      mload(0x40)\n      dup1\n      0x60\n      add\n      0x40\n      mstore\n      dup1\n        /* \"contracts/12_ERC20_Files_Structs_Strings.sol\":3190:3191  6 */\n      0x06\n        /* \"contracts/12_ERC20_Files_Structs_Strings.sol\":3174:3214  MyStructsV2({a: 6, b: msg.sender, c: 0}) */\n      dup2\n      mstore\n      0x20\n      add\n        /* \"contracts/12_ERC20_Files_Structs_Strings.sol\":3196:3206  msg.sender */\n      caller\n        /* \"contracts/12_ERC20_Files_Structs_Strings.sol\":3174:3214  MyStructsV2({a: 6, b: msg.sender, c: 0}) */\n      0xffffffffffffffffffffffffffffffffffffffff\n      and\n      dup2\n      mstore\n      0x20\n      add\n        /* \"contracts/12_ERC20_Files_Structs_Strings.sol\":3211:3212  0 */\n      0x00\n        /* \"contracts/12_ERC20_Files_Structs_Strings.sol\":3174:3214  MyStructsV2({a: 6, b: msg.sender, c: 0}) */\n      dup2\n      mstore\n      pop\n        /* \"contracts/12_ERC20_Files_Structs_Strings.sol\":3161:3171  myStructV2 */\n      0x02\n        /* \"contracts/12_ERC20_Files_Structs_Strings.sol\":3161:3214  myStructV2 = MyStructsV2({a: 6, b: msg.sender, c: 0}) */\n      0x00\n      dup3\n      add\n      mload\n      dup2\n      0x00\n      add\n      sstore\n      0x20\n      dup3\n      add\n      mload\n      dup2\n      0x01\n      add\n      exp(0x0100, 0x00)\n      dup2\n      sload\n      dup2\n      0xffffffffffffffffffffffffffffffffffffffff\n      mul\n      not\n      and\n      swap1\n      dup4\n      0xffffffffffffffffffffffffffffffffffffffff\n      and\n      mul\n      or\n      swap1\n      sstore\n      pop\n      0x40\n      dup3\n      add\n      mload\n      dup2\n      0x02\n      add\n      sstore\n      swap1\n      pop\n      pop\n        /* \"contracts/12_ERC20_Files_Structs_Strings.sol\":3119:3221  function setStructV4() external {... */\n      jump\t// out\n        /* \"contracts/12_ERC20_Files_Structs_Strings.sol\":2355:2451  function setStructV2() external {... */\n    tag_25:\n        /* \"contracts/12_ERC20_Files_Structs_Strings.sol\":2410:2444  MyStructsV1({a: 6, b: msg.sender}) */\n      mload(0x40)\n      dup1\n      0x40\n      add\n      0x40\n      mstore\n      dup1\n        /* \"contracts/12_ERC20_Files_Structs_Strings.sol\":2426:2427  6 */\n      0x06\n        /* \"contracts/12_ERC20_Files_Structs_Strings.sol\":2410:2444  MyStructsV1({a: 6, b: msg.sender}) */\n      dup2\n      mstore\n      0x20\n      add\n        /* \"contracts/12_ERC20_Files_Structs_Strings.sol\":2432:2442  msg.sender */\n      caller\n        /* \"contracts/12_ERC20_Files_Structs_Strings.sol\":2410:2444  MyStructsV1({a: 6, b: msg.sender}) */\n      0xffffffffffffffffffffffffffffffffffffffff\n      and\n      dup2\n      mstore\n      pop\n        /* \"contracts/12_ERC20_Files_Structs_Strings.sol\":2397:2407  myStructV1 */\n      0x00\n        /* \"contracts/12_ERC20_Files_Structs_Strings.sol\":2397:2444  myStructV1 = MyStructsV1({a: 6, b: msg.sender}) */\n      dup1\n      dup3\n      add\n      mload\n      dup2\n      0x00\n      add\n      sstore\n      0x20\n      dup3\n      add\n      mload\n      dup2\n      0x01\n      add\n      exp(0x0100, 0x00)\n      dup2\n      sload\n      dup2\n      0xffffffffffffffffffffffffffffffffffffffff\n      mul\n      not\n      and\n      swap1\n      dup4\n      0xffffffffffffffffffffffffffffffffffffffff\n      and\n      mul\n      or\n      swap1\n      sstore\n      pop\n      swap1\n      pop\n      pop\n        /* \"contracts/12_ERC20_Files_Structs_Strings.sol\":2355:2451  function setStructV2() external {... */\n      jump\t// out\n        /* \"contracts/12_ERC20_Files_Structs_Strings.sol\":1984:2080  function setStructV1() external {... */\n    tag_27:\n        /* \"contracts/12_ERC20_Files_Structs_Strings.sol\":2039:2073  MyStructsV1({a: 5, b: msg.sender}) */\n      mload(0x40)\n      dup1\n      0x40\n      add\n      0x40\n      mstore\n      dup1\n        /* \"contracts/12_ERC20_Files_Structs_Strings.sol\":2055:2056  5 */\n      0x05\n        /* \"contracts/12_ERC20_Files_Structs_Strings.sol\":2039:2073  MyStructsV1({a: 5, b: msg.sender}) */\n      dup2\n      mstore\n      0x20\n      add\n        /* \"contracts/12_ERC20_Files_Structs_Strings.sol\":2061:2071  msg.sender */\n      caller\n        /* \"contracts/12_ERC20_Files_Structs_Strings.sol\":2039:2073  MyStructsV1({a: 5, b: msg.sender}) */\n      0xffffffffffffffffffffffffffffffffffffffff\n      and\n      dup2\n      mstore\n      pop\n        /* \"contracts/12_ERC20_Files_Structs_Strings.sol\":2026:2036  myStructV1 */\n      0x00\n        /* \"contracts/12_ERC20_Files_Structs_Strings.sol\":2026:2073  myStructV1 = MyStructsV1({a: 5, b: msg.sender}) */\n      dup1\n      dup3\n      add\n      mload\n      dup2\n      0x00\n      add\n      sstore\n      0x20\n      dup3\n      add\n      mload\n      dup2\n      0x01\n      add\n      exp(0x0100, 0x00)\n      dup2\n      sload\n      dup2\n      0xffffffffffffffffffffffffffffffffffffffff\n      mul\n      not\n      and\n      swap1\n      dup4\n      0xffffffffffffffffffffffffffffffffffffffff\n      and\n      mul\n      or\n      swap1\n      sstore\n      pop\n      swap1\n      pop\n      pop\n        /* \"contracts/12_ERC20_Files_Structs_Strings.sol\":1984:2080  function setStructV1() external {... */\n      jump\t// out\n        /* \"contracts/12_ERC20_Files_Structs_Strings.sol\":3911:4120  function setStructV6() external {... */\n    tag_29:\n        /* \"contracts/12_ERC20_Files_Structs_Strings.sol\":3966:4113  MyStructsV3({... */\n      mload(0x40)\n      dup1\n      0x60\n      add\n      0x40\n      mstore\n      dup1\n        /* \"contracts/12_ERC20_Files_Structs_Strings.sol\":3995:3996  6 */\n      0x06\n        /* \"contracts/12_ERC20_Files_Structs_Strings.sol\":3966:4113  MyStructsV3({... */\n      dup2\n      mstore\n      0x20\n      add\n        /* \"contracts/12_ERC20_Files_Structs_Strings.sol\":4013:4023  msg.sender */\n      caller\n        /* \"contracts/12_ERC20_Files_Structs_Strings.sol\":3966:4113  MyStructsV3({... */\n      0xffffffffffffffffffffffffffffffffffffffff\n      and\n      dup2\n      mstore\n      0x20\n      add\n      mload(0x40)\n      dup1\n      0x60\n      add\n      0x40\n      mstore\n      dup1\n      0x38\n      dup2\n      mstore\n      0x20\n      add\n      data_b21bd7b89264f421bcb27e9c235b7d0ae1e24dfbf65a8a8345bf50ce3de35310\n      0x38\n      swap2\n      codecopy\n      dup2\n      mstore\n      pop\n        /* \"contracts/12_ERC20_Files_Structs_Strings.sol\":3953:3963  myStructV3 */\n      0x05\n        /* \"contracts/12_ERC20_Files_Structs_Strings.sol\":3953:4113  myStructV3 = MyStructsV3({... */\n      0x00\n      dup3\n      add\n      mload\n      dup2\n      0x00\n      add\n      sstore\n      0x20\n      dup3\n      add\n      mload\n      dup2\n      0x01\n      add\n      exp(0x0100, 0x00)\n      dup2\n      sload\n      dup2\n      0xffffffffffffffffffffffffffffffffffffffff\n      mul\n      not\n      and\n      swap1\n      dup4\n      0xffffffffffffffffffffffffffffffffffffffff\n      and\n      mul\n      or\n      swap1\n      sstore\n      pop\n      0x40\n      dup3\n      add\n      mload\n      dup2\n      0x02\n      add\n      swap1\n      dup2\n      tag_44\n      swap2\n      swap1\n      tag_39\n      jump\t// in\n    tag_44:\n      pop\n      swap1\n      pop\n      pop\n        /* \"contracts/12_ERC20_Files_Structs_Strings.sol\":3911:4120  function setStructV6() external {... */\n      jump\t// out\n        /* \"contracts/12_ERC20_Files_Structs_Strings.sol\":4303:4443  function getCV1() external view returns (bytes32 val) {... */\n    tag_31:\n        /* \"contracts/12_ERC20_Files_Structs_Strings.sol\":4344:4355  bytes32 val */\n      0x00\n        /* \"contracts/12_ERC20_Files_Structs_Strings.sol\":4424:4425  1 */\n      0x01\n        /* \"contracts/12_ERC20_Files_Structs_Strings.sol\":4407:4422  myStructV1.slot */\n      0x00\n        /* \"contracts/12_ERC20_Files_Structs_Strings.sol\":4403:4426  add(myStructV1.slot, 1) */\n      add\n        /* \"contracts/12_ERC20_Files_Structs_Strings.sol\":4397:4427  sload(add(myStructV1.slot, 1)) */\n      sload\n        /* \"contracts/12_ERC20_Files_Structs_Strings.sol\":4390:4427  val := sload(add(myStructV1.slot, 1)) */\n      swap1\n      pop\n        /* \"contracts/12_ERC20_Files_Structs_Strings.sol\":4303:4443  function getCV1() external view returns (bytes32 val) {... */\n      swap1\n      jump\t// out\n        /* \"contracts/12_ERC20_Files_Structs_Strings.sol\":2734:2836  function setStructV3() external {... */\n    tag_34:\n        /* \"contracts/12_ERC20_Files_Structs_Strings.sol\":2789:2829  MyStructsV2({a: 5, b: msg.sender, c: 4}) */\n      mload(0x40)\n      dup1\n      0x60\n      add\n      0x40\n      mstore\n      dup1\n        /* \"contracts/12_ERC20_Files_Structs_Strings.sol\":2805:2806  5 */\n      0x05\n        /* \"contracts/12_ERC20_Files_Structs_Strings.sol\":2789:2829  MyStructsV2({a: 5, b: msg.sender, c: 4}) */\n      dup2\n      mstore\n      0x20\n      add\n        /* \"contracts/12_ERC20_Files_Structs_Strings.sol\":2811:2821  msg.sender */\n      caller\n        /* \"contracts/12_ERC20_Files_Structs_Strings.sol\":2789:2829  MyStructsV2({a: 5, b: msg.sender, c: 4}) */\n      0xffffffffffffffffffffffffffffffffffffffff\n      and\n      dup2\n      mstore\n      0x20\n      add\n        /* \"contracts/12_ERC20_Files_Structs_Strings.sol\":2826:2827  4 */\n      0x04\n        /* \"contracts/12_ERC20_Files_Structs_Strings.sol\":2789:2829  MyStructsV2({a: 5, b: msg.sender, c: 4}) */\n      dup2\n      mstore\n      pop\n        /* \"contracts/12_ERC20_Files_Structs_Strings.sol\":2776:2786  myStructV2 */\n      0x02\n        /* \"contracts/12_ERC20_Files_Structs_Strings.sol\":2776:2829  myStructV2 = MyStructsV2({a: 5, b: msg.sender, c: 4}) */\n      0x00\n      dup3\n      add\n      mload\n      dup2\n      0x00\n      add\n      sstore\n      0x20\n      dup3\n      add\n      mload\n      dup2\n      0x01\n      add\n      exp(0x0100, 0x00)\n      dup2\n      sload\n      dup2\n      0xffffffffffffffffffffffffffffffffffffffff\n      mul\n      not\n      and\n      swap1\n      dup4\n      0xffffffffffffffffffffffffffffffffffffffff\n      and\n      mul\n      or\n      swap1\n      sstore\n      pop\n      0x40\n      dup3\n      add\n      mload\n      dup2\n      0x02\n      add\n      sstore\n      swap1\n      pop\n      pop\n        /* \"contracts/12_ERC20_Files_Structs_Strings.sol\":2734:2836  function setStructV3() external {... */\n      jump\t// out\n        /* \"#utility.yul\":7:84   */\n    tag_47:\n        /* \"#utility.yul\":44:51   */\n      0x00\n        /* \"#utility.yul\":73:78   */\n      dup2\n        /* \"#utility.yul\":62:78   */\n      swap1\n      pop\n        /* \"#utility.yul\":7:84   */\n      swap2\n      swap1\n      pop\n      jump\t// out\n        /* \"#utility.yul\":90:208   */\n    tag_48:\n        /* \"#utility.yul\":177:201   */\n      tag_72\n        /* \"#utility.yul\":195:200   */\n      dup2\n        /* \"#utility.yul\":177:201   */\n      tag_47\n      jump\t// in\n    tag_72:\n        /* \"#utility.yul\":172:175   */\n      dup3\n        /* \"#utility.yul\":165:202   */\n      mstore\n        /* \"#utility.yul\":90:208   */\n      pop\n      pop\n      jump\t// out\n        /* \"#utility.yul\":214:436   */\n    tag_16:\n        /* \"#utility.yul\":307:311   */\n      0x00\n        /* \"#utility.yul\":345:347   */\n      0x20\n        /* \"#utility.yul\":334:343   */\n      dup3\n        /* \"#utility.yul\":330:348   */\n      add\n        /* \"#utility.yul\":322:348   */\n      swap1\n      pop\n        /* \"#utility.yul\":358:429   */\n      tag_74\n        /* \"#utility.yul\":426:427   */\n      0x00\n        /* \"#utility.yul\":415:424   */\n      dup4\n        /* \"#utility.yul\":411:428   */\n      add\n        /* \"#utility.yul\":402:408   */\n      dup5\n        /* \"#utility.yul\":358:429   */\n      tag_48\n      jump\t// in\n    tag_74:\n        /* \"#utility.yul\":214:436   */\n      swap3\n      swap2\n      pop\n      pop\n      jump\t// out\n        /* \"#utility.yul\":442:541   */\n    tag_49:\n        /* \"#utility.yul\":494:500   */\n      0x00\n        /* \"#utility.yul\":528:533   */\n      dup2\n        /* \"#utility.yul\":522:534   */\n      mload\n        /* \"#utility.yul\":512:534   */\n      swap1\n      pop\n        /* \"#utility.yul\":442:541   */\n      swap2\n      swap1\n      pop\n      jump\t// out\n        /* \"#utility.yul\":547:727   */\n    tag_50:\n        /* \"#utility.yul\":595:672   */\n      0x4e487b7100000000000000000000000000000000000000000000000000000000\n        /* \"#utility.yul\":592:593   */\n      0x00\n        /* \"#utility.yul\":585:673   */\n      mstore\n        /* \"#utility.yul\":692:696   */\n      0x41\n        /* \"#utility.yul\":689:690   */\n      0x04\n        /* \"#utility.yul\":682:697   */\n      mstore\n        /* \"#utility.yul\":716:720   */\n      0x24\n        /* \"#utility.yul\":713:714   */\n      0x00\n        /* \"#utility.yul\":706:721   */\n      revert\n        /* \"#utility.yul\":733:913   */\n    tag_51:\n        /* \"#utility.yul\":781:858   */\n      0x4e487b7100000000000000000000000000000000000000000000000000000000\n        /* \"#utility.yul\":778:779   */\n      0x00\n        /* \"#utility.yul\":771:859   */\n      mstore\n        /* \"#utility.yul\":878:882   */\n      0x22\n        /* \"#utility.yul\":875:876   */\n      0x04\n        /* \"#utility.yul\":868:883   */\n      mstore\n        /* \"#utility.yul\":902:906   */\n      0x24\n        /* \"#utility.yul\":899:900   */\n      0x00\n        /* \"#utility.yul\":892:907   */\n      revert\n        /* \"#utility.yul\":919:1239   */\n    tag_52:\n        /* \"#utility.yul\":963:969   */\n      0x00\n        /* \"#utility.yul\":1000:1001   */\n      0x02\n        /* \"#utility.yul\":994:998   */\n      dup3\n        /* \"#utility.yul\":990:1002   */\n      div\n        /* \"#utility.yul\":980:1002   */\n      swap1\n      pop\n        /* \"#utility.yul\":1047:1048   */\n      0x01\n        /* \"#utility.yul\":1041:1045   */\n      dup3\n        /* \"#utility.yul\":1037:1049   */\n      and\n        /* \"#utility.yul\":1068:1086   */\n      dup1\n        /* \"#utility.yul\":1058:1139   */\n      tag_79\n      jumpi\n        /* \"#utility.yul\":1124:1128   */\n      0x7f\n        /* \"#utility.yul\":1116:1122   */\n      dup3\n        /* \"#utility.yul\":1112:1129   */\n      and\n        /* \"#utility.yul\":1102:1129   */\n      swap2\n      pop\n        /* \"#utility.yul\":1058:1139   */\n    tag_79:\n        /* \"#utility.yul\":1186:1188   */\n      0x20\n        /* \"#utility.yul\":1178:1184   */\n      dup3\n        /* \"#utility.yul\":1175:1189   */\n      lt\n        /* \"#utility.yul\":1155:1173   */\n      dup2\n        /* \"#utility.yul\":1152:1190   */\n      sub\n        /* \"#utility.yul\":1149:1233   */\n      tag_80\n      jumpi\n        /* \"#utility.yul\":1205:1223   */\n      tag_81\n      tag_51\n      jump\t// in\n    tag_81:\n        /* \"#utility.yul\":1149:1233   */\n    tag_80:\n        /* \"#utility.yul\":970:1239   */\n      pop\n        /* \"#utility.yul\":919:1239   */\n      swap2\n      swap1\n      pop\n      jump\t// out\n        /* \"#utility.yul\":1245:1386   */\n    tag_53:\n        /* \"#utility.yul\":1294:1298   */\n      0x00\n        /* \"#utility.yul\":1317:1320   */\n      dup2\n        /* \"#utility.yul\":1309:1320   */\n      swap1\n      pop\n        /* \"#utility.yul\":1340:1343   */\n      dup2\n        /* \"#utility.yul\":1337:1338   */\n      0x00\n        /* \"#utility.yul\":1330:1344   */\n      mstore\n        /* \"#utility.yul\":1374:1378   */\n      0x20\n        /* \"#utility.yul\":1371:1372   */\n      0x00\n        /* \"#utility.yul\":1361:1379   */\n      keccak256\n        /* \"#utility.yul\":1353:1379   */\n      swap1\n      pop\n        /* \"#utility.yul\":1245:1386   */\n      swap2\n      swap1\n      pop\n      jump\t// out\n        /* \"#utility.yul\":1392:1485   */\n    tag_54:\n        /* \"#utility.yul\":1429:1435   */\n      0x00\n        /* \"#utility.yul\":1476:1478   */\n      0x20\n        /* \"#utility.yul\":1471:1473   */\n      0x1f\n        /* \"#utility.yul\":1464:1469   */\n      dup4\n        /* \"#utility.yul\":1460:1474   */\n      add\n        /* \"#utility.yul\":1456:1479   */\n      div\n        /* \"#utility.yul\":1446:1479   */\n      swap1\n      pop\n        /* \"#utility.yul\":1392:1485   */\n      swap2\n      swap1\n      pop\n      jump\t// out\n        /* \"#utility.yul\":1491:1598   */\n    tag_55:\n        /* \"#utility.yul\":1535:1543   */\n      0x00\n        /* \"#utility.yul\":1585:1590   */\n      dup3\n        /* \"#utility.yul\":1579:1583   */\n      dup3\n        /* \"#utility.yul\":1575:1591   */\n      shl\n        /* \"#utility.yul\":1554:1591   */\n      swap1\n      pop\n        /* \"#utility.yul\":1491:1598   */\n      swap3\n      swap2\n      pop\n      pop\n      jump\t// out\n        /* \"#utility.yul\":1604:1997   */\n    tag_56:\n        /* \"#utility.yul\":1673:1679   */\n      0x00\n        /* \"#utility.yul\":1723:1724   */\n      0x08\n        /* \"#utility.yul\":1711:1721   */\n      dup4\n        /* \"#utility.yul\":1707:1725   */\n      mul\n        /* \"#utility.yul\":1746:1843   */\n      tag_86\n        /* \"#utility.yul\":1776:1842   */\n      0xffffffffffffffffffffffffffffffffffffffffffffffffffffffffffffffff\n        /* \"#utility.yul\":1765:1774   */\n      dup3\n        /* \"#utility.yul\":1746:1843   */\n      tag_55\n      jump\t// in\n    tag_86:\n        /* \"#utility.yul\":1864:1903   */\n      tag_87\n        /* \"#utility.yul\":1894:1902   */\n      dup7\n        /* \"#utility.yul\":1883:1892   */\n      dup4\n        /* \"#utility.yul\":1864:1903   */\n      tag_55\n      jump\t// in\n    tag_87:\n        /* \"#utility.yul\":1852:1903   */\n      swap6\n      pop\n        /* \"#utility.yul\":1936:1940   */\n      dup1\n        /* \"#utility.yul\":1932:1941   */\n      not\n        /* \"#utility.yul\":1925:1930   */\n      dup5\n        /* \"#utility.yul\":1921:1942   */\n      and\n        /* \"#utility.yul\":1912:1942   */\n      swap4\n      pop\n        /* \"#utility.yul\":1985:1989   */\n      dup1\n        /* \"#utility.yul\":1975:1983   */\n      dup7\n        /* \"#utility.yul\":1971:1990   */\n      and\n        /* \"#utility.yul\":1964:1969   */\n      dup5\n        /* \"#utility.yul\":1961:1991   */\n      or\n        /* \"#utility.yul\":1951:1991   */\n      swap3\n      pop\n        /* \"#utility.yul\":1680:1997   */\n      pop\n      pop\n        /* \"#utility.yul\":1604:1997   */\n      swap4\n      swap3\n      pop\n      pop\n      pop\n      jump\t// out\n        /* \"#utility.yul\":2003:2080   */\n    tag_57:\n        /* \"#utility.yul\":2040:2047   */\n      0x00\n        /* \"#utility.yul\":2069:2074   */\n      dup2\n        /* \"#utility.yul\":2058:2074   */\n      swap1\n      pop\n        /* \"#utility.yul\":2003:2080   */\n      swap2\n      swap1\n      pop\n      jump\t// out\n        /* \"#utility.yul\":2086:2146   */\n    tag_58:\n        /* \"#utility.yul\":2114:2117   */\n      0x00\n        /* \"#utility.yul\":2135:2140   */\n      dup2\n        /* \"#utility.yul\":2128:2140   */\n      swap1\n      pop\n        /* \"#utility.yul\":2086:2146   */\n      swap2\n      swap1\n      pop\n      jump\t// out\n        /* \"#utility.yul\":2152:2294   */\n    tag_59:\n        /* \"#utility.yul\":2202:2211   */\n      0x00\n        /* \"#utility.yul\":2235:2288   */\n      tag_91\n        /* \"#utility.yul\":2253:2287   */\n      tag_92\n        /* \"#utility.yul\":2262:2286   */\n      tag_93\n        /* \"#utility.yul\":2280:2285   */\n      dup5\n        /* \"#utility.yul\":2262:2286   */\n      tag_57\n      jump\t// in\n    tag_93:\n        /* \"#utility.yul\":2253:2287   */\n      tag_58\n      jump\t// in\n    tag_92:\n        /* \"#utility.yul\":2235:2288   */\n      tag_57\n      jump\t// in\n    tag_91:\n        /* \"#utility.yul\":2222:2288   */\n      swap1\n      pop\n        /* \"#utility.yul\":2152:2294   */\n      swap2\n      swap1\n      pop\n      jump\t// out\n        /* \"#utility.yul\":2300:2375   */\n    tag_60:\n        /* \"#utility.yul\":2343:2346   */\n      0x00\n        /* \"#utility.yul\":2364:2369   */\n      dup2\n        /* \"#utility.yul\":2357:2369   */\n      swap1\n      pop\n        /* \"#utility.yul\":2300:2375   */\n      swap2\n      swap1\n      pop\n      jump\t// out\n        /* \"#utility.yul\":2381:2650   */\n    tag_61:\n        /* \"#utility.yul\":2491:2530   */\n      tag_96\n        /* \"#utility.yul\":2522:2529   */\n      dup4\n        /* \"#utility.yul\":2491:2530   */\n      tag_59\n      jump\t// in\n    tag_96:\n        /* \"#utility.yul\":2552:2643   */\n      tag_97\n        /* \"#utility.yul\":2601:2642   */\n      tag_98\n        /* \"#utility.yul\":2625:2641   */\n      dup3\n        /* \"#utility.yul\":2601:2642   */\n      tag_60\n      jump\t// in\n    tag_98:\n        /* \"#utility.yul\":2593:2599   */\n      dup5\n        /* \"#utility.yul\":2586:2590   */\n      dup5\n        /* \"#utility.yul\":2580:2591   */\n      sload\n        /* \"#utility.yul\":2552:2643   */\n      tag_56\n      jump\t// in\n    tag_97:\n        /* \"#utility.yul\":2546:2550   */\n      dup3\n        /* \"#utility.yul\":2539:2644   */\n      sstore\n        /* \"#utility.yul\":2457:2650   */\n      pop\n        /* \"#utility.yul\":2381:2650   */\n      pop\n      pop\n      pop\n      jump\t// out\n        /* \"#utility.yul\":2656:2729   */\n    tag_62:\n        /* \"#utility.yul\":2701:2704   */\n      0x00\n        /* \"#utility.yul\":2656:2729   */\n      swap1\n      jump\t// out\n        /* \"#utility.yul\":2735:2924   */\n    tag_63:\n        /* \"#utility.yul\":2812:2844   */\n      tag_101\n      tag_62\n      jump\t// in\n    tag_101:\n        /* \"#utility.yul\":2853:2918   */\n      tag_102\n        /* \"#utility.yul\":2911:2917   */\n      dup2\n        /* \"#utility.yul\":2903:2909   */\n      dup5\n        /* \"#utility.yul\":2897:2901   */\n      dup5\n        /* \"#utility.yul\":2853:2918   */\n      tag_61\n      jump\t// in\n    tag_102:\n        /* \"#utility.yul\":2788:2924   */\n      pop\n        /* \"#utility.yul\":2735:2924   */\n      pop\n      pop\n      jump\t// out\n        /* \"#utility.yul\":2930:3116   */\n    tag_64:\n        /* \"#utility.yul\":2990:3110   */\n    tag_104:\n        /* \"#utility.yul\":3007:3010   */\n      dup2\n        /* \"#utility.yul\":3000:3005   */\n      dup2\n        /* \"#utility.yul\":2997:3011   */\n      lt\n        /* \"#utility.yul\":2990:3110   */\n      iszero\n      tag_106\n      jumpi\n        /* \"#utility.yul\":3061:3100   */\n      tag_107\n        /* \"#utility.yul\":3098:3099   */\n      0x00\n        /* \"#utility.yul\":3091:3096   */\n      dup3\n        /* \"#utility.yul\":3061:3100   */\n      tag_63\n      jump\t// in\n    tag_107:\n        /* \"#utility.yul\":3034:3035   */\n      0x01\n        /* \"#utility.yul\":3027:3032   */\n      dup2\n        /* \"#utility.yul\":3023:3036   */\n      add\n        /* \"#utility.yul\":3014:3036   */\n      swap1\n      pop\n        /* \"#utility.yul\":2990:3110   */\n      jump(tag_104)\n    tag_106:\n        /* \"#utility.yul\":2930:3116   */\n      pop\n      pop\n      jump\t// out\n        /* \"#utility.yul\":3122:3665   */\n    tag_65:\n        /* \"#utility.yul\":3223:3225   */\n      0x1f\n        /* \"#utility.yul\":3218:3221   */\n      dup3\n        /* \"#utility.yul\":3215:3226   */\n      gt\n        /* \"#utility.yul\":3212:3658   */\n      iszero\n      tag_109\n      jumpi\n        /* \"#utility.yul\":3257:3295   */\n      tag_110\n        /* \"#utility.yul\":3289:3294   */\n      dup2\n        /* \"#utility.yul\":3257:3295   */\n      tag_53\n      jump\t// in\n    tag_110:\n        /* \"#utility.yul\":3341:3370   */\n      tag_111\n        /* \"#utility.yul\":3359:3369   */\n      dup5\n        /* \"#utility.yul\":3341:3370   */\n      tag_54\n      jump\t// in\n    tag_111:\n        /* \"#utility.yul\":3331:3339   */\n      dup2\n        /* \"#utility.yul\":3327:3371   */\n      add\n        /* \"#utility.yul\":3524:3526   */\n      0x20\n        /* \"#utility.yul\":3512:3522   */\n      dup6\n        /* \"#utility.yul\":3509:3527   */\n      lt\n        /* \"#utility.yul\":3506:3555   */\n      iszero\n      tag_112\n      jumpi\n        /* \"#utility.yul\":3545:3553   */\n      dup2\n        /* \"#utility.yul\":3530:3553   */\n      swap1\n      pop\n        /* \"#utility.yul\":3506:3555   */\n    tag_112:\n        /* \"#utility.yul\":3568:3648   */\n      tag_113\n        /* \"#utility.yul\":3624:3646   */\n      tag_114\n        /* \"#utility.yul\":3642:3645   */\n      dup6\n        /* \"#utility.yul\":3624:3646   */\n      tag_54\n      jump\t// in\n    tag_114:\n        /* \"#utility.yul\":3614:3622   */\n      dup4\n        /* \"#utility.yul\":3610:3647   */\n      add\n        /* \"#utility.yul\":3597:3608   */\n      dup3\n        /* \"#utility.yul\":3568:3648   */\n      tag_64\n      jump\t// in\n    tag_113:\n        /* \"#utility.yul\":3227:3658   */\n      pop\n      pop\n        /* \"#utility.yul\":3212:3658   */\n    tag_109:\n        /* \"#utility.yul\":3122:3665   */\n      pop\n      pop\n      pop\n      jump\t// out\n        /* \"#utility.yul\":3671:3788   */\n    tag_66:\n        /* \"#utility.yul\":3725:3733   */\n      0x00\n        /* \"#utility.yul\":3775:3780   */\n      dup3\n        /* \"#utility.yul\":3769:3773   */\n      dup3\n        /* \"#utility.yul\":3765:3781   */\n      shr\n        /* \"#utility.yul\":3744:3781   */\n      swap1\n      pop\n        /* \"#utility.yul\":3671:3788   */\n      swap3\n      swap2\n      pop\n      pop\n      jump\t// out\n        /* \"#utility.yul\":3794:3963   */\n    tag_67:\n        /* \"#utility.yul\":3838:3844   */\n      0x00\n        /* \"#utility.yul\":3871:3922   */\n      tag_117\n        /* \"#utility.yul\":3919:3920   */\n      0x00\n        /* \"#utility.yul\":3915:3921   */\n      not\n        /* \"#utility.yul\":3907:3912   */\n      dup5\n        /* \"#utility.yul\":3904:3905   */\n      0x08\n        /* \"#utility.yul\":3900:3913   */\n      mul\n        /* \"#utility.yul\":3871:3922   */\n      tag_66\n      jump\t// in\n    tag_117:\n        /* \"#utility.yul\":3867:3923   */\n      not\n        /* \"#utility.yul\":3952:3956   */\n      dup1\n        /* \"#utility.yul\":3946:3950   */\n      dup4\n        /* \"#utility.yul\":3942:3957   */\n      and\n        /* \"#utility.yul\":3932:3957   */\n      swap2\n      pop\n        /* \"#utility.yul\":3845:3963   */\n      pop\n        /* \"#utility.yul\":3794:3963   */\n      swap3\n      swap2\n      pop\n      pop\n      jump\t// out\n        /* \"#utility.yul\":3968:4263   */\n    tag_68:\n        /* \"#utility.yul\":4044:4048   */\n      0x00\n        /* \"#utility.yul\":4190:4219   */\n      tag_119\n        /* \"#utility.yul\":4215:4218   */\n      dup4\n        /* \"#utility.yul\":4209:4213   */\n      dup4\n        /* \"#utility.yul\":4190:4219   */\n      tag_67\n      jump\t// in\n    tag_119:\n        /* \"#utility.yul\":4182:4219   */\n      swap2\n      pop\n        /* \"#utility.yul\":4252:4255   */\n      dup3\n        /* \"#utility.yul\":4249:4250   */\n      0x02\n        /* \"#utility.yul\":4245:4256   */\n      mul\n        /* \"#utility.yul\":4239:4243   */\n      dup3\n        /* \"#utility.yul\":4236:4257   */\n      or\n        /* \"#utility.yul\":4228:4257   */\n      swap1\n      pop\n        /* \"#utility.yul\":3968:4263   */\n      swap3\n      swap2\n      pop\n      pop\n      jump\t// out\n        /* \"#utility.yul\":4268:5663   */\n    tag_39:\n        /* \"#utility.yul\":4385:4422   */\n      tag_121\n        /* \"#utility.yul\":4418:4421   */\n      dup3\n        /* \"#utility.yul\":4385:4422   */\n      tag_49\n      jump\t// in\n    tag_121:\n        /* \"#utility.yul\":4487:4505   */\n      0xffffffffffffffff\n        /* \"#utility.yul\":4479:4485   */\n      dup2\n        /* \"#utility.yul\":4476:4506   */\n      gt\n        /* \"#utility.yul\":4473:4529   */\n      iszero\n      tag_122\n      jumpi\n        /* \"#utility.yul\":4509:4527   */\n      tag_123\n      tag_50\n      jump\t// in\n    tag_123:\n        /* \"#utility.yul\":4473:4529   */\n    tag_122:\n        /* \"#utility.yul\":4553:4591   */\n      tag_124\n        /* \"#utility.yul\":4585:4589   */\n      dup3\n        /* \"#utility.yul\":4579:4590   */\n      sload\n        /* \"#utility.yul\":4553:4591   */\n      tag_52\n      jump\t// in\n    tag_124:\n        /* \"#utility.yul\":4638:4705   */\n      tag_125\n        /* \"#utility.yul\":4698:4704   */\n      dup3\n        /* \"#utility.yul\":4690:4696   */\n      dup3\n        /* \"#utility.yul\":4684:4688   */\n      dup6\n        /* \"#utility.yul\":4638:4705   */\n      tag_65\n      jump\t// in\n    tag_125:\n        /* \"#utility.yul\":4732:4733   */\n      0x00\n        /* \"#utility.yul\":4756:4760   */\n      0x20\n        /* \"#utility.yul\":4743:4760   */\n      swap1\n      pop\n        /* \"#utility.yul\":4788:4790   */\n      0x1f\n        /* \"#utility.yul\":4780:4786   */\n      dup4\n        /* \"#utility.yul\":4777:4791   */\n      gt\n        /* \"#utility.yul\":4805:4806   */\n      0x01\n        /* \"#utility.yul\":4800:5418   */\n      dup2\n      eq\n      tag_127\n      jumpi\n        /* \"#utility.yul\":5462:5463   */\n      0x00\n        /* \"#utility.yul\":5479:5485   */\n      dup5\n        /* \"#utility.yul\":5476:5553   */\n      iszero\n      tag_128\n      jumpi\n        /* \"#utility.yul\":5528:5537   */\n      dup3\n        /* \"#utility.yul\":5523:5526   */\n      dup8\n        /* \"#utility.yul\":5519:5538   */\n      add\n        /* \"#utility.yul\":5513:5539   */\n      mload\n        /* \"#utility.yul\":5504:5539   */\n      swap1\n      pop\n        /* \"#utility.yul\":5476:5553   */\n    tag_128:\n        /* \"#utility.yul\":5579:5646   */\n      tag_129\n        /* \"#utility.yul\":5639:5645   */\n      dup6\n        /* \"#utility.yul\":5632:5637   */\n      dup3\n        /* \"#utility.yul\":5579:5646   */\n      tag_68\n      jump\t// in\n    tag_129:\n        /* \"#utility.yul\":5573:5577   */\n      dup7\n        /* \"#utility.yul\":5566:5647   */\n      sstore\n        /* \"#utility.yul\":5435:5657   */\n      pop\n        /* \"#utility.yul\":4770:5657   */\n      jump(tag_126)\n        /* \"#utility.yul\":4800:5418   */\n    tag_127:\n        /* \"#utility.yul\":4852:4856   */\n      0x1f\n        /* \"#utility.yul\":4848:4857   */\n      not\n        /* \"#utility.yul\":4840:4846   */\n      dup5\n        /* \"#utility.yul\":4836:4858   */\n      and\n        /* \"#utility.yul\":4886:4923   */\n      tag_130\n        /* \"#utility.yul\":4918:4922   */\n      dup7\n        /* \"#utility.yul\":4886:4923   */\n      tag_53\n      jump\t// in\n    tag_130:\n        /* \"#utility.yul\":4945:4946   */\n      0x00\n        /* \"#utility.yul\":4959:5167   */\n    tag_131:\n        /* \"#utility.yul\":4973:4980   */\n      dup3\n        /* \"#utility.yul\":4970:4971   */\n      dup2\n        /* \"#utility.yul\":4967:4981   */\n      lt\n        /* \"#utility.yul\":4959:5167   */\n      iszero\n      tag_133\n      jumpi\n        /* \"#utility.yul\":5052:5061   */\n      dup5\n        /* \"#utility.yul\":5047:5050   */\n      dup10\n        /* \"#utility.yul\":5043:5062   */\n      add\n        /* \"#utility.yul\":5037:5063   */\n      mload\n        /* \"#utility.yul\":5029:5035   */\n      dup3\n        /* \"#utility.yul\":5022:5064   */\n      sstore\n        /* \"#utility.yul\":5103:5104   */\n      0x01\n        /* \"#utility.yul\":5095:5101   */\n      dup3\n        /* \"#utility.yul\":5091:5105   */\n      add\n        /* \"#utility.yul\":5081:5105   */\n      swap2\n      pop\n        /* \"#utility.yul\":5150:5152   */\n      0x20\n        /* \"#utility.yul\":5139:5148   */\n      dup6\n        /* \"#utility.yul\":5135:5153   */\n      add\n        /* \"#utility.yul\":5122:5153   */\n      swap5\n      pop\n        /* \"#utility.yul\":4996:5000   */\n      0x20\n        /* \"#utility.yul\":4993:4994   */\n      dup2\n        /* \"#utility.yul\":4989:5001   */\n      add\n        /* \"#utility.yul\":4984:5001   */\n      swap1\n      pop\n        /* \"#utility.yul\":4959:5167   */\n      jump(tag_131)\n    tag_133:\n        /* \"#utility.yul\":5195:5201   */\n      dup7\n        /* \"#utility.yul\":5186:5193   */\n      dup4\n        /* \"#utility.yul\":5183:5202   */\n      lt\n        /* \"#utility.yul\":5180:5359   */\n      iszero\n      tag_134\n      jumpi\n        /* \"#utility.yul\":5253:5262   */\n      dup5\n        /* \"#utility.yul\":5248:5251   */\n      dup10\n        /* \"#utility.yul\":5244:5263   */\n      add\n        /* \"#utility.yul\":5238:5264   */\n      mload\n        /* \"#utility.yul\":5296:5344   */\n      tag_135\n        /* \"#utility.yul\":5338:5342   */\n      0x1f\n        /* \"#utility.yul\":5330:5336   */\n      dup10\n        /* \"#utility.yul\":5326:5343   */\n      and\n        /* \"#utility.yul\":5315:5324   */\n      dup3\n        /* \"#utility.yul\":5296:5344   */\n      tag_67\n      jump\t// in\n    tag_135:\n        /* \"#utility.yul\":5288:5294   */\n      dup4\n        /* \"#utility.yul\":5281:5345   */\n      sstore\n        /* \"#utility.yul\":5203:5359   */\n      pop\n        /* \"#utility.yul\":5180:5359   */\n    tag_134:\n        /* \"#utility.yul\":5405:5406   */\n      0x01\n        /* \"#utility.yul\":5401:5402   */\n      0x02\n        /* \"#utility.yul\":5393:5399   */\n      dup9\n        /* \"#utility.yul\":5389:5403   */\n      mul\n        /* \"#utility.yul\":5385:5407   */\n      add\n        /* \"#utility.yul\":5379:5383   */\n      dup9\n        /* \"#utility.yul\":5372:5408   */\n      sstore\n        /* \"#utility.yul\":4807:5418   */\n      pop\n      pop\n      pop\n        /* \"#utility.yul\":4770:5657   */\n    tag_126:\n      pop\n        /* \"#utility.yul\":4360:5663   */\n      pop\n      pop\n      pop\n        /* \"#utility.yul\":4268:5663   */\n      pop\n      pop\n      jump\t// out\n    stop\n    data_b21bd7b89264f421bcb27e9c235b7d0ae1e24dfbf65a8a8345bf50ce3de35310 4c6f72656d20697073756d20646f6c6f722073697420616d65742c20636f6e73656374657475722061646970697363696e6720656c69742e\n\n    auxdata: 0xa26469706673582212204b7e4b47dc041c074be6ecf2ead896e1bfd396be0a0eca31e531fe53a7bdf79c64736f6c63430008140033\n}\n",
				"bytecode": {
					"linkReferences": {},
					"object": "608060405234801561000f575f80fd5b5061089f8061001d5f395ff3fe608060405234801561000f575f80fd5b5060043610610091575f3560e01c8063b333bf6911610064578063b333bf69146100e5578063bfc21b29146100ef578063d2200749146100f9578063f4fadc0114610103578063f5a2c8161461012157610091565b80631fec1501146100955780634de0f289146100b3578063a0818010146100d1578063a594bf89146100db575b5f80fd5b61009d61012b565b6040516100aa919061050f565b60405180910390f35b6100bb610136565b6040516100c8919061050f565b60405180910390f35b6100d9610142565b005b6100e3610214565b005b6100ed6102a5565b005b6100f7610325565b005b6101016103a5565b005b61010b61045a565b604051610118919061050f565b60405180910390f35b610129610465565b005b5f6002800154905090565b5f600260050154905090565b6040518060600160405280600581526020013373ffffffffffffffffffffffffffffffffffffffff1681526020016040518060400160405280601a81526020017f6c6f72656d20697073756d20646f6c6f722073697420616d657400000000000081525081525060055f820151815f01556020820151816001015f6101000a81548173ffffffffffffffffffffffffffffffffffffffff021916908373ffffffffffffffffffffffffffffffffffffffff160217905550604082015181600201908161020e9190610762565b50905050565b6040518060600160405280600681526020013373ffffffffffffffffffffffffffffffffffffffff1681526020015f81525060025f820151815f01556020820151816001015f6101000a81548173ffffffffffffffffffffffffffffffffffffffff021916908373ffffffffffffffffffffffffffffffffffffffff16021790555060408201518160020155905050565b6040518060400160405280600681526020013373ffffffffffffffffffffffffffffffffffffffff168152505f80820151815f01556020820151816001015f6101000a81548173ffffffffffffffffffffffffffffffffffffffff021916908373ffffffffffffffffffffffffffffffffffffffff160217905550905050565b6040518060400160405280600581526020013373ffffffffffffffffffffffffffffffffffffffff168152505f80820151815f01556020820151816001015f6101000a81548173ffffffffffffffffffffffffffffffffffffffff021916908373ffffffffffffffffffffffffffffffffffffffff160217905550905050565b6040518060600160405280600681526020013373ffffffffffffffffffffffffffffffffffffffff1681526020016040518060600160405280603881526020016108326038913981525060055f820151815f01556020820151816001015f6101000a81548173ffffffffffffffffffffffffffffffffffffffff021916908373ffffffffffffffffffffffffffffffffffffffff16021790555060408201518160020190816104549190610762565b50905050565b5f60015f0154905090565b6040518060600160405280600581526020013373ffffffffffffffffffffffffffffffffffffffff168152602001600481525060025f820151815f01556020820151816001015f6101000a81548173ffffffffffffffffffffffffffffffffffffffff021916908373ffffffffffffffffffffffffffffffffffffffff16021790555060408201518160020155905050565b5f819050919050565b610509816104f7565b82525050565b5f6020820190506105225f830184610500565b92915050565b5f81519050919050565b7f4e487b71000000000000000000000000000000000000000000000000000000005f52604160045260245ffd5b7f4e487b71000000000000000000000000000000000000000000000000000000005f52602260045260245ffd5b5f60028204905060018216806105a357607f821691505b6020821081036105b6576105b561055f565b5b50919050565b5f819050815f5260205f209050919050565b5f6020601f8301049050919050565b5f82821b905092915050565b5f600883026106187fffffffffffffffffffffffffffffffffffffffffffffffffffffffffffffffff826105dd565b61062286836105dd565b95508019841693508086168417925050509392505050565b5f819050919050565b5f819050919050565b5f61066661066161065c8461063a565b610643565b61063a565b9050919050565b5f819050919050565b61067f8361064c565b61069361068b8261066d565b8484546105e9565b825550505050565b5f90565b6106a761069b565b6106b2818484610676565b505050565b5b818110156106d5576106ca5f8261069f565b6001810190506106b8565b5050565b601f82111561071a576106eb816105bc565b6106f4846105ce565b81016020851015610703578190505b61071761070f856105ce565b8301826106b7565b50505b505050565b5f82821c905092915050565b5f61073a5f198460080261071f565b1980831691505092915050565b5f610752838361072b565b9150826002028217905092915050565b61076b82610528565b67ffffffffffffffff81111561078457610783610532565b5b61078e825461058c565b6107998282856106d9565b5f60209050601f8311600181146107ca575f84156107b8578287015190505b6107c28582610747565b865550610829565b601f1984166107d8866105bc565b5f5b828110156107ff578489015182556001820191506020850194506020810190506107da565b8683101561081c5784890151610818601f89168261072b565b8355505b6001600288020188555050505b50505050505056fe4c6f72656d20697073756d20646f6c6f722073697420616d65742c20636f6e73656374657475722061646970697363696e6720656c69742ea26469706673582212204b7e4b47dc041c074be6ecf2ead896e1bfd396be0a0eca31e531fe53a7bdf79c64736f6c63430008140033",
					"opcodes": "PUSH1 0x80 PUSH1 0x40 MSTORE CALLVALUE DUP1 ISZERO PUSH2 0xF JUMPI PUSH0 DUP1 REVERT JUMPDEST POP PUSH2 0x89F DUP1 PUSH2 0x1D PUSH0 CODECOPY PUSH0 RETURN INVALID PUSH1 0x80 PUSH1 0x40 MSTORE CALLVALUE DUP1 ISZERO PUSH2 0xF JUMPI PUSH0 DUP1 REVERT JUMPDEST POP PUSH1 0x4 CALLDATASIZE LT PUSH2 0x91 JUMPI PUSH0 CALLDATALOAD PUSH1 0xE0 SHR DUP1 PUSH4 0xB333BF69 GT PUSH2 0x64 JUMPI DUP1 PUSH4 0xB333BF69 EQ PUSH2 0xE5 JUMPI DUP1 PUSH4 0xBFC21B29 EQ PUSH2 0xEF JUMPI DUP1 PUSH4 0xD2200749 EQ PUSH2 0xF9 JUMPI DUP1 PUSH4 0xF4FADC01 EQ PUSH2 0x103 JUMPI DUP1 PUSH4 0xF5A2C816 EQ PUSH2 0x121 JUMPI PUSH2 0x91 JUMP JUMPDEST DUP1 PUSH4 0x1FEC1501 EQ PUSH2 0x95 JUMPI DUP1 PUSH4 0x4DE0F289 EQ PUSH2 0xB3 JUMPI DUP1 PUSH4 0xA0818010 EQ PUSH2 0xD1 JUMPI DUP1 PUSH4 0xA594BF89 EQ PUSH2 0xDB JUMPI JUMPDEST PUSH0 DUP1 REVERT JUMPDEST PUSH2 0x9D PUSH2 0x12B JUMP JUMPDEST PUSH1 0x40 MLOAD PUSH2 0xAA SWAP2 SWAP1 PUSH2 0x50F JUMP JUMPDEST PUSH1 0x40 MLOAD DUP1 SWAP2 SUB SWAP1 RETURN JUMPDEST PUSH2 0xBB PUSH2 0x136 JUMP JUMPDEST PUSH1 0x40 MLOAD PUSH2 0xC8 SWAP2 SWAP1 PUSH2 0x50F JUMP JUMPDEST PUSH1 0x40 MLOAD DUP1 SWAP2 SUB SWAP1 RETURN JUMPDEST PUSH2 0xD9 PUSH2 0x142 JUMP JUMPDEST STOP JUMPDEST PUSH2 0xE3 PUSH2 0x214 JUMP JUMPDEST STOP JUMPDEST PUSH2 0xED PUSH2 0x2A5 JUMP JUMPDEST STOP JUMPDEST PUSH2 0xF7 PUSH2 0x325 JUMP JUMPDEST STOP JUMPDEST PUSH2 0x101 PUSH2 0x3A5 JUMP JUMPDEST STOP JUMPDEST PUSH2 0x10B PUSH2 0x45A JUMP JUMPDEST PUSH1 0x40 MLOAD PUSH2 0x118 SWAP2 SWAP1 PUSH2 0x50F JUMP JUMPDEST PUSH1 0x40 MLOAD DUP1 SWAP2 SUB SWAP1 RETURN JUMPDEST PUSH2 0x129 PUSH2 0x465 JUMP JUMPDEST STOP JUMPDEST PUSH0 PUSH1 0x2 DUP1 ADD SLOAD SWAP1 POP SWAP1 JUMP JUMPDEST PUSH0 PUSH1 0x2 PUSH1 0x5 ADD SLOAD SWAP1 POP SWAP1 JUMP JUMPDEST PUSH1 0x40 MLOAD DUP1 PUSH1 0x60 ADD PUSH1 0x40 MSTORE DUP1 PUSH1 0x5 DUP2 MSTORE PUSH1 0x20 ADD CALLER PUSH20 0xFFFFFFFFFFFFFFFFFFFFFFFFFFFFFFFFFFFFFFFF AND DUP2 MSTORE PUSH1 0x20 ADD PUSH1 0x40 MLOAD DUP1 PUSH1 0x40 ADD PUSH1 0x40 MSTORE DUP1 PUSH1 0x1A DUP2 MSTORE PUSH1 0x20 ADD PUSH32 0x6C6F72656D20697073756D20646F6C6F722073697420616D6574000000000000 DUP2 MSTORE POP DUP2 MSTORE POP PUSH1 0x5 PUSH0 DUP3 ADD MLOAD DUP2 PUSH0 ADD SSTORE PUSH1 0x20 DUP3 ADD MLOAD DUP2 PUSH1 0x1 ADD PUSH0 PUSH2 0x100 EXP DUP2 SLOAD DUP2 PUSH20 0xFFFFFFFFFFFFFFFFFFFFFFFFFFFFFFFFFFFFFFFF MUL NOT AND SWAP1 DUP4 PUSH20 0xFFFFFFFFFFFFFFFFFFFFFFFFFFFFFFFFFFFFFFFF AND MUL OR SWAP1 SSTORE POP PUSH1 0x40 DUP3 ADD MLOAD DUP2 PUSH1 0x2 ADD SWAP1 DUP2 PUSH2 0x20E SWAP2 SWAP1 PUSH2 0x762 JUMP JUMPDEST POP SWAP1 POP POP JUMP JUMPDEST PUSH1 0x40 MLOAD DUP1 PUSH1 0x60 ADD PUSH1 0x40 MSTORE DUP1 PUSH1 0x6 DUP2 MSTORE PUSH1 0x20 ADD CALLER PUSH20 0xFFFFFFFFFFFFFFFFFFFFFFFFFFFFFFFFFFFFFFFF AND DUP2 MSTORE PUSH1 0x20 ADD PUSH0 DUP2 MSTORE POP PUSH1 0x2 PUSH0 DUP3 ADD MLOAD DUP2 PUSH0 ADD SSTORE PUSH1 0x20 DUP3 ADD MLOAD DUP2 PUSH1 0x1 ADD PUSH0 PUSH2 0x100 EXP DUP2 SLOAD DUP2 PUSH20 0xFFFFFFFFFFFFFFFFFFFFFFFFFFFFFFFFFFFFFFFF MUL NOT AND SWAP1 DUP4 PUSH20 0xFFFFFFFFFFFFFFFFFFFFFFFFFFFFFFFFFFFFFFFF AND MUL OR SWAP1 SSTORE POP PUSH1 0x40 DUP3 ADD MLOAD DUP2 PUSH1 0x2 ADD SSTORE SWAP1 POP POP JUMP JUMPDEST PUSH1 0x40 MLOAD DUP1 PUSH1 0x40 ADD PUSH1 0x40 MSTORE DUP1 PUSH1 0x6 DUP2 MSTORE PUSH1 0x20 ADD CALLER PUSH20 0xFFFFFFFFFFFFFFFFFFFFFFFFFFFFFFFFFFFFFFFF AND DUP2 MSTORE POP PUSH0 DUP1 DUP3 ADD MLOAD DUP2 PUSH0 ADD SSTORE PUSH1 0x20 DUP3 ADD MLOAD DUP2 PUSH1 0x1 ADD PUSH0 PUSH2 0x100 EXP DUP2 SLOAD DUP2 PUSH20 0xFFFFFFFFFFFFFFFFFFFFFFFFFFFFFFFFFFFFFFFF MUL NOT AND SWAP1 DUP4 PUSH20 0xFFFFFFFFFFFFFFFFFFFFFFFFFFFFFFFFFFFFFFFF AND MUL OR SWAP1 SSTORE POP SWAP1 POP POP JUMP JUMPDEST PUSH1 0x40 MLOAD DUP1 PUSH1 0x40 ADD PUSH1 0x40 MSTORE DUP1 PUSH1 0x5 DUP2 MSTORE PUSH1 0x20 ADD CALLER PUSH20 0xFFFFFFFFFFFFFFFFFFFFFFFFFFFFFFFFFFFFFFFF AND DUP2 MSTORE POP PUSH0 DUP1 DUP3 ADD MLOAD DUP2 PUSH0 ADD SSTORE PUSH1 0x20 DUP3 ADD MLOAD DUP2 PUSH1 0x1 ADD PUSH0 PUSH2 0x100 EXP DUP2 SLOAD DUP2 PUSH20 0xFFFFFFFFFFFFFFFFFFFFFFFFFFFFFFFFFFFFFFFF MUL NOT AND SWAP1 DUP4 PUSH20 0xFFFFFFFFFFFFFFFFFFFFFFFFFFFFFFFFFFFFFFFF AND MUL OR SWAP1 SSTORE POP SWAP1 POP POP JUMP JUMPDEST PUSH1 0x40 MLOAD DUP1 PUSH1 0x60 ADD PUSH1 0x40 MSTORE DUP1 PUSH1 0x6 DUP2 MSTORE PUSH1 0x20 ADD CALLER PUSH20 0xFFFFFFFFFFFFFFFFFFFFFFFFFFFFFFFFFFFFFFFF AND DUP2 MSTORE PUSH1 0x20 ADD PUSH1 0x40 MLOAD DUP1 PUSH1 0x60 ADD PUSH1 0x40 MSTORE DUP1 PUSH1 0x38 DUP2 MSTORE PUSH1 0x20 ADD PUSH2 0x832 PUSH1 0x38 SWAP2 CODECOPY DUP2 MSTORE POP PUSH1 0x5 PUSH0 DUP3 ADD MLOAD DUP2 PUSH0 ADD SSTORE PUSH1 0x20 DUP3 ADD MLOAD DUP2 PUSH1 0x1 ADD PUSH0 PUSH2 0x100 EXP DUP2 SLOAD DUP2 PUSH20 0xFFFFFFFFFFFFFFFFFFFFFFFFFFFFFFFFFFFFFFFF MUL NOT AND SWAP1 DUP4 PUSH20 0xFFFFFFFFFFFFFFFFFFFFFFFFFFFFFFFFFFFFFFFF AND MUL OR SWAP1 SSTORE POP PUSH1 0x40 DUP3 ADD MLOAD DUP2 PUSH1 0x2 ADD SWAP1 DUP2 PUSH2 0x454 SWAP2 SWAP1 PUSH2 0x762 JUMP JUMPDEST POP SWAP1 POP POP JUMP JUMPDEST PUSH0 PUSH1 0x1 PUSH0 ADD SLOAD SWAP1 POP SWAP1 JUMP JUMPDEST PUSH1 0x40 MLOAD DUP1 PUSH1 0x60 ADD PUSH1 0x40 MSTORE DUP1 PUSH1 0x5 DUP2 MSTORE PUSH1 0x20 ADD CALLER PUSH20 0xFFFFFFFFFFFFFFFFFFFFFFFFFFFFFFFFFFFFFFFF AND DUP2 MSTORE PUSH1 0x20 ADD PUSH1 0x4 DUP2 MSTORE POP PUSH1 0x2 PUSH0 DUP3 ADD MLOAD DUP2 PUSH0 ADD SSTORE PUSH1 0x20 DUP3 ADD MLOAD DUP2 PUSH1 0x1 ADD PUSH0 PUSH2 0x100 EXP DUP2 SLOAD DUP2 PUSH20 0xFFFFFFFFFFFFFFFFFFFFFFFFFFFFFFFFFFFFFFFF MUL NOT AND SWAP1 DUP4 PUSH20 0xFFFFFFFFFFFFFFFFFFFFFFFFFFFFFFFFFFFFFFFF AND MUL OR SWAP1 SSTORE POP PUSH1 0x40 DUP3 ADD MLOAD DUP2 PUSH1 0x2 ADD SSTORE SWAP1 POP POP JUMP JUMPDEST PUSH0 DUP2 SWAP1 POP SWAP2 SWAP1 POP JUMP JUMPDEST PUSH2 0x509 DUP2 PUSH2 0x4F7 JUMP JUMPDEST DUP3 MSTORE POP POP JUMP JUMPDEST PUSH0 PUSH1 0x20 DUP3 ADD SWAP1 POP PUSH2 0x522 PUSH0 DUP4 ADD DUP5 PUSH2 0x500 JUMP JUMPDEST SWAP3 SWAP2 POP POP JUMP JUMPDEST PUSH0 DUP2 MLOAD SWAP1 POP SWAP2 SWAP1 POP JUMP JUMPDEST PUSH32 0x4E487B7100000000000000000000000000000000000000000000000000000000 PUSH0 MSTORE PUSH1 0x41 PUSH1 0x4 MSTORE PUSH1 0x24 PUSH0 REVERT JUMPDEST PUSH32 0x4E487B7100000000000000000000000000000000000000000000000000000000 PUSH0 MSTORE PUSH1 0x22 PUSH1 0x4 MSTORE PUSH1 0x24 PUSH0 REVERT JUMPDEST PUSH0 PUSH1 0x2 DUP3 DIV SWAP1 POP PUSH1 0x1 DUP3 AND DUP1 PUSH2 0x5A3 JUMPI PUSH1 0x7F DUP3 AND SWAP2 POP JUMPDEST PUSH1 0x20 DUP3 LT DUP2 SUB PUSH2 0x5B6 JUMPI PUSH2 0x5B5 PUSH2 0x55F JUMP JUMPDEST JUMPDEST POP SWAP2 SWAP1 POP JUMP JUMPDEST PUSH0 DUP2 SWAP1 POP DUP2 PUSH0 MSTORE PUSH1 0x20 PUSH0 KECCAK256 SWAP1 POP SWAP2 SWAP1 POP JUMP JUMPDEST PUSH0 PUSH1 0x20 PUSH1 0x1F DUP4 ADD DIV SWAP1 POP SWAP2 SWAP1 POP JUMP JUMPDEST PUSH0 DUP3 DUP3 SHL SWAP1 POP SWAP3 SWAP2 POP POP JUMP JUMPDEST PUSH0 PUSH1 0x8 DUP4 MUL PUSH2 0x618 PUSH32 0xFFFFFFFFFFFFFFFFFFFFFFFFFFFFFFFFFFFFFFFFFFFFFFFFFFFFFFFFFFFFFFFF DUP3 PUSH2 0x5DD JUMP JUMPDEST PUSH2 0x622 DUP7 DUP4 PUSH2 0x5DD JUMP JUMPDEST SWAP6 POP DUP1 NOT DUP5 AND SWAP4 POP DUP1 DUP7 AND DUP5 OR SWAP3 POP POP POP SWAP4 SWAP3 POP POP POP JUMP JUMPDEST PUSH0 DUP2 SWAP1 POP SWAP2 SWAP1 POP JUMP JUMPDEST PUSH0 DUP2 SWAP1 POP SWAP2 SWAP1 POP JUMP JUMPDEST PUSH0 PUSH2 0x666 PUSH2 0x661 PUSH2 0x65C DUP5 PUSH2 0x63A JUMP JUMPDEST PUSH2 0x643 JUMP JUMPDEST PUSH2 0x63A JUMP JUMPDEST SWAP1 POP SWAP2 SWAP1 POP JUMP JUMPDEST PUSH0 DUP2 SWAP1 POP SWAP2 SWAP1 POP JUMP JUMPDEST PUSH2 0x67F DUP4 PUSH2 0x64C JUMP JUMPDEST PUSH2 0x693 PUSH2 0x68B DUP3 PUSH2 0x66D JUMP JUMPDEST DUP5 DUP5 SLOAD PUSH2 0x5E9 JUMP JUMPDEST DUP3 SSTORE POP POP POP POP JUMP JUMPDEST PUSH0 SWAP1 JUMP JUMPDEST PUSH2 0x6A7 PUSH2 0x69B JUMP JUMPDEST PUSH2 0x6B2 DUP2 DUP5 DUP5 PUSH2 0x676 JUMP JUMPDEST POP POP POP JUMP JUMPDEST JUMPDEST DUP2 DUP2 LT ISZERO PUSH2 0x6D5 JUMPI PUSH2 0x6CA PUSH0 DUP3 PUSH2 0x69F JUMP JUMPDEST PUSH1 0x1 DUP2 ADD SWAP1 POP PUSH2 0x6B8 JUMP JUMPDEST POP POP JUMP JUMPDEST PUSH1 0x1F DUP3 GT ISZERO PUSH2 0x71A JUMPI PUSH2 0x6EB DUP2 PUSH2 0x5BC JUMP JUMPDEST PUSH2 0x6F4 DUP5 PUSH2 0x5CE JUMP JUMPDEST DUP2 ADD PUSH1 0x20 DUP6 LT ISZERO PUSH2 0x703 JUMPI DUP2 SWAP1 POP JUMPDEST PUSH2 0x717 PUSH2 0x70F DUP6 PUSH2 0x5CE JUMP JUMPDEST DUP4 ADD DUP3 PUSH2 0x6B7 JUMP JUMPDEST POP POP JUMPDEST POP POP POP JUMP JUMPDEST PUSH0 DUP3 DUP3 SHR SWAP1 POP SWAP3 SWAP2 POP POP JUMP JUMPDEST PUSH0 PUSH2 0x73A PUSH0 NOT DUP5 PUSH1 0x8 MUL PUSH2 0x71F JUMP JUMPDEST NOT DUP1 DUP4 AND SWAP2 POP POP SWAP3 SWAP2 POP POP JUMP JUMPDEST PUSH0 PUSH2 0x752 DUP4 DUP4 PUSH2 0x72B JUMP JUMPDEST SWAP2 POP DUP3 PUSH1 0x2 MUL DUP3 OR SWAP1 POP SWAP3 SWAP2 POP POP JUMP JUMPDEST PUSH2 0x76B DUP3 PUSH2 0x528 JUMP JUMPDEST PUSH8 0xFFFFFFFFFFFFFFFF DUP2 GT ISZERO PUSH2 0x784 JUMPI PUSH2 0x783 PUSH2 0x532 JUMP JUMPDEST JUMPDEST PUSH2 0x78E DUP3 SLOAD PUSH2 0x58C JUMP JUMPDEST PUSH2 0x799 DUP3 DUP3 DUP6 PUSH2 0x6D9 JUMP JUMPDEST PUSH0 PUSH1 0x20 SWAP1 POP PUSH1 0x1F DUP4 GT PUSH1 0x1 DUP2 EQ PUSH2 0x7CA JUMPI PUSH0 DUP5 ISZERO PUSH2 0x7B8 JUMPI DUP3 DUP8 ADD MLOAD SWAP1 POP JUMPDEST PUSH2 0x7C2 DUP6 DUP3 PUSH2 0x747 JUMP JUMPDEST DUP7 SSTORE POP PUSH2 0x829 JUMP JUMPDEST PUSH1 0x1F NOT DUP5 AND PUSH2 0x7D8 DUP7 PUSH2 0x5BC JUMP JUMPDEST PUSH0 JUMPDEST DUP3 DUP2 LT ISZERO PUSH2 0x7FF JUMPI DUP5 DUP10 ADD MLOAD DUP3 SSTORE PUSH1 0x1 DUP3 ADD SWAP2 POP PUSH1 0x20 DUP6 ADD SWAP5 POP PUSH1 0x20 DUP2 ADD SWAP1 POP PUSH2 0x7DA JUMP JUMPDEST DUP7 DUP4 LT ISZERO PUSH2 0x81C JUMPI DUP5 DUP10 ADD MLOAD PUSH2 0x818 PUSH1 0x1F DUP10 AND DUP3 PUSH2 0x72B JUMP JUMPDEST DUP4 SSTORE POP JUMPDEST PUSH1 0x1 PUSH1 0x2 DUP9 MUL ADD DUP9 SSTORE POP POP POP JUMPDEST POP POP POP POP POP POP JUMP INVALID 0x4C PUSH16 0x72656D20697073756D20646F6C6F7220 PUSH20 0x697420616D65742C20636F6E7365637465747572 KECCAK256 PUSH2 0x6469 PUSH17 0x697363696E6720656C69742EA264697066 PUSH20 0x582212204B7E4B47DC041C074BE6ECF2EAD896E1 0xBF 0xD3 SWAP7 0xBE EXP 0xE 0xCA BALANCE 0xE5 BALANCE INVALID MSTORE8 0xA7 0xBD 0xF7 SWAP13 PUSH5 0x736F6C6343 STOP ADDMOD EQ STOP CALLER "
				},
				"gasEstimates": {
					"creation": {
						"codeDepositCost": "441400",
						"executionCost": "472",
						"totalCost": "441872"
					},
					"external": {
						"getCV1()": "2503",
						"getCV2()": "2439",
						"getCV3()": "2461",
						"setStructV1()": "46639",
						"setStructV2()": "46617",
						"setStructV3()": "68844",
						"setStructV4()": "51722",
						"setStructV5()": "infinite",
						"setStructV6()": "infinite"
					}
				},
				"methodIdentifiers": {
					"getCV1()": "f4fadc01",
					"getCV2()": "1fec1501",
					"getCV3()": "4de0f289",
					"setStructV1()": "bfc21b29",
					"setStructV2()": "b333bf69",
					"setStructV3()": "f5a2c816",
					"setStructV4()": "a594bf89",
					"setStructV5()": "a0818010",
					"setStructV6()": "d2200749"
				}
			},
			"storageLayout": {
				"storage": [
					{
						"astId": 753,
						"contract": "contracts/12_ERC20_Files_Structs_Strings.sol:StructsStrings",
						"label": "myStructV1",
						"offset": 0,
						"slot": "0",
						"type": "t_struct(MyStructsV1)736_storage"
					},
					{
						"astId": 756,
						"contract": "contracts/12_ERC20_Files_Structs_Strings.sol:StructsStrings",
						"label": "myStructV2",
						"offset": 0,
						"slot": "2",
						"type": "t_struct(MyStructsV2)743_storage"
					},
					{
						"astId": 759,
						"contract": "contracts/12_ERC20_Files_Structs_Strings.sol:StructsStrings",
						"label": "myStructV3",
						"offset": 0,
						"slot": "5",
						"type": "t_struct(MyStructsV3)750_storage"
					}
				],
				"types": {
					"t_address": {
						"encoding": "inplace",
						"label": "address",
						"numberOfBytes": "20"
					},
					"t_string_storage": {
						"encoding": "bytes",
						"label": "string",
						"numberOfBytes": "32"
					},
					"t_struct(MyStructsV1)736_storage": {
						"encoding": "inplace",
						"label": "struct StructsStrings.MyStructsV1",
						"members": [
							{
								"astId": 733,
								"contract": "contracts/12_ERC20_Files_Structs_Strings.sol:StructsStrings",
								"label": "a",
								"offset": 0,
								"slot": "0",
								"type": "t_uint256"
							},
							{
								"astId": 735,
								"contract": "contracts/12_ERC20_Files_Structs_Strings.sol:StructsStrings",
								"label": "b",
								"offset": 0,
								"slot": "1",
								"type": "t_address"
							}
						],
						"numberOfBytes": "64"
					},
					"t_struct(MyStructsV2)743_storage": {
						"encoding": "inplace",
						"label": "struct StructsStrings.MyStructsV2",
						"members": [
							{
								"astId": 738,
								"contract": "contracts/12_ERC20_Files_Structs_Strings.sol:StructsStrings",
								"label": "a",
								"offset": 0,
								"slot": "0",
								"type": "t_uint256"
							},
							{
								"astId": 740,
								"contract": "contracts/12_ERC20_Files_Structs_Strings.sol:StructsStrings",
								"label": "b",
								"offset": 0,
								"slot": "1",
								"type": "t_address"
							},
							{
								"astId": 742,
								"contract": "contracts/12_ERC20_Files_Structs_Strings.sol:StructsStrings",
								"label": "c",
								"offset": 0,
								"slot": "2",
								"type": "t_uint256"
							}
						],
						"numberOfBytes": "96"
					},
					"t_struct(MyStructsV3)750_storage": {
						"encoding": "inplace",
						"label": "struct StructsStrings.MyStructsV3",
						"members": [
							{
								"astId": 745,
								"contract": "contracts/12_ERC20_Files_Structs_Strings.sol:StructsStrings",
								"label": "a",
								"offset": 0,
								"slot": "0",
								"type": "t_uint256"
							},
							{
								"astId": 747,
								"contract": "contracts/12_ERC20_Files_Structs_Strings.sol:StructsStrings",
								"label": "b",
								"offset": 0,
								"slot": "1",
								"type": "t_address"
							},
							{
								"astId": 749,
								"contract": "contracts/12_ERC20_Files_Structs_Strings.sol:StructsStrings",
								"label": "c",
								"offset": 0,
								"slot": "2",
								"type": "t_string_storage"
							}
						],
						"numberOfBytes": "96"
					},
					"t_uint256": {
						"encoding": "inplace",
						"label": "uint256",
						"numberOfBytes": "32"
					}
				}
			},
			"userdoc": {
				"kind": "user",
				"methods": {},
				"version": 1
			}
		}
	}
}