{
	"contracts/01_Simple.sol": {
		"Simple": {
			"abi": [
				{
					"inputs": [],
					"name": "heavy25Loops",
					"outputs": [
						{
							"internalType": "uint256",
							"name": "",
							"type": "uint256"
						}
					],
					"stateMutability": "view",
					"type": "function"
				},
				{
					"inputs": [],
					"name": "heavy50Loops",
					"outputs": [
						{
							"internalType": "uint256",
							"name": "",
							"type": "uint256"
						}
					],
					"stateMutability": "view",
					"type": "function"
				},
				{
					"inputs": [],
					"name": "light",
					"outputs": [
						{
							"internalType": "uint256",
							"name": "",
							"type": "uint256"
						}
					],
					"stateMutability": "view",
					"type": "function"
				}
			],
			"devdoc": {
				"kind": "dev",
				"methods": {},
				"version": 1
			},
			"evm": {
				"assembly": "    /* \"contracts/01_Simple.sol\":56:782  contract Simple{... */\n  mstore(0x40, 0x80)\n    /* \"contracts/01_Simple.sol\":97:99  10 */\n  0x0a\n    /* \"contracts/01_Simple.sol\":77:99  uint256 private x = 10 */\n  0x00\n  sstore\n    /* \"contracts/01_Simple.sol\":56:782  contract Simple{... */\n  callvalue\n  dup1\n  iszero\n  tag_1\n  jumpi\n  0x00\n  dup1\n  revert\ntag_1:\n  pop\n  dataSize(sub_0)\n  dup1\n  dataOffset(sub_0)\n  0x00\n  codecopy\n  0x00\n  return\nstop\n\nsub_0: assembly {\n        /* \"contracts/01_Simple.sol\":56:782  contract Simple{... */\n      mstore(0x40, 0x80)\n      callvalue\n      dup1\n      iszero\n      tag_1\n      jumpi\n      0x00\n      dup1\n      revert\n    tag_1:\n      pop\n      jumpi(tag_2, lt(calldatasize, 0x04))\n      shr(0xe0, calldataload(0x00))\n      dup1\n      0x64dbe78c\n      eq\n      tag_3\n      jumpi\n      dup1\n      0x6fc21849\n      eq\n      tag_4\n      jumpi\n      dup1\n      0xa111fb4d\n      eq\n      tag_5\n      jumpi\n    tag_2:\n      0x00\n      dup1\n      revert\n        /* \"contracts/01_Simple.sol\":140:216  function light()external  view returns(uint256){... */\n    tag_3:\n      tag_6\n      tag_7\n      jump\t// in\n    tag_6:\n      mload(0x40)\n        /* \"#utility.yul\":347:372   */\n      swap1\n      dup2\n      mstore\n        /* \"#utility.yul\":335:337   */\n      0x20\n        /* \"#utility.yul\":320:338   */\n      add\n        /* \"contracts/01_Simple.sol\":140:216  function light()external  view returns(uint256){... */\n      mload(0x40)\n      dup1\n      swap2\n      sub\n      swap1\n      return\n        /* \"contracts/01_Simple.sol\":257:498  function heavy50Loops()external view returns(uint256){... */\n    tag_4:\n      tag_6\n      tag_11\n      jump\t// in\n        /* \"contracts/01_Simple.sol\":539:780  function heavy25Loops()external view returns(uint256){... */\n    tag_5:\n      tag_6\n      tag_14\n      jump\t// in\n        /* \"contracts/01_Simple.sol\":140:216  function light()external  view returns(uint256){... */\n    tag_7:\n        /* \"contracts/01_Simple.sol\":179:186  uint256 */\n      0x00\n        /* \"contracts/01_Simple.sol\":204:205  x */\n      dup1\n      sload\n        /* \"contracts/01_Simple.sol\":204:209  x + 1 */\n      tag_17\n      swap1\n        /* \"contracts/01_Simple.sol\":208:209  1 */\n      0x01\n        /* \"contracts/01_Simple.sol\":204:209  x + 1 */\n      tag_18\n      jump\t// in\n    tag_17:\n        /* \"contracts/01_Simple.sol\":197:209  return x + 1 */\n      swap1\n      pop\n        /* \"contracts/01_Simple.sol\":140:216  function light()external  view returns(uint256){... */\n      swap1\n      jump\t// out\n        /* \"contracts/01_Simple.sol\":257:498  function heavy50Loops()external view returns(uint256){... */\n    tag_11:\n        /* \"contracts/01_Simple.sol\":302:309  uint256 */\n      0x00\n        /* \"contracts/01_Simple.sol\":320:330  bytes32 _x */\n      dup1\n        /* \"contracts/01_Simple.sol\":360:361  x */\n      sload(0x00)\n        /* \"contracts/01_Simple.sol\":343:362  abi.encodePacked(x) */\n      add(0x20, mload(0x40))\n      tag_20\n      swap2\n        /* \"#utility.yul\":143:162   */\n      dup2\n      mstore\n        /* \"#utility.yul\":187:189   */\n      0x20\n        /* \"#utility.yul\":178:190   */\n      add\n      swap1\n        /* \"#utility.yul\":14:196   */\n      jump\n        /* \"contracts/01_Simple.sol\":343:362  abi.encodePacked(x) */\n    tag_20:\n      mload(0x40)\n      0x20\n      dup2\n      dup4\n      sub\n      sub\n      dup2\n      mstore\n      swap1\n      0x40\n      mstore\n        /* \"contracts/01_Simple.sol\":333:363  keccak256(abi.encodePacked(x)) */\n      dup1\n      mload\n      swap1\n      0x20\n      add\n      keccak256\n        /* \"contracts/01_Simple.sol\":320:363  bytes32 _x = keccak256(abi.encodePacked(x)) */\n      swap1\n      pop\n        /* \"contracts/01_Simple.sol\":377:386  uint256 i */\n      0x00\n        /* \"contracts/01_Simple.sol\":373:464  for(uint256 i = 0; i < 50; i++){... */\n    tag_22:\n        /* \"contracts/01_Simple.sol\":396:398  50 */\n      0x32\n        /* \"contracts/01_Simple.sol\":392:393  i */\n      dup2\n        /* \"contracts/01_Simple.sol\":392:398  i < 50 */\n      lt\n        /* \"contracts/01_Simple.sol\":373:464  for(uint256 i = 0; i < 50; i++){... */\n      iszero\n      tag_23\n      jumpi\n        /* \"contracts/01_Simple.sol\":450:451  x */\n      sload(0x00)\n        /* \"contracts/01_Simple.sol\":433:452  abi.encodePacked(x) */\n      add(0x20, mload(0x40))\n      tag_25\n      swap2\n        /* \"#utility.yul\":143:162   */\n      dup2\n      mstore\n        /* \"#utility.yul\":187:189   */\n      0x20\n        /* \"#utility.yul\":178:190   */\n      add\n      swap1\n        /* \"#utility.yul\":14:196   */\n      jump\n        /* \"contracts/01_Simple.sol\":433:452  abi.encodePacked(x) */\n    tag_25:\n      mload(0x40)\n      0x20\n      dup2\n      dup4\n      sub\n      sub\n      dup2\n      mstore\n      swap1\n      0x40\n      mstore\n        /* \"contracts/01_Simple.sol\":423:453  keccak256(abi.encodePacked(x)) */\n      dup1\n      mload\n      swap1\n      0x20\n      add\n      keccak256\n        /* \"contracts/01_Simple.sol\":418:453  _x = keccak256(abi.encodePacked(x)) */\n      swap2\n      pop\n        /* \"contracts/01_Simple.sol\":400:403  i++ */\n      dup1\n      dup1\n      tag_26\n      swap1\n      tag_27\n      jump\t// in\n    tag_26:\n      swap2\n      pop\n      pop\n        /* \"contracts/01_Simple.sol\":373:464  for(uint256 i = 0; i < 50; i++){... */\n      jump(tag_22)\n    tag_23:\n      pop\n        /* \"contracts/01_Simple.sol\":488:490  _x */\n      swap2\n        /* \"contracts/01_Simple.sol\":257:498  function heavy50Loops()external view returns(uint256){... */\n      swap1\n      pop\n      jump\t// out\n        /* \"contracts/01_Simple.sol\":539:780  function heavy25Loops()external view returns(uint256){... */\n    tag_14:\n        /* \"contracts/01_Simple.sol\":584:591  uint256 */\n      0x00\n        /* \"contracts/01_Simple.sol\":602:612  bytes32 _x */\n      dup1\n        /* \"contracts/01_Simple.sol\":642:643  x */\n      sload(0x00)\n        /* \"contracts/01_Simple.sol\":625:644  abi.encodePacked(x) */\n      add(0x20, mload(0x40))\n      tag_29\n      swap2\n        /* \"#utility.yul\":143:162   */\n      dup2\n      mstore\n        /* \"#utility.yul\":187:189   */\n      0x20\n        /* \"#utility.yul\":178:190   */\n      add\n      swap1\n        /* \"#utility.yul\":14:196   */\n      jump\n        /* \"contracts/01_Simple.sol\":625:644  abi.encodePacked(x) */\n    tag_29:\n      mload(0x40)\n      0x20\n      dup2\n      dup4\n      sub\n      sub\n      dup2\n      mstore\n      swap1\n      0x40\n      mstore\n        /* \"contracts/01_Simple.sol\":615:645  keccak256(abi.encodePacked(x)) */\n      dup1\n      mload\n      swap1\n      0x20\n      add\n      keccak256\n        /* \"contracts/01_Simple.sol\":602:645  bytes32 _x = keccak256(abi.encodePacked(x)) */\n      swap1\n      pop\n        /* \"contracts/01_Simple.sol\":659:668  uint256 i */\n      0x00\n        /* \"contracts/01_Simple.sol\":655:746  for(uint256 i = 0; i < 25; i++){... */\n    tag_30:\n        /* \"contracts/01_Simple.sol\":678:680  25 */\n      0x19\n        /* \"contracts/01_Simple.sol\":674:675  i */\n      dup2\n        /* \"contracts/01_Simple.sol\":674:680  i < 25 */\n      lt\n        /* \"contracts/01_Simple.sol\":655:746  for(uint256 i = 0; i < 25; i++){... */\n      iszero\n      tag_23\n      jumpi\n        /* \"contracts/01_Simple.sol\":732:733  x */\n      sload(0x00)\n        /* \"contracts/01_Simple.sol\":715:734  abi.encodePacked(x) */\n      add(0x20, mload(0x40))\n      tag_33\n      swap2\n        /* \"#utility.yul\":143:162   */\n      dup2\n      mstore\n        /* \"#utility.yul\":187:189   */\n      0x20\n        /* \"#utility.yul\":178:190   */\n      add\n      swap1\n        /* \"#utility.yul\":14:196   */\n      jump\n        /* \"contracts/01_Simple.sol\":715:734  abi.encodePacked(x) */\n    tag_33:\n      mload(0x40)\n      0x20\n      dup2\n      dup4\n      sub\n      sub\n      dup2\n      mstore\n      swap1\n      0x40\n      mstore\n        /* \"contracts/01_Simple.sol\":705:735  keccak256(abi.encodePacked(x)) */\n      dup1\n      mload\n      swap1\n      0x20\n      add\n      keccak256\n        /* \"contracts/01_Simple.sol\":700:735  _x = keccak256(abi.encodePacked(x)) */\n      swap2\n      pop\n        /* \"contracts/01_Simple.sol\":682:685  i++ */\n      dup1\n      dup1\n      tag_34\n      swap1\n      tag_27\n      jump\t// in\n    tag_34:\n      swap2\n      pop\n      pop\n        /* \"contracts/01_Simple.sol\":655:746  for(uint256 i = 0; i < 25; i++){... */\n      jump(tag_30)\n        /* \"#utility.yul\":383:511   */\n    tag_18:\n        /* \"#utility.yul\":423:426   */\n      0x00\n        /* \"#utility.yul\":454:455   */\n      dup3\n        /* \"#utility.yul\":450:456   */\n      not\n        /* \"#utility.yul\":447:448   */\n      dup3\n        /* \"#utility.yul\":444:457   */\n      gt\n        /* \"#utility.yul\":441:480   */\n      iszero\n      tag_40\n      jumpi\n        /* \"#utility.yul\":460:478   */\n      tag_40\n      tag_41\n      jump\t// in\n    tag_40:\n      pop\n        /* \"#utility.yul\":496:505   */\n      add\n      swap1\n        /* \"#utility.yul\":383:511   */\n      jump\t// out\n        /* \"#utility.yul\":516:651   */\n    tag_27:\n        /* \"#utility.yul\":555:558   */\n      0x00\n      not(0x00)\n        /* \"#utility.yul\":576:593   */\n      dup3\n      eq\n        /* \"#utility.yul\":573:616   */\n      iszero\n      tag_44\n      jumpi\n        /* \"#utility.yul\":596:614   */\n      tag_44\n      tag_41\n      jump\t// in\n    tag_44:\n      pop\n        /* \"#utility.yul\":643:644   */\n      0x01\n        /* \"#utility.yul\":632:645   */\n      add\n      swap1\n        /* \"#utility.yul\":516:651   */\n      jump\t// out\n        /* \"#utility.yul\":656:783   */\n    tag_41:\n        /* \"#utility.yul\":717:727   */\n      0x4e487b71\n        /* \"#utility.yul\":712:715   */\n      0xe0\n        /* \"#utility.yul\":708:728   */\n      shl\n        /* \"#utility.yul\":705:706   */\n      0x00\n        /* \"#utility.yul\":698:729   */\n      mstore\n        /* \"#utility.yul\":748:752   */\n      0x11\n        /* \"#utility.yul\":745:746   */\n      0x04\n        /* \"#utility.yul\":738:753   */\n      mstore\n        /* \"#utility.yul\":772:776   */\n      0x24\n        /* \"#utility.yul\":769:770   */\n      0x00\n        /* \"#utility.yul\":762:777   */\n      revert\n\n    auxdata: 0xa2646970667358221220845b0255496fca6c74ae125f2b4f68cbdcb1d51d905d6f42d5bb437a1b79e20a64736f6c63430008070033\n}\n",
				"bytecode": {
					"linkReferences": {},
					"object": "6080604052600a60005534801561001557600080fd5b50610201806100256000396000f3fe608060405234801561001057600080fd5b50600436106100415760003560e01c806364dbe78c146100465780636fc2184914610060578063a111fb4d14610068575b600080fd5b61004e610070565b60405190815260200160405180910390f35b61004e610084565b61004e610106565b6000805461007f906001610182565b905090565b60008060005460405160200161009c91815260200190565b60405160208183030381529060405280519060200120905060005b6032811015610100576000546040516020016100d591815260200190565b60405160208183030381529060405280519060200120915080806100f89061019a565b9150506100b7565b50919050565b60008060005460405160200161011e91815260200190565b60405160208183030381529060405280519060200120905060005b60198110156101005760005460405160200161015791815260200190565b604051602081830303815290604052805190602001209150808061017a9061019a565b915050610139565b60008219821115610195576101956101b5565b500190565b60006000198214156101ae576101ae6101b5565b5060010190565b634e487b7160e01b600052601160045260246000fdfea2646970667358221220845b0255496fca6c74ae125f2b4f68cbdcb1d51d905d6f42d5bb437a1b79e20a64736f6c63430008070033",
					"opcodes": "PUSH1 0x80 PUSH1 0x40 MSTORE PUSH1 0xA PUSH1 0x0 SSTORE CALLVALUE DUP1 ISZERO PUSH2 0x15 JUMPI PUSH1 0x0 DUP1 REVERT JUMPDEST POP PUSH2 0x201 DUP1 PUSH2 0x25 PUSH1 0x0 CODECOPY PUSH1 0x0 RETURN INVALID PUSH1 0x80 PUSH1 0x40 MSTORE CALLVALUE DUP1 ISZERO PUSH2 0x10 JUMPI PUSH1 0x0 DUP1 REVERT JUMPDEST POP PUSH1 0x4 CALLDATASIZE LT PUSH2 0x41 JUMPI PUSH1 0x0 CALLDATALOAD PUSH1 0xE0 SHR DUP1 PUSH4 0x64DBE78C EQ PUSH2 0x46 JUMPI DUP1 PUSH4 0x6FC21849 EQ PUSH2 0x60 JUMPI DUP1 PUSH4 0xA111FB4D EQ PUSH2 0x68 JUMPI JUMPDEST PUSH1 0x0 DUP1 REVERT JUMPDEST PUSH2 0x4E PUSH2 0x70 JUMP JUMPDEST PUSH1 0x40 MLOAD SWAP1 DUP2 MSTORE PUSH1 0x20 ADD PUSH1 0x40 MLOAD DUP1 SWAP2 SUB SWAP1 RETURN JUMPDEST PUSH2 0x4E PUSH2 0x84 JUMP JUMPDEST PUSH2 0x4E PUSH2 0x106 JUMP JUMPDEST PUSH1 0x0 DUP1 SLOAD PUSH2 0x7F SWAP1 PUSH1 0x1 PUSH2 0x182 JUMP JUMPDEST SWAP1 POP SWAP1 JUMP JUMPDEST PUSH1 0x0 DUP1 PUSH1 0x0 SLOAD PUSH1 0x40 MLOAD PUSH1 0x20 ADD PUSH2 0x9C SWAP2 DUP2 MSTORE PUSH1 0x20 ADD SWAP1 JUMP JUMPDEST PUSH1 0x40 MLOAD PUSH1 0x20 DUP2 DUP4 SUB SUB DUP2 MSTORE SWAP1 PUSH1 0x40 MSTORE DUP1 MLOAD SWAP1 PUSH1 0x20 ADD KECCAK256 SWAP1 POP PUSH1 0x0 JUMPDEST PUSH1 0x32 DUP2 LT ISZERO PUSH2 0x100 JUMPI PUSH1 0x0 SLOAD PUSH1 0x40 MLOAD PUSH1 0x20 ADD PUSH2 0xD5 SWAP2 DUP2 MSTORE PUSH1 0x20 ADD SWAP1 JUMP JUMPDEST PUSH1 0x40 MLOAD PUSH1 0x20 DUP2 DUP4 SUB SUB DUP2 MSTORE SWAP1 PUSH1 0x40 MSTORE DUP1 MLOAD SWAP1 PUSH1 0x20 ADD KECCAK256 SWAP2 POP DUP1 DUP1 PUSH2 0xF8 SWAP1 PUSH2 0x19A JUMP JUMPDEST SWAP2 POP POP PUSH2 0xB7 JUMP JUMPDEST POP SWAP2 SWAP1 POP JUMP JUMPDEST PUSH1 0x0 DUP1 PUSH1 0x0 SLOAD PUSH1 0x40 MLOAD PUSH1 0x20 ADD PUSH2 0x11E SWAP2 DUP2 MSTORE PUSH1 0x20 ADD SWAP1 JUMP JUMPDEST PUSH1 0x40 MLOAD PUSH1 0x20 DUP2 DUP4 SUB SUB DUP2 MSTORE SWAP1 PUSH1 0x40 MSTORE DUP1 MLOAD SWAP1 PUSH1 0x20 ADD KECCAK256 SWAP1 POP PUSH1 0x0 JUMPDEST PUSH1 0x19 DUP2 LT ISZERO PUSH2 0x100 JUMPI PUSH1 0x0 SLOAD PUSH1 0x40 MLOAD PUSH1 0x20 ADD PUSH2 0x157 SWAP2 DUP2 MSTORE PUSH1 0x20 ADD SWAP1 JUMP JUMPDEST PUSH1 0x40 MLOAD PUSH1 0x20 DUP2 DUP4 SUB SUB DUP2 MSTORE SWAP1 PUSH1 0x40 MSTORE DUP1 MLOAD SWAP1 PUSH1 0x20 ADD KECCAK256 SWAP2 POP DUP1 DUP1 PUSH2 0x17A SWAP1 PUSH2 0x19A JUMP JUMPDEST SWAP2 POP POP PUSH2 0x139 JUMP JUMPDEST PUSH1 0x0 DUP3 NOT DUP3 GT ISZERO PUSH2 0x195 JUMPI PUSH2 0x195 PUSH2 0x1B5 JUMP JUMPDEST POP ADD SWAP1 JUMP JUMPDEST PUSH1 0x0 PUSH1 0x0 NOT DUP3 EQ ISZERO PUSH2 0x1AE JUMPI PUSH2 0x1AE PUSH2 0x1B5 JUMP JUMPDEST POP PUSH1 0x1 ADD SWAP1 JUMP JUMPDEST PUSH4 0x4E487B71 PUSH1 0xE0 SHL PUSH1 0x0 MSTORE PUSH1 0x11 PUSH1 0x4 MSTORE PUSH1 0x24 PUSH1 0x0 REVERT INVALID LOG2 PUSH5 0x6970667358 0x22 SLT KECCAK256 DUP5 JUMPDEST MUL SSTORE 0x49 PUSH16 0xCA6C74AE125F2B4F68CBDCB1D51D905D PUSH16 0x42D5BB437A1B79E20A64736F6C634300 ADDMOD SMOD STOP CALLER "
				},
				"gasEstimates": {
					"creation": {
						"codeDepositCost": "102600",
						"executionCost": "22259",
						"totalCost": "124859"
					},
					"external": {
						"heavy25Loops()": "infinite",
						"heavy50Loops()": "infinite",
						"light()": "2351"
					}
				},
				"methodIdentifiers": {
					"heavy25Loops()": "a111fb4d",
					"heavy50Loops()": "6fc21849",
					"light()": "64dbe78c"
				}
			},
			"storageLayout": {
				"storage": [
					{
						"astId": 4,
						"contract": "contracts/01_Simple.sol:Simple",
						"label": "x",
						"offset": 0,
						"slot": "0",
						"type": "t_uint256"
					}
				],
				"types": {
					"t_uint256": {
						"encoding": "inplace",
						"label": "uint256",
						"numberOfBytes": "32"
					}
				}
			},
			"userdoc": {
				"kind": "user",
				"methods": {},
				"version": 1
			}
		}
	}
}