{
	"contracts/02_Opcode.sol": {
		"Storage": {
			"abi": [
				{
					"inputs": [],
					"name": "aPlusOne",
					"outputs": [
						{
							"internalType": "uint256",
							"name": "",
							"type": "uint256"
						}
					],
					"stateMutability": "view",
					"type": "function"
				},
				{
					"inputs": [],
					"name": "complex",
					"outputs": [
						{
							"internalType": "uint256",
							"name": "",
							"type": "uint256"
						}
					],
					"stateMutability": "view",
					"type": "function"
				}
			],
			"devdoc": {
				"kind": "dev",
				"methods": {},
				"version": 1
			},
			"evm": {
				"assembly": "    /* \"contracts/02_Opcode.sol\":2543:3217  contract Storage{... */\n  mstore(0x40, 0x80)\n    /* \"contracts/02_Opcode.sol\":2577:2578  3 */\n  0x03\n    /* \"contracts/02_Opcode.sol\":2565:2578  uint256 a = 3 */\n  0x00\n  sstore\n    /* \"contracts/02_Opcode.sol\":2596:2597  9 */\n  0x09\n    /* \"contracts/02_Opcode.sol\":2584:2597  uint256 x = 9 */\n  0x01\n  sstore\n    /* \"contracts/02_Opcode.sol\":2615:2616  1 */\n  0x01\n    /* \"contracts/02_Opcode.sol\":2603:2616  uint256 y = 1 */\n  0x02\n  sstore\n    /* \"contracts/02_Opcode.sol\":2543:3217  contract Storage{... */\n  callvalue\n  dup1\n  iszero\n  tag_1\n  jumpi\n  0x00\n  dup1\n  revert\ntag_1:\n  pop\n  dataSize(sub_0)\n  dup1\n  dataOffset(sub_0)\n  0x00\n  codecopy\n  0x00\n  return\nstop\n\nsub_0: assembly {\n        /* \"contracts/02_Opcode.sol\":2543:3217  contract Storage{... */\n      mstore(0x40, 0x80)\n      callvalue\n      dup1\n      iszero\n      tag_1\n      jumpi\n      0x00\n      dup1\n      revert\n    tag_1:\n      pop\n      jumpi(tag_2, lt(calldatasize, 0x04))\n      shr(0xe0, calldataload(0x00))\n      dup1\n      0xa49e0ab1\n      eq\n      tag_3\n      jumpi\n      dup1\n      0xcfaf68e1\n      eq\n      tag_4\n      jumpi\n    tag_2:\n      0x00\n      dup1\n      revert\n        /* \"contracts/02_Opcode.sol\":2995:3082  function complex()external view returns(uint256){... */\n    tag_3:\n      tag_5\n      tag_6\n      jump\t// in\n    tag_5:\n      mload(0x40)\n      tag_7\n      swap2\n      swap1\n      tag_8\n      jump\t// in\n    tag_7:\n      mload(0x40)\n      dup1\n      swap2\n      sub\n      swap1\n      return\n        /* \"contracts/02_Opcode.sol\":2798:2876  function aPlusOne()external view returns(uint256){... */\n    tag_4:\n      tag_9\n      tag_10\n      jump\t// in\n    tag_9:\n      mload(0x40)\n      tag_11\n      swap2\n      swap1\n      tag_8\n      jump\t// in\n    tag_11:\n      mload(0x40)\n      dup1\n      swap2\n      sub\n      swap1\n      return\n        /* \"contracts/02_Opcode.sol\":2995:3082  function complex()external view returns(uint256){... */\n    tag_6:\n        /* \"contracts/02_Opcode.sol\":3035:3042  uint256 */\n      0x00\n        /* \"contracts/02_Opcode.sol\":3073:3074  y */\n      sload(0x02)\n        /* \"contracts/02_Opcode.sol\":3069:3070  3 */\n      0x03\n        /* \"contracts/02_Opcode.sol\":3069:3074  3 * y */\n      tag_13\n      swap2\n      swap1\n      tag_14\n      jump\t// in\n    tag_13:\n        /* \"contracts/02_Opcode.sol\":3065:3066  x */\n      sload(0x01)\n        /* \"contracts/02_Opcode.sol\":3061:3062  5 */\n      0x05\n        /* \"contracts/02_Opcode.sol\":3061:3066  5 * x */\n      tag_15\n      swap2\n      swap1\n      tag_14\n      jump\t// in\n    tag_15:\n        /* \"contracts/02_Opcode.sol\":3061:3074  5 * x + 3 * y */\n      tag_16\n      swap2\n      swap1\n      tag_17\n      jump\t// in\n    tag_16:\n        /* \"contracts/02_Opcode.sol\":3053:3075  return (5 * x + 3 * y) */\n      swap1\n      pop\n        /* \"contracts/02_Opcode.sol\":2995:3082  function complex()external view returns(uint256){... */\n      swap1\n      jump\t// out\n        /* \"contracts/02_Opcode.sol\":2798:2876  function aPlusOne()external view returns(uint256){... */\n    tag_10:\n        /* \"contracts/02_Opcode.sol\":2839:2846  uint256 */\n      0x00\n        /* \"contracts/02_Opcode.sol\":2868:2869  1 */\n      0x01\n        /* \"contracts/02_Opcode.sol\":2864:2865  a */\n      sload(0x00)\n        /* \"contracts/02_Opcode.sol\":2864:2869  a + 1 */\n      tag_19\n      swap2\n      swap1\n      tag_17\n      jump\t// in\n    tag_19:\n        /* \"contracts/02_Opcode.sol\":2857:2869  return a + 1 */\n      swap1\n      pop\n        /* \"contracts/02_Opcode.sol\":2798:2876  function aPlusOne()external view returns(uint256){... */\n      swap1\n      jump\t// out\n        /* \"#utility.yul\":7:125   */\n    tag_21:\n        /* \"#utility.yul\":94:118   */\n      tag_23\n        /* \"#utility.yul\":112:117   */\n      dup2\n        /* \"#utility.yul\":94:118   */\n      tag_24\n      jump\t// in\n    tag_23:\n        /* \"#utility.yul\":89:92   */\n      dup3\n        /* \"#utility.yul\":82:119   */\n      mstore\n        /* \"#utility.yul\":72:125   */\n      pop\n      pop\n      jump\t// out\n        /* \"#utility.yul\":131:353   */\n    tag_8:\n      0x00\n        /* \"#utility.yul\":262:264   */\n      0x20\n        /* \"#utility.yul\":251:260   */\n      dup3\n        /* \"#utility.yul\":247:265   */\n      add\n        /* \"#utility.yul\":239:265   */\n      swap1\n      pop\n        /* \"#utility.yul\":275:346   */\n      tag_26\n        /* \"#utility.yul\":343:344   */\n      0x00\n        /* \"#utility.yul\":332:341   */\n      dup4\n        /* \"#utility.yul\":328:345   */\n      add\n        /* \"#utility.yul\":319:325   */\n      dup5\n        /* \"#utility.yul\":275:346   */\n      tag_21\n      jump\t// in\n    tag_26:\n        /* \"#utility.yul\":229:353   */\n      swap3\n      swap2\n      pop\n      pop\n      jump\t// out\n        /* \"#utility.yul\":359:664   */\n    tag_17:\n      0x00\n        /* \"#utility.yul\":418:438   */\n      tag_28\n        /* \"#utility.yul\":436:437   */\n      dup3\n        /* \"#utility.yul\":418:438   */\n      tag_24\n      jump\t// in\n    tag_28:\n        /* \"#utility.yul\":413:438   */\n      swap2\n      pop\n        /* \"#utility.yul\":452:472   */\n      tag_29\n        /* \"#utility.yul\":470:471   */\n      dup4\n        /* \"#utility.yul\":452:472   */\n      tag_24\n      jump\t// in\n    tag_29:\n        /* \"#utility.yul\":447:472   */\n      swap3\n      pop\n        /* \"#utility.yul\":606:607   */\n      dup3\n        /* \"#utility.yul\":538:604   */\n      0xffffffffffffffffffffffffffffffffffffffffffffffffffffffffffffffff\n        /* \"#utility.yul\":534:608   */\n      sub\n        /* \"#utility.yul\":531:532   */\n      dup3\n        /* \"#utility.yul\":528:609   */\n      gt\n        /* \"#utility.yul\":525:527   */\n      iszero\n      tag_30\n      jumpi\n        /* \"#utility.yul\":612:630   */\n      tag_31\n      tag_32\n      jump\t// in\n    tag_31:\n        /* \"#utility.yul\":525:527   */\n    tag_30:\n        /* \"#utility.yul\":656:657   */\n      dup3\n        /* \"#utility.yul\":653:654   */\n      dup3\n        /* \"#utility.yul\":649:658   */\n      add\n        /* \"#utility.yul\":642:658   */\n      swap1\n      pop\n        /* \"#utility.yul\":403:664   */\n      swap3\n      swap2\n      pop\n      pop\n      jump\t// out\n        /* \"#utility.yul\":670:1018   */\n    tag_14:\n      0x00\n        /* \"#utility.yul\":733:753   */\n      tag_34\n        /* \"#utility.yul\":751:752   */\n      dup3\n        /* \"#utility.yul\":733:753   */\n      tag_24\n      jump\t// in\n    tag_34:\n        /* \"#utility.yul\":728:753   */\n      swap2\n      pop\n        /* \"#utility.yul\":767:787   */\n      tag_35\n        /* \"#utility.yul\":785:786   */\n      dup4\n        /* \"#utility.yul\":767:787   */\n      tag_24\n      jump\t// in\n    tag_35:\n        /* \"#utility.yul\":762:787   */\n      swap3\n      pop\n        /* \"#utility.yul\":955:956   */\n      dup2\n        /* \"#utility.yul\":887:953   */\n      0xffffffffffffffffffffffffffffffffffffffffffffffffffffffffffffffff\n        /* \"#utility.yul\":883:957   */\n      div\n        /* \"#utility.yul\":880:881   */\n      dup4\n        /* \"#utility.yul\":877:958   */\n      gt\n        /* \"#utility.yul\":872:873   */\n      dup3\n        /* \"#utility.yul\":865:874   */\n      iszero\n        /* \"#utility.yul\":858:875   */\n      iszero\n        /* \"#utility.yul\":854:959   */\n      and\n        /* \"#utility.yul\":851:853   */\n      iszero\n      tag_36\n      jumpi\n        /* \"#utility.yul\":962:980   */\n      tag_37\n      tag_32\n      jump\t// in\n    tag_37:\n        /* \"#utility.yul\":851:853   */\n    tag_36:\n        /* \"#utility.yul\":1010:1011   */\n      dup3\n        /* \"#utility.yul\":1007:1008   */\n      dup3\n        /* \"#utility.yul\":1003:1012   */\n      mul\n        /* \"#utility.yul\":992:1012   */\n      swap1\n      pop\n        /* \"#utility.yul\":718:1018   */\n      swap3\n      swap2\n      pop\n      pop\n      jump\t// out\n        /* \"#utility.yul\":1024:1101   */\n    tag_24:\n      0x00\n        /* \"#utility.yul\":1090:1095   */\n      dup2\n        /* \"#utility.yul\":1079:1095   */\n      swap1\n      pop\n        /* \"#utility.yul\":1069:1101   */\n      swap2\n      swap1\n      pop\n      jump\t// out\n        /* \"#utility.yul\":1107:1287   */\n    tag_32:\n        /* \"#utility.yul\":1155:1232   */\n      0x4e487b7100000000000000000000000000000000000000000000000000000000\n        /* \"#utility.yul\":1152:1153   */\n      0x00\n        /* \"#utility.yul\":1145:1233   */\n      mstore\n        /* \"#utility.yul\":1252:1256   */\n      0x11\n        /* \"#utility.yul\":1249:1250   */\n      0x04\n        /* \"#utility.yul\":1242:1257   */\n      mstore\n        /* \"#utility.yul\":1276:1280   */\n      0x24\n        /* \"#utility.yul\":1273:1274   */\n      0x00\n        /* \"#utility.yul\":1266:1281   */\n      revert\n\n    auxdata: 0xa2646970667358221220085489ff8e5a88c49cfd4b0bbc1d05021a5dfe5091bbb4c3b872604e7e966a3b64736f6c63430008000033\n}\n",
				"bytecode": {
					"linkReferences": {},
					"object": "608060405260036000556009600155600160025534801561001f57600080fd5b506102058061002f6000396000f3fe608060405234801561001057600080fd5b50600436106100365760003560e01c8063a49e0ab11461003b578063cfaf68e114610059575b600080fd5b610043610077565b60405161005091906100cb565b60405180910390f35b6100616100a6565b60405161006e91906100cb565b60405180910390f35b60006002546003610088919061013c565b6001546005610097919061013c565b6100a191906100e6565b905090565b600060016000546100b791906100e6565b905090565b6100c581610196565b82525050565b60006020820190506100e060008301846100bc565b92915050565b60006100f182610196565b91506100fc83610196565b9250827fffffffffffffffffffffffffffffffffffffffffffffffffffffffffffffffff03821115610131576101306101a0565b5b828201905092915050565b600061014782610196565b915061015283610196565b9250817fffffffffffffffffffffffffffffffffffffffffffffffffffffffffffffffff048311821515161561018b5761018a6101a0565b5b828202905092915050565b6000819050919050565b7f4e487b7100000000000000000000000000000000000000000000000000000000600052601160045260246000fdfea2646970667358221220085489ff8e5a88c49cfd4b0bbc1d05021a5dfe5091bbb4c3b872604e7e966a3b64736f6c63430008000033",
					"opcodes": "PUSH1 0x80 PUSH1 0x40 MSTORE PUSH1 0x3 PUSH1 0x0 SSTORE PUSH1 0x9 PUSH1 0x1 SSTORE PUSH1 0x1 PUSH1 0x2 SSTORE CALLVALUE DUP1 ISZERO PUSH2 0x1F JUMPI PUSH1 0x0 DUP1 REVERT JUMPDEST POP PUSH2 0x205 DUP1 PUSH2 0x2F PUSH1 0x0 CODECOPY PUSH1 0x0 RETURN INVALID PUSH1 0x80 PUSH1 0x40 MSTORE CALLVALUE DUP1 ISZERO PUSH2 0x10 JUMPI PUSH1 0x0 DUP1 REVERT JUMPDEST POP PUSH1 0x4 CALLDATASIZE LT PUSH2 0x36 JUMPI PUSH1 0x0 CALLDATALOAD PUSH1 0xE0 SHR DUP1 PUSH4 0xA49E0AB1 EQ PUSH2 0x3B JUMPI DUP1 PUSH4 0xCFAF68E1 EQ PUSH2 0x59 JUMPI JUMPDEST PUSH1 0x0 DUP1 REVERT JUMPDEST PUSH2 0x43 PUSH2 0x77 JUMP JUMPDEST PUSH1 0x40 MLOAD PUSH2 0x50 SWAP2 SWAP1 PUSH2 0xCB JUMP JUMPDEST PUSH1 0x40 MLOAD DUP1 SWAP2 SUB SWAP1 RETURN JUMPDEST PUSH2 0x61 PUSH2 0xA6 JUMP JUMPDEST PUSH1 0x40 MLOAD PUSH2 0x6E SWAP2 SWAP1 PUSH2 0xCB JUMP JUMPDEST PUSH1 0x40 MLOAD DUP1 SWAP2 SUB SWAP1 RETURN JUMPDEST PUSH1 0x0 PUSH1 0x2 SLOAD PUSH1 0x3 PUSH2 0x88 SWAP2 SWAP1 PUSH2 0x13C JUMP JUMPDEST PUSH1 0x1 SLOAD PUSH1 0x5 PUSH2 0x97 SWAP2 SWAP1 PUSH2 0x13C JUMP JUMPDEST PUSH2 0xA1 SWAP2 SWAP1 PUSH2 0xE6 JUMP JUMPDEST SWAP1 POP SWAP1 JUMP JUMPDEST PUSH1 0x0 PUSH1 0x1 PUSH1 0x0 SLOAD PUSH2 0xB7 SWAP2 SWAP1 PUSH2 0xE6 JUMP JUMPDEST SWAP1 POP SWAP1 JUMP JUMPDEST PUSH2 0xC5 DUP2 PUSH2 0x196 JUMP JUMPDEST DUP3 MSTORE POP POP JUMP JUMPDEST PUSH1 0x0 PUSH1 0x20 DUP3 ADD SWAP1 POP PUSH2 0xE0 PUSH1 0x0 DUP4 ADD DUP5 PUSH2 0xBC JUMP JUMPDEST SWAP3 SWAP2 POP POP JUMP JUMPDEST PUSH1 0x0 PUSH2 0xF1 DUP3 PUSH2 0x196 JUMP JUMPDEST SWAP2 POP PUSH2 0xFC DUP4 PUSH2 0x196 JUMP JUMPDEST SWAP3 POP DUP3 PUSH32 0xFFFFFFFFFFFFFFFFFFFFFFFFFFFFFFFFFFFFFFFFFFFFFFFFFFFFFFFFFFFFFFFF SUB DUP3 GT ISZERO PUSH2 0x131 JUMPI PUSH2 0x130 PUSH2 0x1A0 JUMP JUMPDEST JUMPDEST DUP3 DUP3 ADD SWAP1 POP SWAP3 SWAP2 POP POP JUMP JUMPDEST PUSH1 0x0 PUSH2 0x147 DUP3 PUSH2 0x196 JUMP JUMPDEST SWAP2 POP PUSH2 0x152 DUP4 PUSH2 0x196 JUMP JUMPDEST SWAP3 POP DUP2 PUSH32 0xFFFFFFFFFFFFFFFFFFFFFFFFFFFFFFFFFFFFFFFFFFFFFFFFFFFFFFFFFFFFFFFF DIV DUP4 GT DUP3 ISZERO ISZERO AND ISZERO PUSH2 0x18B JUMPI PUSH2 0x18A PUSH2 0x1A0 JUMP JUMPDEST JUMPDEST DUP3 DUP3 MUL SWAP1 POP SWAP3 SWAP2 POP POP JUMP JUMPDEST PUSH1 0x0 DUP2 SWAP1 POP SWAP2 SWAP1 POP JUMP JUMPDEST PUSH32 0x4E487B7100000000000000000000000000000000000000000000000000000000 PUSH1 0x0 MSTORE PUSH1 0x11 PUSH1 0x4 MSTORE PUSH1 0x24 PUSH1 0x0 REVERT INVALID LOG2 PUSH5 0x6970667358 0x22 SLT KECCAK256 ADDMOD SLOAD DUP10 SELFDESTRUCT DUP15 GAS DUP9 0xC4 SWAP13 REVERT 0x4B SIGNEXTEND 0xBC SAR SDIV MUL BYTE 0x5D INVALID POP SWAP2 0xBB 0xB4 0xC3 0xB8 PUSH19 0x604E7E966A3B64736F6C634300080000330000 "
				},
				"gasEstimates": {
					"creation": {
						"codeDepositCost": "103400",
						"executionCost": "60171",
						"totalCost": "163571"
					},
					"external": {
						"aPlusOne()": "infinite",
						"complex()": "infinite"
					}
				},
				"methodIdentifiers": {
					"aPlusOne()": "cfaf68e1",
					"complex()": "a49e0ab1"
				}
			},
			"storageLayout": {
				"storage": [
					{
						"astId": 4,
						"contract": "contracts/02_Opcode.sol:Storage",
						"label": "a",
						"offset": 0,
						"slot": "0",
						"type": "t_uint256"
					},
					{
						"astId": 7,
						"contract": "contracts/02_Opcode.sol:Storage",
						"label": "x",
						"offset": 0,
						"slot": "1",
						"type": "t_uint256"
					},
					{
						"astId": 10,
						"contract": "contracts/02_Opcode.sol:Storage",
						"label": "y",
						"offset": 0,
						"slot": "2",
						"type": "t_uint256"
					}
				],
				"types": {
					"t_uint256": {
						"encoding": "inplace",
						"label": "uint256",
						"numberOfBytes": "32"
					}
				}
			},
			"userdoc": {
				"kind": "user",
				"methods": {},
				"version": 1
			}
		}
	}
}