{
	"contracts/04_UnderAndOverflow.sol": {
		"UnderAndOverflow8plus": {
			"abi": [
				{
					"inputs": [],
					"name": "add156",
					"outputs": [
						{
							"internalType": "uint8",
							"name": "",
							"type": "uint8"
						}
					],
					"stateMutability": "view",
					"type": "function"
				},
				{
					"inputs": [],
					"name": "subtract101",
					"outputs": [
						{
							"internalType": "uint8",
							"name": "",
							"type": "uint8"
						}
					],
					"stateMutability": "view",
					"type": "function"
				}
			],
			"devdoc": {
				"kind": "dev",
				"methods": {},
				"version": 1
			},
			"evm": {
				"assembly": "    /* \"contracts/04_UnderAndOverflow.sol\":347:596  contract UnderAndOverflow8plus {... */\n  mstore(0x40, 0x80)\n    /* \"contracts/04_UnderAndOverflow.sol\":401:404  100 */\n  0x64\n    /* \"contracts/04_UnderAndOverflow.sol\":384:404  uint8 myNumber = 100 */\n  0x00\n  dup1\n  0x0100\n  exp\n  dup2\n  sload\n  dup2\n  0xff\n  mul\n  not\n  and\n  swap1\n  dup4\n  0xff\n  and\n  mul\n  or\n  swap1\n  sstore\n  pop\n    /* \"contracts/04_UnderAndOverflow.sol\":347:596  contract UnderAndOverflow8plus {... */\n  callvalue\n  dup1\n  iszero\n  tag_1\n  jumpi\n  0x00\n  dup1\n  revert\ntag_1:\n  pop\n  dataSize(sub_0)\n  dup1\n  dataOffset(sub_0)\n  0x00\n  codecopy\n  0x00\n  return\nstop\n\nsub_0: assembly {\n        /* \"contracts/04_UnderAndOverflow.sol\":347:596  contract UnderAndOverflow8plus {... */\n      mstore(0x40, 0x80)\n      callvalue\n      dup1\n      iszero\n      tag_1\n      jumpi\n      0x00\n      dup1\n      revert\n    tag_1:\n      pop\n      jumpi(tag_2, lt(calldatasize, 0x04))\n      shr(0xe0, calldataload(0x00))\n      dup1\n      0x2fd39b21\n      eq\n      tag_3\n      jumpi\n      dup1\n      0x8979b7a9\n      eq\n      tag_4\n      jumpi\n    tag_2:\n      0x00\n      dup1\n      revert\n        /* \"contracts/04_UnderAndOverflow.sol\":411:497  function add156() external view returns (uint8) {... */\n    tag_3:\n      tag_5\n      tag_6\n      jump\t// in\n    tag_5:\n      mload(0x40)\n      tag_7\n      swap2\n      swap1\n      tag_8\n      jump\t// in\n    tag_7:\n      mload(0x40)\n      dup1\n      swap2\n      sub\n      swap1\n      return\n        /* \"contracts/04_UnderAndOverflow.sol\":503:594  function subtract101() external view returns (uint8) {... */\n    tag_4:\n      tag_9\n      tag_10\n      jump\t// in\n    tag_9:\n      mload(0x40)\n      tag_11\n      swap2\n      swap1\n      tag_8\n      jump\t// in\n    tag_11:\n      mload(0x40)\n      dup1\n      swap2\n      sub\n      swap1\n      return\n        /* \"contracts/04_UnderAndOverflow.sol\":411:497  function add156() external view returns (uint8) {... */\n    tag_6:\n        /* \"contracts/04_UnderAndOverflow.sol\":452:457  uint8 */\n      0x00\n        /* \"contracts/04_UnderAndOverflow.sol\":487:490  156 */\n      0x9c\n        /* \"contracts/04_UnderAndOverflow.sol\":476:484  myNumber */\n      0x00\n      dup1\n      sload\n      swap1\n      0x0100\n      exp\n      swap1\n      div\n      0xff\n      and\n        /* \"contracts/04_UnderAndOverflow.sol\":476:490  myNumber + 156 */\n      tag_13\n      swap2\n      swap1\n      tag_14\n      jump\t// in\n    tag_13:\n        /* \"contracts/04_UnderAndOverflow.sol\":469:490  return myNumber + 156 */\n      swap1\n      pop\n        /* \"contracts/04_UnderAndOverflow.sol\":411:497  function add156() external view returns (uint8) {... */\n      swap1\n      jump\t// out\n        /* \"contracts/04_UnderAndOverflow.sol\":503:594  function subtract101() external view returns (uint8) {... */\n    tag_10:\n        /* \"contracts/04_UnderAndOverflow.sol\":549:554  uint8 */\n      0x00\n        /* \"contracts/04_UnderAndOverflow.sol\":584:587  101 */\n      0x65\n        /* \"contracts/04_UnderAndOverflow.sol\":573:581  myNumber */\n      0x00\n      dup1\n      sload\n      swap1\n      0x0100\n      exp\n      swap1\n      div\n      0xff\n      and\n        /* \"contracts/04_UnderAndOverflow.sol\":573:587  myNumber - 101 */\n      tag_16\n      swap2\n      swap1\n      tag_17\n      jump\t// in\n    tag_16:\n        /* \"contracts/04_UnderAndOverflow.sol\":566:587  return myNumber - 101 */\n      swap1\n      pop\n        /* \"contracts/04_UnderAndOverflow.sol\":503:594  function subtract101() external view returns (uint8) {... */\n      swap1\n      jump\t// out\n        /* \"#utility.yul\":7:119   */\n    tag_19:\n        /* \"#utility.yul\":90:112   */\n      tag_21\n        /* \"#utility.yul\":106:111   */\n      dup2\n        /* \"#utility.yul\":90:112   */\n      tag_22\n      jump\t// in\n    tag_21:\n        /* \"#utility.yul\":85:88   */\n      dup3\n        /* \"#utility.yul\":78:113   */\n      mstore\n        /* \"#utility.yul\":68:119   */\n      pop\n      pop\n      jump\t// out\n        /* \"#utility.yul\":125:339   */\n    tag_8:\n      0x00\n        /* \"#utility.yul\":252:254   */\n      0x20\n        /* \"#utility.yul\":241:250   */\n      dup3\n        /* \"#utility.yul\":237:255   */\n      add\n        /* \"#utility.yul\":229:255   */\n      swap1\n      pop\n        /* \"#utility.yul\":265:332   */\n      tag_24\n        /* \"#utility.yul\":329:330   */\n      0x00\n        /* \"#utility.yul\":318:327   */\n      dup4\n        /* \"#utility.yul\":314:331   */\n      add\n        /* \"#utility.yul\":305:311   */\n      dup5\n        /* \"#utility.yul\":265:332   */\n      tag_19\n      jump\t// in\n    tag_24:\n        /* \"#utility.yul\":219:339   */\n      swap3\n      swap2\n      pop\n      pop\n      jump\t// out\n        /* \"#utility.yul\":345:582   */\n    tag_14:\n      0x00\n        /* \"#utility.yul\":402:420   */\n      tag_26\n        /* \"#utility.yul\":418:419   */\n      dup3\n        /* \"#utility.yul\":402:420   */\n      tag_22\n      jump\t// in\n    tag_26:\n        /* \"#utility.yul\":397:420   */\n      swap2\n      pop\n        /* \"#utility.yul\":434:452   */\n      tag_27\n        /* \"#utility.yul\":450:451   */\n      dup4\n        /* \"#utility.yul\":434:452   */\n      tag_22\n      jump\t// in\n    tag_27:\n        /* \"#utility.yul\":429:452   */\n      swap3\n      pop\n        /* \"#utility.yul\":524:525   */\n      dup3\n        /* \"#utility.yul\":518:522   */\n      0xff\n        /* \"#utility.yul\":514:526   */\n      sub\n        /* \"#utility.yul\":511:512   */\n      dup3\n        /* \"#utility.yul\":508:527   */\n      gt\n        /* \"#utility.yul\":505:507   */\n      iszero\n      tag_28\n      jumpi\n        /* \"#utility.yul\":530:548   */\n      tag_29\n      tag_30\n      jump\t// in\n    tag_29:\n        /* \"#utility.yul\":505:507   */\n    tag_28:\n        /* \"#utility.yul\":574:575   */\n      dup3\n        /* \"#utility.yul\":571:572   */\n      dup3\n        /* \"#utility.yul\":567:576   */\n      add\n        /* \"#utility.yul\":560:576   */\n      swap1\n      pop\n        /* \"#utility.yul\":387:582   */\n      swap3\n      swap2\n      pop\n      pop\n      jump\t// out\n        /* \"#utility.yul\":588:773   */\n    tag_17:\n      0x00\n        /* \"#utility.yul\":646:664   */\n      tag_32\n        /* \"#utility.yul\":662:663   */\n      dup3\n        /* \"#utility.yul\":646:664   */\n      tag_22\n      jump\t// in\n    tag_32:\n        /* \"#utility.yul\":641:664   */\n      swap2\n      pop\n        /* \"#utility.yul\":678:696   */\n      tag_33\n        /* \"#utility.yul\":694:695   */\n      dup4\n        /* \"#utility.yul\":678:696   */\n      tag_22\n      jump\t// in\n    tag_33:\n        /* \"#utility.yul\":673:696   */\n      swap3\n      pop\n        /* \"#utility.yul\":715:716   */\n      dup3\n        /* \"#utility.yul\":712:713   */\n      dup3\n        /* \"#utility.yul\":709:717   */\n      lt\n        /* \"#utility.yul\":706:708   */\n      iszero\n      tag_34\n      jumpi\n        /* \"#utility.yul\":720:738   */\n      tag_35\n      tag_30\n      jump\t// in\n    tag_35:\n        /* \"#utility.yul\":706:708   */\n    tag_34:\n        /* \"#utility.yul\":765:766   */\n      dup3\n        /* \"#utility.yul\":762:763   */\n      dup3\n        /* \"#utility.yul\":758:767   */\n      sub\n        /* \"#utility.yul\":750:767   */\n      swap1\n      pop\n        /* \"#utility.yul\":631:773   */\n      swap3\n      swap2\n      pop\n      pop\n      jump\t// out\n        /* \"#utility.yul\":779:865   */\n    tag_22:\n      0x00\n        /* \"#utility.yul\":854:858   */\n      0xff\n        /* \"#utility.yul\":847:852   */\n      dup3\n        /* \"#utility.yul\":843:859   */\n      and\n        /* \"#utility.yul\":832:859   */\n      swap1\n      pop\n        /* \"#utility.yul\":822:865   */\n      swap2\n      swap1\n      pop\n      jump\t// out\n        /* \"#utility.yul\":871:1051   */\n    tag_30:\n        /* \"#utility.yul\":919:996   */\n      0x4e487b7100000000000000000000000000000000000000000000000000000000\n        /* \"#utility.yul\":916:917   */\n      0x00\n        /* \"#utility.yul\":909:997   */\n      mstore\n        /* \"#utility.yul\":1016:1020   */\n      0x11\n        /* \"#utility.yul\":1013:1014   */\n      0x04\n        /* \"#utility.yul\":1006:1021   */\n      mstore\n        /* \"#utility.yul\":1040:1044   */\n      0x24\n        /* \"#utility.yul\":1037:1038   */\n      0x00\n        /* \"#utility.yul\":1030:1045   */\n      revert\n\n    auxdata: 0xa2646970667358221220180686883eba9b3cccdf16b8d1c1548ff0553cec2e4b51900c4c005314a13f0f64736f6c63430008000033\n}\n",
				"bytecode": {
					"linkReferences": {},
					"object": "608060405260646000806101000a81548160ff021916908360ff16021790555034801561002b57600080fd5b506101c08061003b6000396000f3fe608060405234801561001057600080fd5b50600436106100365760003560e01c80632fd39b211461003b5780638979b7a914610059575b600080fd5b610043610077565b60405161005091906100c8565b60405180910390f35b610061610098565b60405161006e91906100c8565b60405180910390f35b6000609c60008054906101000a900460ff1661009391906100e3565b905090565b6000606560008054906101000a900460ff166100b4919061011a565b905090565b6100c28161014e565b82525050565b60006020820190506100dd60008301846100b9565b92915050565b60006100ee8261014e565b91506100f98361014e565b92508260ff0382111561010f5761010e61015b565b5b828201905092915050565b60006101258261014e565b91506101308361014e565b9250828210156101435761014261015b565b5b828203905092915050565b600060ff82169050919050565b7f4e487b7100000000000000000000000000000000000000000000000000000000600052601160045260246000fdfea2646970667358221220180686883eba9b3cccdf16b8d1c1548ff0553cec2e4b51900c4c005314a13f0f64736f6c63430008000033",
					"opcodes": "PUSH1 0x80 PUSH1 0x40 MSTORE PUSH1 0x64 PUSH1 0x0 DUP1 PUSH2 0x100 EXP DUP2 SLOAD DUP2 PUSH1 0xFF MUL NOT AND SWAP1 DUP4 PUSH1 0xFF AND MUL OR SWAP1 SSTORE POP CALLVALUE DUP1 ISZERO PUSH2 0x2B JUMPI PUSH1 0x0 DUP1 REVERT JUMPDEST POP PUSH2 0x1C0 DUP1 PUSH2 0x3B PUSH1 0x0 CODECOPY PUSH1 0x0 RETURN INVALID PUSH1 0x80 PUSH1 0x40 MSTORE CALLVALUE DUP1 ISZERO PUSH2 0x10 JUMPI PUSH1 0x0 DUP1 REVERT JUMPDEST POP PUSH1 0x4 CALLDATASIZE LT PUSH2 0x36 JUMPI PUSH1 0x0 CALLDATALOAD PUSH1 0xE0 SHR DUP1 PUSH4 0x2FD39B21 EQ PUSH2 0x3B JUMPI DUP1 PUSH4 0x8979B7A9 EQ PUSH2 0x59 JUMPI JUMPDEST PUSH1 0x0 DUP1 REVERT JUMPDEST PUSH2 0x43 PUSH2 0x77 JUMP JUMPDEST PUSH1 0x40 MLOAD PUSH2 0x50 SWAP2 SWAP1 PUSH2 0xC8 JUMP JUMPDEST PUSH1 0x40 MLOAD DUP1 SWAP2 SUB SWAP1 RETURN JUMPDEST PUSH2 0x61 PUSH2 0x98 JUMP JUMPDEST PUSH1 0x40 MLOAD PUSH2 0x6E SWAP2 SWAP1 PUSH2 0xC8 JUMP JUMPDEST PUSH1 0x40 MLOAD DUP1 SWAP2 SUB SWAP1 RETURN JUMPDEST PUSH1 0x0 PUSH1 0x9C PUSH1 0x0 DUP1 SLOAD SWAP1 PUSH2 0x100 EXP SWAP1 DIV PUSH1 0xFF AND PUSH2 0x93 SWAP2 SWAP1 PUSH2 0xE3 JUMP JUMPDEST SWAP1 POP SWAP1 JUMP JUMPDEST PUSH1 0x0 PUSH1 0x65 PUSH1 0x0 DUP1 SLOAD SWAP1 PUSH2 0x100 EXP SWAP1 DIV PUSH1 0xFF AND PUSH2 0xB4 SWAP2 SWAP1 PUSH2 0x11A JUMP JUMPDEST SWAP1 POP SWAP1 JUMP JUMPDEST PUSH2 0xC2 DUP2 PUSH2 0x14E JUMP JUMPDEST DUP3 MSTORE POP POP JUMP JUMPDEST PUSH1 0x0 PUSH1 0x20 DUP3 ADD SWAP1 POP PUSH2 0xDD PUSH1 0x0 DUP4 ADD DUP5 PUSH2 0xB9 JUMP JUMPDEST SWAP3 SWAP2 POP POP JUMP JUMPDEST PUSH1 0x0 PUSH2 0xEE DUP3 PUSH2 0x14E JUMP JUMPDEST SWAP2 POP PUSH2 0xF9 DUP4 PUSH2 0x14E JUMP JUMPDEST SWAP3 POP DUP3 PUSH1 0xFF SUB DUP3 GT ISZERO PUSH2 0x10F JUMPI PUSH2 0x10E PUSH2 0x15B JUMP JUMPDEST JUMPDEST DUP3 DUP3 ADD SWAP1 POP SWAP3 SWAP2 POP POP JUMP JUMPDEST PUSH1 0x0 PUSH2 0x125 DUP3 PUSH2 0x14E JUMP JUMPDEST SWAP2 POP PUSH2 0x130 DUP4 PUSH2 0x14E JUMP JUMPDEST SWAP3 POP DUP3 DUP3 LT ISZERO PUSH2 0x143 JUMPI PUSH2 0x142 PUSH2 0x15B JUMP JUMPDEST JUMPDEST DUP3 DUP3 SUB SWAP1 POP SWAP3 SWAP2 POP POP JUMP JUMPDEST PUSH1 0x0 PUSH1 0xFF DUP3 AND SWAP1 POP SWAP2 SWAP1 POP JUMP JUMPDEST PUSH32 0x4E487B7100000000000000000000000000000000000000000000000000000000 PUSH1 0x0 MSTORE PUSH1 0x11 PUSH1 0x4 MSTORE PUSH1 0x24 PUSH1 0x0 REVERT INVALID LOG2 PUSH5 0x6970667358 0x22 SLT KECCAK256 XOR MOD DUP7 DUP9 RETURNDATACOPY 0xBA SWAP12 EXTCODECOPY 0xCC 0xDF AND 0xB8 0xD1 0xC1 SLOAD DUP16 CREATE SSTORE EXTCODECOPY 0xEC 0x2E 0x4B MLOAD SWAP1 0xC 0x4C STOP MSTORE8 EQ LOG1 EXTCODEHASH 0xF PUSH5 0x736F6C6343 STOP ADDMOD STOP STOP CALLER "
				},
				"gasEstimates": {
					"creation": {
						"codeDepositCost": "89600",
						"executionCost": "21002",
						"totalCost": "110602"
					},
					"external": {
						"add156()": "infinite",
						"subtract101()": "infinite"
					}
				},
				"methodIdentifiers": {
					"add156()": "2fd39b21",
					"subtract101()": "8979b7a9"
				}
			},
			"storageLayout": {
				"storage": [
					{
						"astId": 28,
						"contract": "contracts/04_UnderAndOverflow.sol:UnderAndOverflow8plus",
						"label": "myNumber",
						"offset": 0,
						"slot": "0",
						"type": "t_uint8"
					}
				],
				"types": {
					"t_uint8": {
						"encoding": "inplace",
						"label": "uint8",
						"numberOfBytes": "1"
					}
				}
			},
			"userdoc": {
				"kind": "user",
				"methods": {},
				"version": 1
			}
		}
	}
}