{
	"contracts/18_FunctionNames.sol": {
		"FunctionName": {
			"abi": [
				{
					"inputs": [],
					"name": "blue",
					"outputs": [
						{
							"internalType": "uint256",
							"name": "",
							"type": "uint256"
						}
					],
					"stateMutability": "pure",
					"type": "function"
				},
				{
					"inputs": [],
					"name": "green",
					"outputs": [
						{
							"internalType": "uint256",
							"name": "",
							"type": "uint256"
						}
					],
					"stateMutability": "pure",
					"type": "function"
				},
				{
					"inputs": [],
					"name": "red",
					"outputs": [
						{
							"internalType": "uint256",
							"name": "",
							"type": "uint256"
						}
					],
					"stateMutability": "pure",
					"type": "function"
				}
			],
			"devdoc": {
				"kind": "dev",
				"methods": {},
				"version": 1
			},
			"evm": {
				"assembly": "    /* \"contracts/18_FunctionNames.sol\":58:12779  contract FunctionName{... */\n  mstore(0x40, 0x80)\n  callvalue\n  dup1\n  iszero\n  tag_1\n  jumpi\n  0x00\n  dup1\n  revert\ntag_1:\n  pop\n  dataSize(sub_0)\n  dup1\n  dataOffset(sub_0)\n  0x00\n  codecopy\n  0x00\n  return\nstop\n\nsub_0: assembly {\n        /* \"contracts/18_FunctionNames.sol\":58:12779  contract FunctionName{... */\n      mstore(0x40, 0x80)\n      callvalue\n      dup1\n      iszero\n      tag_1\n      jumpi\n      0x00\n      dup1\n      revert\n    tag_1:\n      pop\n      jumpi(tag_2, lt(calldatasize, 0x04))\n      shr(0xe0, calldataload(0x00))\n      dup1\n      0x2930cf24\n      eq\n      tag_3\n      jumpi\n      dup1\n      0xed18f0a7\n      eq\n      tag_4\n      jumpi\n      dup1\n      0xf2f1e132\n      eq\n      tag_5\n      jumpi\n    tag_2:\n      0x00\n      dup1\n      revert\n        /* \"contracts/18_FunctionNames.sol\":12465:12534  function red()external pure returns(uint256){... */\n    tag_3:\n      tag_6\n      tag_7\n      jump\t// in\n    tag_6:\n      mload(0x40)\n      tag_8\n      swap2\n      swap1\n      tag_9\n      jump\t// in\n    tag_8:\n      mload(0x40)\n      dup1\n      swap2\n      sub\n      swap1\n      return\n        /* \"contracts/18_FunctionNames.sol\":12585:12655  function blue()external pure returns(uint256){... */\n    tag_4:\n      tag_10\n      tag_11\n      jump\t// in\n    tag_10:\n      mload(0x40)\n      tag_12\n      swap2\n      swap1\n      tag_9\n      jump\t// in\n    tag_12:\n      mload(0x40)\n      dup1\n      swap2\n      sub\n      swap1\n      return\n        /* \"contracts/18_FunctionNames.sol\":12706:12777  function green()external pure returns(uint256){... */\n    tag_5:\n      tag_13\n      tag_14\n      jump\t// in\n    tag_13:\n      mload(0x40)\n      tag_15\n      swap2\n      swap1\n      tag_9\n      jump\t// in\n    tag_15:\n      mload(0x40)\n      dup1\n      swap2\n      sub\n      swap1\n      return\n        /* \"contracts/18_FunctionNames.sol\":12465:12534  function red()external pure returns(uint256){... */\n    tag_7:\n        /* \"contracts/18_FunctionNames.sol\":12501:12508  uint256 */\n      0x00\n        /* \"contracts/18_FunctionNames.sol\":12526:12527  1 */\n      0x01\n        /* \"contracts/18_FunctionNames.sol\":12519:12527  return 1 */\n      swap1\n      pop\n        /* \"contracts/18_FunctionNames.sol\":12465:12534  function red()external pure returns(uint256){... */\n      swap1\n      jump\t// out\n        /* \"contracts/18_FunctionNames.sol\":12585:12655  function blue()external pure returns(uint256){... */\n    tag_11:\n        /* \"contracts/18_FunctionNames.sol\":12622:12629  uint256 */\n      0x00\n        /* \"contracts/18_FunctionNames.sol\":12647:12648  1 */\n      0x01\n        /* \"contracts/18_FunctionNames.sol\":12640:12648  return 1 */\n      swap1\n      pop\n        /* \"contracts/18_FunctionNames.sol\":12585:12655  function blue()external pure returns(uint256){... */\n      swap1\n      jump\t// out\n        /* \"contracts/18_FunctionNames.sol\":12706:12777  function green()external pure returns(uint256){... */\n    tag_14:\n        /* \"contracts/18_FunctionNames.sol\":12744:12751  uint256 */\n      0x00\n        /* \"contracts/18_FunctionNames.sol\":12769:12770  1 */\n      0x01\n        /* \"contracts/18_FunctionNames.sol\":12762:12770  return 1 */\n      swap1\n      pop\n        /* \"contracts/18_FunctionNames.sol\":12706:12777  function green()external pure returns(uint256){... */\n      swap1\n      jump\t// out\n        /* \"#utility.yul\":7:84   */\n    tag_19:\n        /* \"#utility.yul\":44:51   */\n      0x00\n        /* \"#utility.yul\":73:78   */\n      dup2\n        /* \"#utility.yul\":62:78   */\n      swap1\n      pop\n        /* \"#utility.yul\":7:84   */\n      swap2\n      swap1\n      pop\n      jump\t// out\n        /* \"#utility.yul\":90:208   */\n    tag_20:\n        /* \"#utility.yul\":177:201   */\n      tag_24\n        /* \"#utility.yul\":195:200   */\n      dup2\n        /* \"#utility.yul\":177:201   */\n      tag_19\n      jump\t// in\n    tag_24:\n        /* \"#utility.yul\":172:175   */\n      dup3\n        /* \"#utility.yul\":165:202   */\n      mstore\n        /* \"#utility.yul\":90:208   */\n      pop\n      pop\n      jump\t// out\n        /* \"#utility.yul\":214:436   */\n    tag_9:\n        /* \"#utility.yul\":307:311   */\n      0x00\n        /* \"#utility.yul\":345:347   */\n      0x20\n        /* \"#utility.yul\":334:343   */\n      dup3\n        /* \"#utility.yul\":330:348   */\n      add\n        /* \"#utility.yul\":322:348   */\n      swap1\n      pop\n        /* \"#utility.yul\":358:429   */\n      tag_26\n        /* \"#utility.yul\":426:427   */\n      0x00\n        /* \"#utility.yul\":415:424   */\n      dup4\n        /* \"#utility.yul\":411:428   */\n      add\n        /* \"#utility.yul\":402:408   */\n      dup5\n        /* \"#utility.yul\":358:429   */\n      tag_20\n      jump\t// in\n    tag_26:\n        /* \"#utility.yul\":214:436   */\n      swap3\n      swap2\n      pop\n      pop\n      jump\t// out\n\n    auxdata: 0xa2646970667358221220904313dde67f41c44f716a6db13639586f8169c8d7e398c75a295d635738314c64736f6c63430008140033\n}\n",
				"bytecode": {
					"linkReferences": {},
					"object": "608060405234801561000f575f80fd5b506101078061001d5f395ff3fe6080604052348015600e575f80fd5b5060043610603a575f3560e01c80632930cf2414603e578063ed18f0a7146058578063f2f1e132146072575b5f80fd5b6044608c565b604051604f919060ba565b60405180910390f35b605e6094565b6040516069919060ba565b60405180910390f35b6078609c565b6040516083919060ba565b60405180910390f35b5f6001905090565b5f6001905090565b5f6001905090565b5f819050919050565b60b48160a4565b82525050565b5f60208201905060cb5f83018460ad565b9291505056fea2646970667358221220904313dde67f41c44f716a6db13639586f8169c8d7e398c75a295d635738314c64736f6c63430008140033",
					"opcodes": "PUSH1 0x80 PUSH1 0x40 MSTORE CALLVALUE DUP1 ISZERO PUSH2 0xF JUMPI PUSH0 DUP1 REVERT JUMPDEST POP PUSH2 0x107 DUP1 PUSH2 0x1D PUSH0 CODECOPY PUSH0 RETURN INVALID PUSH1 0x80 PUSH1 0x40 MSTORE CALLVALUE DUP1 ISZERO PUSH1 0xE JUMPI PUSH0 DUP1 REVERT JUMPDEST POP PUSH1 0x4 CALLDATASIZE LT PUSH1 0x3A JUMPI PUSH0 CALLDATALOAD PUSH1 0xE0 SHR DUP1 PUSH4 0x2930CF24 EQ PUSH1 0x3E JUMPI DUP1 PUSH4 0xED18F0A7 EQ PUSH1 0x58 JUMPI DUP1 PUSH4 0xF2F1E132 EQ PUSH1 0x72 JUMPI JUMPDEST PUSH0 DUP1 REVERT JUMPDEST PUSH1 0x44 PUSH1 0x8C JUMP JUMPDEST PUSH1 0x40 MLOAD PUSH1 0x4F SWAP2 SWAP1 PUSH1 0xBA JUMP JUMPDEST PUSH1 0x40 MLOAD DUP1 SWAP2 SUB SWAP1 RETURN JUMPDEST PUSH1 0x5E PUSH1 0x94 JUMP JUMPDEST PUSH1 0x40 MLOAD PUSH1 0x69 SWAP2 SWAP1 PUSH1 0xBA JUMP JUMPDEST PUSH1 0x40 MLOAD DUP1 SWAP2 SUB SWAP1 RETURN JUMPDEST PUSH1 0x78 PUSH1 0x9C JUMP JUMPDEST PUSH1 0x40 MLOAD PUSH1 0x83 SWAP2 SWAP1 PUSH1 0xBA JUMP JUMPDEST PUSH1 0x40 MLOAD DUP1 SWAP2 SUB SWAP1 RETURN JUMPDEST PUSH0 PUSH1 0x1 SWAP1 POP SWAP1 JUMP JUMPDEST PUSH0 PUSH1 0x1 SWAP1 POP SWAP1 JUMP JUMPDEST PUSH0 PUSH1 0x1 SWAP1 POP SWAP1 JUMP JUMPDEST PUSH0 DUP2 SWAP1 POP SWAP2 SWAP1 POP JUMP JUMPDEST PUSH1 0xB4 DUP2 PUSH1 0xA4 JUMP JUMPDEST DUP3 MSTORE POP POP JUMP JUMPDEST PUSH0 PUSH1 0x20 DUP3 ADD SWAP1 POP PUSH1 0xCB PUSH0 DUP4 ADD DUP5 PUSH1 0xAD JUMP JUMPDEST SWAP3 SWAP2 POP POP JUMP INVALID LOG2 PUSH5 0x6970667358 0x22 SLT KECCAK256 SWAP1 NUMBER SGT 0xDD 0xE6 PUSH32 0x41C44F716A6DB13639586F8169C8D7E398C75A295D635738314C64736F6C6343 STOP ADDMOD EQ STOP CALLER "
				},
				"gasEstimates": {
					"creation": {
						"codeDepositCost": "52600",
						"executionCost": "103",
						"totalCost": "52703"
					},
					"external": {
						"blue()": "332",
						"green()": "354",
						"red()": "310"
					}
				},
				"methodIdentifiers": {
					"blue()": "ed18f0a7",
					"green()": "f2f1e132",
					"red()": "2930cf24"
				}
			},
			"storageLayout": {
				"storage": [],
				"types": null
			},
			"userdoc": {
				"kind": "user",
				"methods": {},
				"version": 1
			}
		}
	}
}