{
	"contracts/13_VariablePacking.sol": {
		"VariablePackingV1": {
			"abi": [
				{
					"inputs": [],
					"name": "getAuint128",
					"outputs": [
						{
							"internalType": "uint128",
							"name": "",
							"type": "uint128"
						}
					],
					"stateMutability": "view",
					"type": "function"
				},
				{
					"inputs": [],
					"name": "getAuint256",
					"outputs": [
						{
							"internalType": "uint256",
							"name": "",
							"type": "uint256"
						}
					],
					"stateMutability": "view",
					"type": "function"
				},
				{
					"inputs": [],
					"name": "getBuint128",
					"outputs": [
						{
							"internalType": "uint128",
							"name": "",
							"type": "uint128"
						}
					],
					"stateMutability": "view",
					"type": "function"
				},
				{
					"inputs": [],
					"name": "getBuint256",
					"outputs": [
						{
							"internalType": "uint256",
							"name": "",
							"type": "uint256"
						}
					],
					"stateMutability": "view",
					"type": "function"
				},
				{
					"inputs": [],
					"name": "getOffsetAuint128",
					"outputs": [
						{
							"internalType": "uint256",
							"name": "a1Offset",
							"type": "uint256"
						}
					],
					"stateMutability": "pure",
					"type": "function"
				},
				{
					"inputs": [],
					"name": "getOffsetAuint256",
					"outputs": [
						{
							"internalType": "uint256",
							"name": "a2Offset",
							"type": "uint256"
						}
					],
					"stateMutability": "pure",
					"type": "function"
				},
				{
					"inputs": [],
					"name": "getOffsetBuint128",
					"outputs": [
						{
							"internalType": "uint256",
							"name": "b1Offset",
							"type": "uint256"
						}
					],
					"stateMutability": "pure",
					"type": "function"
				},
				{
					"inputs": [],
					"name": "getOffsetBuint256",
					"outputs": [
						{
							"internalType": "uint256",
							"name": "b2Offset",
							"type": "uint256"
						}
					],
					"stateMutability": "pure",
					"type": "function"
				},
				{
					"inputs": [],
					"name": "getSlotAuint128",
					"outputs": [
						{
							"internalType": "uint256",
							"name": "value",
							"type": "uint256"
						}
					],
					"stateMutability": "pure",
					"type": "function"
				},
				{
					"inputs": [],
					"name": "getSlotAuint256",
					"outputs": [
						{
							"internalType": "uint256",
							"name": "value",
							"type": "uint256"
						}
					],
					"stateMutability": "pure",
					"type": "function"
				},
				{
					"inputs": [],
					"name": "getSlotBuint128",
					"outputs": [
						{
							"internalType": "uint256",
							"name": "value",
							"type": "uint256"
						}
					],
					"stateMutability": "pure",
					"type": "function"
				},
				{
					"inputs": [],
					"name": "getSlotBuint256",
					"outputs": [
						{
							"internalType": "uint256",
							"name": "value",
							"type": "uint256"
						}
					],
					"stateMutability": "pure",
					"type": "function"
				},
				{
					"inputs": [],
					"name": "loadSlot0uint128",
					"outputs": [
						{
							"internalType": "bytes32",
							"name": "value",
							"type": "bytes32"
						}
					],
					"stateMutability": "view",
					"type": "function"
				}
			],
			"devdoc": {
				"kind": "dev",
				"methods": {},
				"version": 1
			},
			"evm": {
				"assembly": "    /* \"contracts/13_VariablePacking.sol\":58:2323  contract VariablePackingV1 {... */\n  mstore(0x40, 0x80)\n    /* \"contracts/13_VariablePacking.sol\":316:317  1 */\n  0x01\n    /* \"contracts/13_VariablePacking.sol\":295:317  uint128 private a1 = 1 */\n  0x00\n  dup1\n  0x0100\n  exp\n  dup2\n  sload\n  dup2\n  0xffffffffffffffffffffffffffffffff\n  mul\n  not\n  and\n  swap1\n  dup4\n  0xffffffffffffffffffffffffffffffff\n  and\n  mul\n  or\n  swap1\n  sstore\n  pop\n    /* \"contracts/13_VariablePacking.sol\":344:345  2 */\n  0x02\n    /* \"contracts/13_VariablePacking.sol\":323:345  uint128 private b1 = 2 */\n  0x00\n  exp(0x0100, 0x10)\n  dup2\n  sload\n  dup2\n  0xffffffffffffffffffffffffffffffff\n  mul\n  not\n  and\n  swap1\n  dup4\n  0xffffffffffffffffffffffffffffffff\n  and\n  mul\n  or\n  swap1\n  sstore\n  pop\n    /* \"contracts/13_VariablePacking.sol\":1597:1598  1 */\n  0x01\n    /* \"contracts/13_VariablePacking.sol\":1576:1598  uint256 private a2 = 1 */\n  dup1\n  sstore\n    /* \"contracts/13_VariablePacking.sol\":1625:1626  2 */\n  0x02\n    /* \"contracts/13_VariablePacking.sol\":1604:1626  uint256 private b2 = 2 */\n  dup1\n  sstore\n    /* \"contracts/13_VariablePacking.sol\":58:2323  contract VariablePackingV1 {... */\n  callvalue\n  dup1\n  iszero\n  tag_1\n  jumpi\n  0x00\n  dup1\n  revert\ntag_1:\n  pop\n  dataSize(sub_0)\n  dup1\n  dataOffset(sub_0)\n  0x00\n  codecopy\n  0x00\n  return\nstop\n\nsub_0: assembly {\n        /* \"contracts/13_VariablePacking.sol\":58:2323  contract VariablePackingV1 {... */\n      mstore(0x40, 0x80)\n      callvalue\n      dup1\n      iszero\n      tag_1\n      jumpi\n      0x00\n      dup1\n      revert\n    tag_1:\n      pop\n      jumpi(tag_2, lt(calldatasize, 0x04))\n      shr(0xe0, calldataload(0x00))\n      dup1\n      0x7304f884\n      gt\n      tag_16\n      jumpi\n      dup1\n      0xaaf5c3e0\n      gt\n      tag_17\n      jumpi\n      dup1\n      0xaaf5c3e0\n      eq\n      tag_12\n      jumpi\n      dup1\n      0xcb7d93ba\n      eq\n      tag_13\n      jumpi\n      dup1\n      0xec6f4a16\n      eq\n      tag_14\n      jumpi\n      dup1\n      0xf47f8d41\n      eq\n      tag_15\n      jumpi\n      jump(tag_2)\n    tag_17:\n      dup1\n      0x7304f884\n      eq\n      tag_9\n      jumpi\n      dup1\n      0x8525e465\n      eq\n      tag_10\n      jumpi\n      dup1\n      0x944c2679\n      eq\n      tag_11\n      jumpi\n      jump(tag_2)\n    tag_16:\n      dup1\n      0x08905c19\n      eq\n      tag_3\n      jumpi\n      dup1\n      0x3ca28f95\n      eq\n      tag_4\n      jumpi\n      dup1\n      0x3fbe3709\n      eq\n      tag_5\n      jumpi\n      dup1\n      0x4453aab8\n      eq\n      tag_6\n      jumpi\n      dup1\n      0x54117a76\n      eq\n      tag_7\n      jumpi\n      dup1\n      0x6b00e4c1\n      eq\n      tag_8\n      jumpi\n    tag_2:\n      0x00\n      dup1\n      revert\n        /* \"contracts/13_VariablePacking.sol\":1948:2029  function getBuint256() external view returns (uint256) {... */\n    tag_3:\n      tag_18\n      tag_19\n      jump\t// in\n    tag_18:\n      mload(0x40)\n      tag_20\n      swap2\n      swap1\n      tag_21\n      jump\t// in\n    tag_20:\n      mload(0x40)\n      dup1\n      swap2\n      sub\n      swap1\n      return\n        /* \"contracts/13_VariablePacking.sol\":716:848  function loadSlot0uint128() external view returns (bytes32 value) {... */\n    tag_4:\n      tag_22\n      tag_23\n      jump\t// in\n    tag_22:\n      mload(0x40)\n      tag_24\n      swap2\n      swap1\n      tag_25\n      jump\t// in\n    tag_24:\n      mload(0x40)\n      dup1\n      swap2\n      sub\n      swap1\n      return\n        /* \"contracts/13_VariablePacking.sol\":941:1022  function getBuint128() external view returns (uint128) {... */\n    tag_5:\n      tag_26\n      tag_27\n      jump\t// in\n    tag_26:\n      mload(0x40)\n      tag_28\n      swap2\n      swap1\n      tag_29\n      jump\t// in\n    tag_28:\n      mload(0x40)\n      dup1\n      swap2\n      sub\n      swap1\n      return\n        /* \"contracts/13_VariablePacking.sol\":2181:2321  function getOffsetBuint256() external pure returns (uint256 b2Offset) {... */\n    tag_6:\n      tag_30\n      tag_31\n      jump\t// in\n    tag_30:\n      mload(0x40)\n      tag_32\n      swap2\n      swap1\n      tag_21\n      jump\t// in\n    tag_32:\n      mload(0x40)\n      dup1\n      swap2\n      sub\n      swap1\n      return\n        /* \"contracts/13_VariablePacking.sol\":1861:1942  function getAuint256() external view returns (uint256) {... */\n    tag_7:\n      tag_33\n      tag_34\n      jump\t// in\n    tag_33:\n      mload(0x40)\n      tag_35\n      swap2\n      swap1\n      tag_21\n      jump\t// in\n    tag_35:\n      mload(0x40)\n      dup1\n      swap2\n      sub\n      swap1\n      return\n        /* \"contracts/13_VariablePacking.sol\":1294:1434  function getOffsetBuint128() external pure returns (uint256 b1Offset) {... */\n    tag_8:\n      tag_36\n      tag_37\n      jump\t// in\n    tag_36:\n      mload(0x40)\n      tag_38\n      swap2\n      swap1\n      tag_21\n      jump\t// in\n    tag_38:\n      mload(0x40)\n      dup1\n      swap2\n      sub\n      swap1\n      return\n        /* \"contracts/13_VariablePacking.sol\":1440:1570  function getSlotAuint256() external pure returns (uint256 value) {... */\n    tag_9:\n      tag_39\n      tag_40\n      jump\t// in\n    tag_39:\n      mload(0x40)\n      tag_41\n      swap2\n      swap1\n      tag_21\n      jump\t// in\n    tag_41:\n      mload(0x40)\n      dup1\n      swap2\n      sub\n      swap1\n      return\n        /* \"contracts/13_VariablePacking.sol\":1148:1288  function getOffsetAuint128() external pure returns (uint256 a1Offset) {... */\n    tag_10:\n      tag_42\n      tag_43\n      jump\t// in\n    tag_42:\n      mload(0x40)\n      tag_44\n      swap2\n      swap1\n      tag_21\n      jump\t// in\n    tag_44:\n      mload(0x40)\n      dup1\n      swap2\n      sub\n      swap1\n      return\n        /* \"contracts/13_VariablePacking.sol\":2035:2175  function getOffsetAuint256() external pure returns (uint256 a2Offset) {... */\n    tag_11:\n      tag_45\n      tag_46\n      jump\t// in\n    tag_45:\n      mload(0x40)\n      tag_47\n      swap2\n      swap1\n      tag_21\n      jump\t// in\n    tag_47:\n      mload(0x40)\n      dup1\n      swap2\n      sub\n      swap1\n      return\n        /* \"contracts/13_VariablePacking.sol\":1679:1809  function getSlotBuint256() external pure returns (uint256 value) {... */\n    tag_12:\n      tag_48\n      tag_49\n      jump\t// in\n    tag_48:\n      mload(0x40)\n      tag_50\n      swap2\n      swap1\n      tag_21\n      jump\t// in\n    tag_50:\n      mload(0x40)\n      dup1\n      swap2\n      sub\n      swap1\n      return\n        /* \"contracts/13_VariablePacking.sol\":398:528  function getSlotAuint128() external pure returns (uint256 value) {... */\n    tag_13:\n      tag_51\n      tag_52\n      jump\t// in\n    tag_51:\n      mload(0x40)\n      tag_53\n      swap2\n      swap1\n      tag_21\n      jump\t// in\n    tag_53:\n      mload(0x40)\n      dup1\n      swap2\n      sub\n      swap1\n      return\n        /* \"contracts/13_VariablePacking.sol\":580:710  function getSlotBuint128() external pure returns (uint256 value) {... */\n    tag_14:\n      tag_54\n      tag_55\n      jump\t// in\n    tag_54:\n      mload(0x40)\n      tag_56\n      swap2\n      swap1\n      tag_21\n      jump\t// in\n    tag_56:\n      mload(0x40)\n      dup1\n      swap2\n      sub\n      swap1\n      return\n        /* \"contracts/13_VariablePacking.sol\":854:935  function getAuint128() external view returns (uint128) {... */\n    tag_15:\n      tag_57\n      tag_58\n      jump\t// in\n    tag_57:\n      mload(0x40)\n      tag_59\n      swap2\n      swap1\n      tag_29\n      jump\t// in\n    tag_59:\n      mload(0x40)\n      dup1\n      swap2\n      sub\n      swap1\n      return\n        /* \"contracts/13_VariablePacking.sol\":1948:2029  function getBuint256() external view returns (uint256) {... */\n    tag_19:\n        /* \"contracts/13_VariablePacking.sol\":1994:2001  uint256 */\n      0x00\n        /* \"contracts/13_VariablePacking.sol\":2020:2022  b2 */\n      sload(0x02)\n        /* \"contracts/13_VariablePacking.sol\":2013:2022  return b2 */\n      swap1\n      pop\n        /* \"contracts/13_VariablePacking.sol\":1948:2029  function getBuint256() external view returns (uint256) {... */\n      swap1\n      jump\t// out\n        /* \"contracts/13_VariablePacking.sol\":716:848  function loadSlot0uint128() external view returns (bytes32 value) {... */\n    tag_23:\n        /* \"contracts/13_VariablePacking.sol\":767:780  bytes32 value */\n      0x00\n        /* \"contracts/13_VariablePacking.sol\":830:831  0 */\n      dup1\n        /* \"contracts/13_VariablePacking.sol\":824:832  sload(0) */\n      sload\n        /* \"contracts/13_VariablePacking.sol\":815:832  value := sload(0) */\n      swap1\n      pop\n        /* \"contracts/13_VariablePacking.sol\":716:848  function loadSlot0uint128() external view returns (bytes32 value) {... */\n      swap1\n      jump\t// out\n        /* \"contracts/13_VariablePacking.sol\":941:1022  function getBuint128() external view returns (uint128) {... */\n    tag_27:\n        /* \"contracts/13_VariablePacking.sol\":987:994  uint128 */\n      0x00\n        /* \"contracts/13_VariablePacking.sol\":1013:1015  b1 */\n      dup1\n      0x10\n      swap1\n      sload\n      swap1\n      0x0100\n      exp\n      swap1\n      div\n      0xffffffffffffffffffffffffffffffff\n      and\n        /* \"contracts/13_VariablePacking.sol\":1006:1015  return b1 */\n      swap1\n      pop\n        /* \"contracts/13_VariablePacking.sol\":941:1022  function getBuint128() external view returns (uint128) {... */\n      swap1\n      jump\t// out\n        /* \"contracts/13_VariablePacking.sol\":2181:2321  function getOffsetBuint256() external pure returns (uint256 b2Offset) {... */\n    tag_31:\n        /* \"contracts/13_VariablePacking.sol\":2233:2249  uint256 b2Offset */\n      0x00\n        /* \"contracts/13_VariablePacking.sol\":2181:2321  function getOffsetBuint256() external pure returns (uint256 b2Offset) {... */\n      swap1\n      jump\t// out\n        /* \"contracts/13_VariablePacking.sol\":1861:1942  function getAuint256() external view returns (uint256) {... */\n    tag_34:\n        /* \"contracts/13_VariablePacking.sol\":1907:1914  uint256 */\n      0x00\n        /* \"contracts/13_VariablePacking.sol\":1933:1935  a2 */\n      sload(0x01)\n        /* \"contracts/13_VariablePacking.sol\":1926:1935  return a2 */\n      swap1\n      pop\n        /* \"contracts/13_VariablePacking.sol\":1861:1942  function getAuint256() external view returns (uint256) {... */\n      swap1\n      jump\t// out\n        /* \"contracts/13_VariablePacking.sol\":1294:1434  function getOffsetBuint128() external pure returns (uint256 b1Offset) {... */\n    tag_37:\n        /* \"contracts/13_VariablePacking.sol\":1346:1362  uint256 b1Offset */\n      0x00\n        /* \"contracts/13_VariablePacking.sol\":1409:1418  b1.offset */\n      0x10\n        /* \"contracts/13_VariablePacking.sol\":1397:1418  b1Offset := b1.offset */\n      swap1\n      pop\n        /* \"contracts/13_VariablePacking.sol\":1294:1434  function getOffsetBuint128() external pure returns (uint256 b1Offset) {... */\n      swap1\n      jump\t// out\n        /* \"contracts/13_VariablePacking.sol\":1440:1570  function getSlotAuint256() external pure returns (uint256 value) {... */\n    tag_40:\n        /* \"contracts/13_VariablePacking.sol\":1490:1503  uint256 value */\n      0x00\n        /* \"contracts/13_VariablePacking.sol\":1547:1554  a2.slot */\n      0x01\n        /* \"contracts/13_VariablePacking.sol\":1538:1554  value := a2.slot */\n      swap1\n      pop\n        /* \"contracts/13_VariablePacking.sol\":1440:1570  function getSlotAuint256() external pure returns (uint256 value) {... */\n      swap1\n      jump\t// out\n        /* \"contracts/13_VariablePacking.sol\":1148:1288  function getOffsetAuint128() external pure returns (uint256 a1Offset) {... */\n    tag_43:\n        /* \"contracts/13_VariablePacking.sol\":1200:1216  uint256 a1Offset */\n      0x00\n        /* \"contracts/13_VariablePacking.sol\":1148:1288  function getOffsetAuint128() external pure returns (uint256 a1Offset) {... */\n      swap1\n      jump\t// out\n        /* \"contracts/13_VariablePacking.sol\":2035:2175  function getOffsetAuint256() external pure returns (uint256 a2Offset) {... */\n    tag_46:\n        /* \"contracts/13_VariablePacking.sol\":2087:2103  uint256 a2Offset */\n      0x00\n        /* \"contracts/13_VariablePacking.sol\":2035:2175  function getOffsetAuint256() external pure returns (uint256 a2Offset) {... */\n      swap1\n      jump\t// out\n        /* \"contracts/13_VariablePacking.sol\":1679:1809  function getSlotBuint256() external pure returns (uint256 value) {... */\n    tag_49:\n        /* \"contracts/13_VariablePacking.sol\":1729:1742  uint256 value */\n      0x00\n        /* \"contracts/13_VariablePacking.sol\":1786:1793  b2.slot */\n      0x02\n        /* \"contracts/13_VariablePacking.sol\":1777:1793  value := b2.slot */\n      swap1\n      pop\n        /* \"contracts/13_VariablePacking.sol\":1679:1809  function getSlotBuint256() external pure returns (uint256 value) {... */\n      swap1\n      jump\t// out\n        /* \"contracts/13_VariablePacking.sol\":398:528  function getSlotAuint128() external pure returns (uint256 value) {... */\n    tag_52:\n        /* \"contracts/13_VariablePacking.sol\":448:461  uint256 value */\n      0x00\n        /* \"contracts/13_VariablePacking.sol\":398:528  function getSlotAuint128() external pure returns (uint256 value) {... */\n      swap1\n      jump\t// out\n        /* \"contracts/13_VariablePacking.sol\":580:710  function getSlotBuint128() external pure returns (uint256 value) {... */\n    tag_55:\n        /* \"contracts/13_VariablePacking.sol\":630:643  uint256 value */\n      0x00\n        /* \"contracts/13_VariablePacking.sol\":580:710  function getSlotBuint128() external pure returns (uint256 value) {... */\n      swap1\n      jump\t// out\n        /* \"contracts/13_VariablePacking.sol\":854:935  function getAuint128() external view returns (uint128) {... */\n    tag_58:\n        /* \"contracts/13_VariablePacking.sol\":900:907  uint128 */\n      0x00\n        /* \"contracts/13_VariablePacking.sol\":926:928  a1 */\n      dup1\n      0x00\n      swap1\n      sload\n      swap1\n      0x0100\n      exp\n      swap1\n      div\n      0xffffffffffffffffffffffffffffffff\n      and\n        /* \"contracts/13_VariablePacking.sol\":919:928  return a1 */\n      swap1\n      pop\n        /* \"contracts/13_VariablePacking.sol\":854:935  function getAuint128() external view returns (uint128) {... */\n      swap1\n      jump\t// out\n        /* \"#utility.yul\":7:84   */\n    tag_73:\n        /* \"#utility.yul\":44:51   */\n      0x00\n        /* \"#utility.yul\":73:78   */\n      dup2\n        /* \"#utility.yul\":62:78   */\n      swap1\n      pop\n        /* \"#utility.yul\":7:84   */\n      swap2\n      swap1\n      pop\n      jump\t// out\n        /* \"#utility.yul\":90:208   */\n    tag_74:\n        /* \"#utility.yul\":177:201   */\n      tag_82\n        /* \"#utility.yul\":195:200   */\n      dup2\n        /* \"#utility.yul\":177:201   */\n      tag_73\n      jump\t// in\n    tag_82:\n        /* \"#utility.yul\":172:175   */\n      dup3\n        /* \"#utility.yul\":165:202   */\n      mstore\n        /* \"#utility.yul\":90:208   */\n      pop\n      pop\n      jump\t// out\n        /* \"#utility.yul\":214:436   */\n    tag_21:\n        /* \"#utility.yul\":307:311   */\n      0x00\n        /* \"#utility.yul\":345:347   */\n      0x20\n        /* \"#utility.yul\":334:343   */\n      dup3\n        /* \"#utility.yul\":330:348   */\n      add\n        /* \"#utility.yul\":322:348   */\n      swap1\n      pop\n        /* \"#utility.yul\":358:429   */\n      tag_84\n        /* \"#utility.yul\":426:427   */\n      0x00\n        /* \"#utility.yul\":415:424   */\n      dup4\n        /* \"#utility.yul\":411:428   */\n      add\n        /* \"#utility.yul\":402:408   */\n      dup5\n        /* \"#utility.yul\":358:429   */\n      tag_74\n      jump\t// in\n    tag_84:\n        /* \"#utility.yul\":214:436   */\n      swap3\n      swap2\n      pop\n      pop\n      jump\t// out\n        /* \"#utility.yul\":442:519   */\n    tag_75:\n        /* \"#utility.yul\":479:486   */\n      0x00\n        /* \"#utility.yul\":508:513   */\n      dup2\n        /* \"#utility.yul\":497:513   */\n      swap1\n      pop\n        /* \"#utility.yul\":442:519   */\n      swap2\n      swap1\n      pop\n      jump\t// out\n        /* \"#utility.yul\":525:643   */\n    tag_76:\n        /* \"#utility.yul\":612:636   */\n      tag_87\n        /* \"#utility.yul\":630:635   */\n      dup2\n        /* \"#utility.yul\":612:636   */\n      tag_75\n      jump\t// in\n    tag_87:\n        /* \"#utility.yul\":607:610   */\n      dup3\n        /* \"#utility.yul\":600:637   */\n      mstore\n        /* \"#utility.yul\":525:643   */\n      pop\n      pop\n      jump\t// out\n        /* \"#utility.yul\":649:871   */\n    tag_25:\n        /* \"#utility.yul\":742:746   */\n      0x00\n        /* \"#utility.yul\":780:782   */\n      0x20\n        /* \"#utility.yul\":769:778   */\n      dup3\n        /* \"#utility.yul\":765:783   */\n      add\n        /* \"#utility.yul\":757:783   */\n      swap1\n      pop\n        /* \"#utility.yul\":793:864   */\n      tag_89\n        /* \"#utility.yul\":861:862   */\n      0x00\n        /* \"#utility.yul\":850:859   */\n      dup4\n        /* \"#utility.yul\":846:863   */\n      add\n        /* \"#utility.yul\":837:843   */\n      dup5\n        /* \"#utility.yul\":793:864   */\n      tag_76\n      jump\t// in\n    tag_89:\n        /* \"#utility.yul\":649:871   */\n      swap3\n      swap2\n      pop\n      pop\n      jump\t// out\n        /* \"#utility.yul\":877:995   */\n    tag_77:\n        /* \"#utility.yul\":914:921   */\n      0x00\n        /* \"#utility.yul\":954:988   */\n      0xffffffffffffffffffffffffffffffff\n        /* \"#utility.yul\":947:952   */\n      dup3\n        /* \"#utility.yul\":943:989   */\n      and\n        /* \"#utility.yul\":932:989   */\n      swap1\n      pop\n        /* \"#utility.yul\":877:995   */\n      swap2\n      swap1\n      pop\n      jump\t// out\n        /* \"#utility.yul\":1001:1119   */\n    tag_78:\n        /* \"#utility.yul\":1088:1112   */\n      tag_92\n        /* \"#utility.yul\":1106:1111   */\n      dup2\n        /* \"#utility.yul\":1088:1112   */\n      tag_77\n      jump\t// in\n    tag_92:\n        /* \"#utility.yul\":1083:1086   */\n      dup3\n        /* \"#utility.yul\":1076:1113   */\n      mstore\n        /* \"#utility.yul\":1001:1119   */\n      pop\n      pop\n      jump\t// out\n        /* \"#utility.yul\":1125:1347   */\n    tag_29:\n        /* \"#utility.yul\":1218:1222   */\n      0x00\n        /* \"#utility.yul\":1256:1258   */\n      0x20\n        /* \"#utility.yul\":1245:1254   */\n      dup3\n        /* \"#utility.yul\":1241:1259   */\n      add\n        /* \"#utility.yul\":1233:1259   */\n      swap1\n      pop\n        /* \"#utility.yul\":1269:1340   */\n      tag_94\n        /* \"#utility.yul\":1337:1338   */\n      0x00\n        /* \"#utility.yul\":1326:1335   */\n      dup4\n        /* \"#utility.yul\":1322:1339   */\n      add\n        /* \"#utility.yul\":1313:1319   */\n      dup5\n        /* \"#utility.yul\":1269:1340   */\n      tag_78\n      jump\t// in\n    tag_94:\n        /* \"#utility.yul\":1125:1347   */\n      swap3\n      swap2\n      pop\n      pop\n      jump\t// out\n\n    auxdata: 0xa2646970667358221220d8d2a0d341e5852e19618b6b39141624c0d798b5621e84a8db3dd51fd65e386d64736f6c63430008140033\n}\n",
				"bytecode": {
					"linkReferences": {},
					"object": "608060405260015f806101000a8154816fffffffffffffffffffffffffffffffff02191690836fffffffffffffffffffffffffffffffff16021790555060025f60106101000a8154816fffffffffffffffffffffffffffffffff02191690836fffffffffffffffffffffffffffffffff1602179055506001805560028055348015610088575f80fd5b506103bf806100965f395ff3fe608060405234801561000f575f80fd5b50600436106100cd575f3560e01c80637304f8841161008a578063aaf5c3e011610064578063aaf5c3e0146101df578063cb7d93ba146101fd578063ec6f4a161461021b578063f47f8d4114610239576100cd565b80637304f884146101855780638525e465146101a3578063944c2679146101c1576100cd565b806308905c19146100d15780633ca28f95146100ef5780633fbe37091461010d5780634453aab81461012b57806354117a76146101495780636b00e4c114610167575b5f80fd5b6100d9610257565b6040516100e691906102fc565b60405180910390f35b6100f7610260565b604051610104919061032d565b60405180910390f35b610115610268565b6040516101229190610370565b60405180910390f35b61013361028c565b60405161014091906102fc565b60405180910390f35b610151610290565b60405161015e91906102fc565b60405180910390f35b61016f610299565b60405161017c91906102fc565b60405180910390f35b61018d6102a1565b60405161019a91906102fc565b60405180910390f35b6101ab6102a9565b6040516101b891906102fc565b60405180910390f35b6101c96102ad565b6040516101d691906102fc565b60405180910390f35b6101e76102b1565b6040516101f491906102fc565b60405180910390f35b6102056102b9565b60405161021291906102fc565b60405180910390f35b6102236102bd565b60405161023091906102fc565b60405180910390f35b6102416102c1565b60405161024e9190610370565b60405180910390f35b5f600254905090565b5f8054905090565b5f8060109054906101000a90046fffffffffffffffffffffffffffffffff16905090565b5f90565b5f600154905090565b5f6010905090565b5f6001905090565b5f90565b5f90565b5f6002905090565b5f90565b5f90565b5f805f9054906101000a90046fffffffffffffffffffffffffffffffff16905090565b5f819050919050565b6102f6816102e4565b82525050565b5f60208201905061030f5f8301846102ed565b92915050565b5f819050919050565b61032781610315565b82525050565b5f6020820190506103405f83018461031e565b92915050565b5f6fffffffffffffffffffffffffffffffff82169050919050565b61036a81610346565b82525050565b5f6020820190506103835f830184610361565b9291505056fea2646970667358221220d8d2a0d341e5852e19618b6b39141624c0d798b5621e84a8db3dd51fd65e386d64736f6c63430008140033",
					"opcodes": "PUSH1 0x80 PUSH1 0x40 MSTORE PUSH1 0x1 PUSH0 DUP1 PUSH2 0x100 EXP DUP2 SLOAD DUP2 PUSH16 0xFFFFFFFFFFFFFFFFFFFFFFFFFFFFFFFF MUL NOT AND SWAP1 DUP4 PUSH16 0xFFFFFFFFFFFFFFFFFFFFFFFFFFFFFFFF AND MUL OR SWAP1 SSTORE POP PUSH1 0x2 PUSH0 PUSH1 0x10 PUSH2 0x100 EXP DUP2 SLOAD DUP2 PUSH16 0xFFFFFFFFFFFFFFFFFFFFFFFFFFFFFFFF MUL NOT AND SWAP1 DUP4 PUSH16 0xFFFFFFFFFFFFFFFFFFFFFFFFFFFFFFFF AND MUL OR SWAP1 SSTORE POP PUSH1 0x1 DUP1 SSTORE PUSH1 0x2 DUP1 SSTORE CALLVALUE DUP1 ISZERO PUSH2 0x88 JUMPI PUSH0 DUP1 REVERT JUMPDEST POP PUSH2 0x3BF DUP1 PUSH2 0x96 PUSH0 CODECOPY PUSH0 RETURN INVALID PUSH1 0x80 PUSH1 0x40 MSTORE CALLVALUE DUP1 ISZERO PUSH2 0xF JUMPI PUSH0 DUP1 REVERT JUMPDEST POP PUSH1 0x4 CALLDATASIZE LT PUSH2 0xCD JUMPI PUSH0 CALLDATALOAD PUSH1 0xE0 SHR DUP1 PUSH4 0x7304F884 GT PUSH2 0x8A JUMPI DUP1 PUSH4 0xAAF5C3E0 GT PUSH2 0x64 JUMPI DUP1 PUSH4 0xAAF5C3E0 EQ PUSH2 0x1DF JUMPI DUP1 PUSH4 0xCB7D93BA EQ PUSH2 0x1FD JUMPI DUP1 PUSH4 0xEC6F4A16 EQ PUSH2 0x21B JUMPI DUP1 PUSH4 0xF47F8D41 EQ PUSH2 0x239 JUMPI PUSH2 0xCD JUMP JUMPDEST DUP1 PUSH4 0x7304F884 EQ PUSH2 0x185 JUMPI DUP1 PUSH4 0x8525E465 EQ PUSH2 0x1A3 JUMPI DUP1 PUSH4 0x944C2679 EQ PUSH2 0x1C1 JUMPI PUSH2 0xCD JUMP JUMPDEST DUP1 PUSH4 0x8905C19 EQ PUSH2 0xD1 JUMPI DUP1 PUSH4 0x3CA28F95 EQ PUSH2 0xEF JUMPI DUP1 PUSH4 0x3FBE3709 EQ PUSH2 0x10D JUMPI DUP1 PUSH4 0x4453AAB8 EQ PUSH2 0x12B JUMPI DUP1 PUSH4 0x54117A76 EQ PUSH2 0x149 JUMPI DUP1 PUSH4 0x6B00E4C1 EQ PUSH2 0x167 JUMPI JUMPDEST PUSH0 DUP1 REVERT JUMPDEST PUSH2 0xD9 PUSH2 0x257 JUMP JUMPDEST PUSH1 0x40 MLOAD PUSH2 0xE6 SWAP2 SWAP1 PUSH2 0x2FC JUMP JUMPDEST PUSH1 0x40 MLOAD DUP1 SWAP2 SUB SWAP1 RETURN JUMPDEST PUSH2 0xF7 PUSH2 0x260 JUMP JUMPDEST PUSH1 0x40 MLOAD PUSH2 0x104 SWAP2 SWAP1 PUSH2 0x32D JUMP JUMPDEST PUSH1 0x40 MLOAD DUP1 SWAP2 SUB SWAP1 RETURN JUMPDEST PUSH2 0x115 PUSH2 0x268 JUMP JUMPDEST PUSH1 0x40 MLOAD PUSH2 0x122 SWAP2 SWAP1 PUSH2 0x370 JUMP JUMPDEST PUSH1 0x40 MLOAD DUP1 SWAP2 SUB SWAP1 RETURN JUMPDEST PUSH2 0x133 PUSH2 0x28C JUMP JUMPDEST PUSH1 0x40 MLOAD PUSH2 0x140 SWAP2 SWAP1 PUSH2 0x2FC JUMP JUMPDEST PUSH1 0x40 MLOAD DUP1 SWAP2 SUB SWAP1 RETURN JUMPDEST PUSH2 0x151 PUSH2 0x290 JUMP JUMPDEST PUSH1 0x40 MLOAD PUSH2 0x15E SWAP2 SWAP1 PUSH2 0x2FC JUMP JUMPDEST PUSH1 0x40 MLOAD DUP1 SWAP2 SUB SWAP1 RETURN JUMPDEST PUSH2 0x16F PUSH2 0x299 JUMP JUMPDEST PUSH1 0x40 MLOAD PUSH2 0x17C SWAP2 SWAP1 PUSH2 0x2FC JUMP JUMPDEST PUSH1 0x40 MLOAD DUP1 SWAP2 SUB SWAP1 RETURN JUMPDEST PUSH2 0x18D PUSH2 0x2A1 JUMP JUMPDEST PUSH1 0x40 MLOAD PUSH2 0x19A SWAP2 SWAP1 PUSH2 0x2FC JUMP JUMPDEST PUSH1 0x40 MLOAD DUP1 SWAP2 SUB SWAP1 RETURN JUMPDEST PUSH2 0x1AB PUSH2 0x2A9 JUMP JUMPDEST PUSH1 0x40 MLOAD PUSH2 0x1B8 SWAP2 SWAP1 PUSH2 0x2FC JUMP JUMPDEST PUSH1 0x40 MLOAD DUP1 SWAP2 SUB SWAP1 RETURN JUMPDEST PUSH2 0x1C9 PUSH2 0x2AD JUMP JUMPDEST PUSH1 0x40 MLOAD PUSH2 0x1D6 SWAP2 SWAP1 PUSH2 0x2FC JUMP JUMPDEST PUSH1 0x40 MLOAD DUP1 SWAP2 SUB SWAP1 RETURN JUMPDEST PUSH2 0x1E7 PUSH2 0x2B1 JUMP JUMPDEST PUSH1 0x40 MLOAD PUSH2 0x1F4 SWAP2 SWAP1 PUSH2 0x2FC JUMP JUMPDEST PUSH1 0x40 MLOAD DUP1 SWAP2 SUB SWAP1 RETURN JUMPDEST PUSH2 0x205 PUSH2 0x2B9 JUMP JUMPDEST PUSH1 0x40 MLOAD PUSH2 0x212 SWAP2 SWAP1 PUSH2 0x2FC JUMP JUMPDEST PUSH1 0x40 MLOAD DUP1 SWAP2 SUB SWAP1 RETURN JUMPDEST PUSH2 0x223 PUSH2 0x2BD JUMP JUMPDEST PUSH1 0x40 MLOAD PUSH2 0x230 SWAP2 SWAP1 PUSH2 0x2FC JUMP JUMPDEST PUSH1 0x40 MLOAD DUP1 SWAP2 SUB SWAP1 RETURN JUMPDEST PUSH2 0x241 PUSH2 0x2C1 JUMP JUMPDEST PUSH1 0x40 MLOAD PUSH2 0x24E SWAP2 SWAP1 PUSH2 0x370 JUMP JUMPDEST PUSH1 0x40 MLOAD DUP1 SWAP2 SUB SWAP1 RETURN JUMPDEST PUSH0 PUSH1 0x2 SLOAD SWAP1 POP SWAP1 JUMP JUMPDEST PUSH0 DUP1 SLOAD SWAP1 POP SWAP1 JUMP JUMPDEST PUSH0 DUP1 PUSH1 0x10 SWAP1 SLOAD SWAP1 PUSH2 0x100 EXP SWAP1 DIV PUSH16 0xFFFFFFFFFFFFFFFFFFFFFFFFFFFFFFFF AND SWAP1 POP SWAP1 JUMP JUMPDEST PUSH0 SWAP1 JUMP JUMPDEST PUSH0 PUSH1 0x1 SLOAD SWAP1 POP SWAP1 JUMP JUMPDEST PUSH0 PUSH1 0x10 SWAP1 POP SWAP1 JUMP JUMPDEST PUSH0 PUSH1 0x1 SWAP1 POP SWAP1 JUMP JUMPDEST PUSH0 SWAP1 JUMP JUMPDEST PUSH0 SWAP1 JUMP JUMPDEST PUSH0 PUSH1 0x2 SWAP1 POP SWAP1 JUMP JUMPDEST PUSH0 SWAP1 JUMP JUMPDEST PUSH0 SWAP1 JUMP JUMPDEST PUSH0 DUP1 PUSH0 SWAP1 SLOAD SWAP1 PUSH2 0x100 EXP SWAP1 DIV PUSH16 0xFFFFFFFFFFFFFFFFFFFFFFFFFFFFFFFF AND SWAP1 POP SWAP1 JUMP JUMPDEST PUSH0 DUP2 SWAP1 POP SWAP2 SWAP1 POP JUMP JUMPDEST PUSH2 0x2F6 DUP2 PUSH2 0x2E4 JUMP JUMPDEST DUP3 MSTORE POP POP JUMP JUMPDEST PUSH0 PUSH1 0x20 DUP3 ADD SWAP1 POP PUSH2 0x30F PUSH0 DUP4 ADD DUP5 PUSH2 0x2ED JUMP JUMPDEST SWAP3 SWAP2 POP POP JUMP JUMPDEST PUSH0 DUP2 SWAP1 POP SWAP2 SWAP1 POP JUMP JUMPDEST PUSH2 0x327 DUP2 PUSH2 0x315 JUMP JUMPDEST DUP3 MSTORE POP POP JUMP JUMPDEST PUSH0 PUSH1 0x20 DUP3 ADD SWAP1 POP PUSH2 0x340 PUSH0 DUP4 ADD DUP5 PUSH2 0x31E JUMP JUMPDEST SWAP3 SWAP2 POP POP JUMP JUMPDEST PUSH0 PUSH16 0xFFFFFFFFFFFFFFFFFFFFFFFFFFFFFFFF DUP3 AND SWAP1 POP SWAP2 SWAP1 POP JUMP JUMPDEST PUSH2 0x36A DUP2 PUSH2 0x346 JUMP JUMPDEST DUP3 MSTORE POP POP JUMP JUMPDEST PUSH0 PUSH1 0x20 DUP3 ADD SWAP1 POP PUSH2 0x383 PUSH0 DUP4 ADD DUP5 PUSH2 0x361 JUMP JUMPDEST SWAP3 SWAP2 POP POP JUMP INVALID LOG2 PUSH5 0x6970667358 0x22 SLT KECCAK256 0xD8 0xD2 LOG0 0xD3 COINBASE 0xE5 DUP6 0x2E NOT PUSH2 0x8B6B CODECOPY EQ AND 0x24 0xC0 0xD7 SWAP9 0xB5 PUSH3 0x1E84A8 0xDB RETURNDATASIZE 0xD5 0x1F 0xD6 0x5E CODESIZE PUSH14 0x64736F6C63430008140033000000 "
				},
				"gasEstimates": {
					"creation": {
						"codeDepositCost": "191800",
						"executionCost": "93024",
						"totalCost": "284824"
					},
					"external": {
						"getAuint128()": "2561",
						"getAuint256()": "2521",
						"getBuint128()": "2569",
						"getBuint256()": "2433",
						"getOffsetAuint128()": "369",
						"getOffsetAuint256()": "391",
						"getOffsetBuint128()": "443",
						"getOffsetBuint256()": "391",
						"getSlotAuint128()": "368",
						"getSlotAuint256()": "355",
						"getSlotBuint128()": "390",
						"getSlotBuint256()": "354",
						"loadSlot0uint128()": "2455"
					}
				},
				"methodIdentifiers": {
					"getAuint128()": "f47f8d41",
					"getAuint256()": "54117a76",
					"getBuint128()": "3fbe3709",
					"getBuint256()": "08905c19",
					"getOffsetAuint128()": "8525e465",
					"getOffsetAuint256()": "944c2679",
					"getOffsetBuint128()": "6b00e4c1",
					"getOffsetBuint256()": "4453aab8",
					"getSlotAuint128()": "cb7d93ba",
					"getSlotAuint256()": "7304f884",
					"getSlotBuint128()": "ec6f4a16",
					"getSlotBuint256()": "aaf5c3e0",
					"loadSlot0uint128()": "3ca28f95"
				}
			},
			"storageLayout": {
				"storage": [
					{
						"astId": 4,
						"contract": "contracts/13_VariablePacking.sol:VariablePackingV1",
						"label": "a1",
						"offset": 0,
						"slot": "0",
						"type": "t_uint128"
					},
					{
						"astId": 7,
						"contract": "contracts/13_VariablePacking.sol:VariablePackingV1",
						"label": "b1",
						"offset": 16,
						"slot": "0",
						"type": "t_uint128"
					},
					{
						"astId": 68,
						"contract": "contracts/13_VariablePacking.sol:VariablePackingV1",
						"label": "a2",
						"offset": 0,
						"slot": "1",
						"type": "t_uint256"
					},
					{
						"astId": 71,
						"contract": "contracts/13_VariablePacking.sol:VariablePackingV1",
						"label": "b2",
						"offset": 0,
						"slot": "2",
						"type": "t_uint256"
					}
				],
				"types": {
					"t_uint128": {
						"encoding": "inplace",
						"label": "uint128",
						"numberOfBytes": "16"
					},
					"t_uint256": {
						"encoding": "inplace",
						"label": "uint256",
						"numberOfBytes": "32"
					}
				}
			},
			"userdoc": {
				"kind": "user",
				"methods": {},
				"version": 1
			}
		}
	}
}