{
	"contracts/13_VariablePacking.sol": {
		"VariablePackingV2": {
			"abi": [
				{
					"inputs": [],
					"name": "setStake128",
					"outputs": [],
					"stateMutability": "nonpayable",
					"type": "function"
				},
				{
					"inputs": [],
					"name": "setStake256",
					"outputs": [],
					"stateMutability": "nonpayable",
					"type": "function"
				}
			],
			"devdoc": {
				"kind": "dev",
				"methods": {},
				"version": 1
			},
			"evm": {
				"assembly": "    /* \"contracts/13_VariablePacking.sol\":2793:4034  contract VariablePackingV2 {... */\n  mstore(0x40, 0x80)\n  callvalue\n  dup1\n  iszero\n  tag_1\n  jumpi\n  0x00\n  dup1\n  revert\ntag_1:\n  pop\n  dataSize(sub_0)\n  dup1\n  dataOffset(sub_0)\n  0x00\n  codecopy\n  0x00\n  return\nstop\n\nsub_0: assembly {\n        /* \"contracts/13_VariablePacking.sol\":2793:4034  contract VariablePackingV2 {... */\n      mstore(0x40, 0x80)\n      callvalue\n      dup1\n      iszero\n      tag_1\n      jumpi\n      0x00\n      dup1\n      revert\n    tag_1:\n      pop\n      jumpi(tag_2, lt(calldatasize, 0x04))\n      shr(0xe0, calldataload(0x00))\n      dup1\n      0x10c2f744\n      eq\n      tag_3\n      jumpi\n      dup1\n      0x35b3a401\n      eq\n      tag_4\n      jumpi\n    tag_2:\n      0x00\n      dup1\n      revert\n        /* \"contracts/13_VariablePacking.sol\":3860:4032  function setStake256() external {... */\n    tag_3:\n      tag_5\n      tag_6\n      jump\t// in\n    tag_5:\n      stop\n        /* \"contracts/13_VariablePacking.sol\":3396:3568  function setStake128() external {... */\n    tag_4:\n      tag_7\n      tag_8\n      jump\t// in\n    tag_7:\n      stop\n        /* \"contracts/13_VariablePacking.sol\":3860:4032  function setStake256() external {... */\n    tag_6:\n        /* \"contracts/13_VariablePacking.sol\":3928:4025  StakeV2({... */\n      mload(0x40)\n      dup1\n      0x40\n      add\n      0x40\n      mstore\n      dup1\n        /* \"contracts/13_VariablePacking.sol\":3958:3960  10 */\n      0x0a\n        /* \"contracts/13_VariablePacking.sol\":3928:4025  StakeV2({... */\n      dup2\n      mstore\n      0x20\n      add\n        /* \"contracts/13_VariablePacking.sol\":3998:4013  block.timestamp */\n      timestamp\n        /* \"contracts/13_VariablePacking.sol\":3928:4025  StakeV2({... */\n      dup2\n      mstore\n      pop\n        /* \"contracts/13_VariablePacking.sol\":3902:3913  stakeInfoV2 */\n      0x01\n        /* \"contracts/13_VariablePacking.sol\":3902:3925  stakeInfoV2[msg.sender] */\n      0x00\n        /* \"contracts/13_VariablePacking.sol\":3914:3924  msg.sender */\n      caller\n        /* \"contracts/13_VariablePacking.sol\":3902:3925  stakeInfoV2[msg.sender] */\n      0xffffffffffffffffffffffffffffffffffffffff\n      and\n      0xffffffffffffffffffffffffffffffffffffffff\n      and\n      dup2\n      mstore\n      0x20\n      add\n      swap1\n      dup2\n      mstore\n      0x20\n      add\n      0x00\n      keccak256\n        /* \"contracts/13_VariablePacking.sol\":3902:4025  stakeInfoV2[msg.sender] = StakeV2({... */\n      0x00\n      dup3\n      add\n      mload\n      dup2\n      0x00\n      add\n      sstore\n      0x20\n      dup3\n      add\n      mload\n      dup2\n      0x01\n      add\n      sstore\n      swap1\n      pop\n      pop\n        /* \"contracts/13_VariablePacking.sol\":3860:4032  function setStake256() external {... */\n      jump\t// out\n        /* \"contracts/13_VariablePacking.sol\":3396:3568  function setStake128() external {... */\n    tag_8:\n        /* \"contracts/13_VariablePacking.sol\":3464:3561  StakeV1({... */\n      mload(0x40)\n      dup1\n      0x40\n      add\n      0x40\n      mstore\n      dup1\n        /* \"contracts/13_VariablePacking.sol\":3494:3496  10 */\n      0x0a\n        /* \"contracts/13_VariablePacking.sol\":3464:3561  StakeV1({... */\n      0xffffffffffffffffffffffffffffffff\n      and\n      dup2\n      mstore\n      0x20\n      add\n        /* \"contracts/13_VariablePacking.sol\":3534:3549  block.timestamp */\n      timestamp\n        /* \"contracts/13_VariablePacking.sol\":3464:3561  StakeV1({... */\n      0xffffffffffffffffffffffffffffffff\n      and\n      dup2\n      mstore\n      pop\n        /* \"contracts/13_VariablePacking.sol\":3438:3449  stakeInfoV1 */\n      0x00\n        /* \"contracts/13_VariablePacking.sol\":3438:3461  stakeInfoV1[msg.sender] */\n      dup1\n        /* \"contracts/13_VariablePacking.sol\":3450:3460  msg.sender */\n      caller\n        /* \"contracts/13_VariablePacking.sol\":3438:3461  stakeInfoV1[msg.sender] */\n      0xffffffffffffffffffffffffffffffffffffffff\n      and\n      0xffffffffffffffffffffffffffffffffffffffff\n      and\n      dup2\n      mstore\n      0x20\n      add\n      swap1\n      dup2\n      mstore\n      0x20\n      add\n      0x00\n      keccak256\n        /* \"contracts/13_VariablePacking.sol\":3438:3561  stakeInfoV1[msg.sender] = StakeV1({... */\n      0x00\n      dup3\n      add\n      mload\n      dup2\n      0x00\n      add\n      exp(0x0100, 0x00)\n      dup2\n      sload\n      dup2\n      0xffffffffffffffffffffffffffffffff\n      mul\n      not\n      and\n      swap1\n      dup4\n      0xffffffffffffffffffffffffffffffff\n      and\n      mul\n      or\n      swap1\n      sstore\n      pop\n      0x20\n      dup3\n      add\n      mload\n      dup2\n      0x00\n      add\n      exp(0x0100, 0x10)\n      dup2\n      sload\n      dup2\n      0xffffffffffffffffffffffffffffffff\n      mul\n      not\n      and\n      swap1\n      dup4\n      0xffffffffffffffffffffffffffffffff\n      and\n      mul\n      or\n      swap1\n      sstore\n      pop\n      swap1\n      pop\n      pop\n        /* \"contracts/13_VariablePacking.sol\":3396:3568  function setStake128() external {... */\n      jump\t// out\n\n    auxdata: 0xa2646970667358221220e37936c7c45db5337dc2e30bf9f6d14d26683899cfc0258af4203ff42e5bc3d464736f6c63430008140033\n}\n",
				"bytecode": {
					"linkReferences": {},
					"object": "608060405234801561000f575f80fd5b506101e18061001d5f395ff3fe608060405234801561000f575f80fd5b5060043610610034575f3560e01c806310c2f7441461003857806335b3a40114610042575b5f80fd5b61004061004c565b005b61004a6100b6565b005b6040518060400160405280600a81526020014281525060015f3373ffffffffffffffffffffffffffffffffffffffff1673ffffffffffffffffffffffffffffffffffffffff1681526020019081526020015f205f820151815f015560208201518160010155905050565b6040518060400160405280600a6fffffffffffffffffffffffffffffffff168152602001426fffffffffffffffffffffffffffffffff168152505f803373ffffffffffffffffffffffffffffffffffffffff1673ffffffffffffffffffffffffffffffffffffffff1681526020019081526020015f205f820151815f015f6101000a8154816fffffffffffffffffffffffffffffffff02191690836fffffffffffffffffffffffffffffffff1602179055506020820151815f0160106101000a8154816fffffffffffffffffffffffffffffffff02191690836fffffffffffffffffffffffffffffffff16021790555090505056fea2646970667358221220e37936c7c45db5337dc2e30bf9f6d14d26683899cfc0258af4203ff42e5bc3d464736f6c63430008140033",
					"opcodes": "PUSH1 0x80 PUSH1 0x40 MSTORE CALLVALUE DUP1 ISZERO PUSH2 0xF JUMPI PUSH0 DUP1 REVERT JUMPDEST POP PUSH2 0x1E1 DUP1 PUSH2 0x1D PUSH0 CODECOPY PUSH0 RETURN INVALID PUSH1 0x80 PUSH1 0x40 MSTORE CALLVALUE DUP1 ISZERO PUSH2 0xF JUMPI PUSH0 DUP1 REVERT JUMPDEST POP PUSH1 0x4 CALLDATASIZE LT PUSH2 0x34 JUMPI PUSH0 CALLDATALOAD PUSH1 0xE0 SHR DUP1 PUSH4 0x10C2F744 EQ PUSH2 0x38 JUMPI DUP1 PUSH4 0x35B3A401 EQ PUSH2 0x42 JUMPI JUMPDEST PUSH0 DUP1 REVERT JUMPDEST PUSH2 0x40 PUSH2 0x4C JUMP JUMPDEST STOP JUMPDEST PUSH2 0x4A PUSH2 0xB6 JUMP JUMPDEST STOP JUMPDEST PUSH1 0x40 MLOAD DUP1 PUSH1 0x40 ADD PUSH1 0x40 MSTORE DUP1 PUSH1 0xA DUP2 MSTORE PUSH1 0x20 ADD TIMESTAMP DUP2 MSTORE POP PUSH1 0x1 PUSH0 CALLER PUSH20 0xFFFFFFFFFFFFFFFFFFFFFFFFFFFFFFFFFFFFFFFF AND PUSH20 0xFFFFFFFFFFFFFFFFFFFFFFFFFFFFFFFFFFFFFFFF AND DUP2 MSTORE PUSH1 0x20 ADD SWAP1 DUP2 MSTORE PUSH1 0x20 ADD PUSH0 KECCAK256 PUSH0 DUP3 ADD MLOAD DUP2 PUSH0 ADD SSTORE PUSH1 0x20 DUP3 ADD MLOAD DUP2 PUSH1 0x1 ADD SSTORE SWAP1 POP POP JUMP JUMPDEST PUSH1 0x40 MLOAD DUP1 PUSH1 0x40 ADD PUSH1 0x40 MSTORE DUP1 PUSH1 0xA PUSH16 0xFFFFFFFFFFFFFFFFFFFFFFFFFFFFFFFF AND DUP2 MSTORE PUSH1 0x20 ADD TIMESTAMP PUSH16 0xFFFFFFFFFFFFFFFFFFFFFFFFFFFFFFFF AND DUP2 MSTORE POP PUSH0 DUP1 CALLER PUSH20 0xFFFFFFFFFFFFFFFFFFFFFFFFFFFFFFFFFFFFFFFF AND PUSH20 0xFFFFFFFFFFFFFFFFFFFFFFFFFFFFFFFFFFFFFFFF AND DUP2 MSTORE PUSH1 0x20 ADD SWAP1 DUP2 MSTORE PUSH1 0x20 ADD PUSH0 KECCAK256 PUSH0 DUP3 ADD MLOAD DUP2 PUSH0 ADD PUSH0 PUSH2 0x100 EXP DUP2 SLOAD DUP2 PUSH16 0xFFFFFFFFFFFFFFFFFFFFFFFFFFFFFFFF MUL NOT AND SWAP1 DUP4 PUSH16 0xFFFFFFFFFFFFFFFFFFFFFFFFFFFFFFFF AND MUL OR SWAP1 SSTORE POP PUSH1 0x20 DUP3 ADD MLOAD DUP2 PUSH0 ADD PUSH1 0x10 PUSH2 0x100 EXP DUP2 SLOAD DUP2 PUSH16 0xFFFFFFFFFFFFFFFFFFFFFFFFFFFFFFFF MUL NOT AND SWAP1 DUP4 PUSH16 0xFFFFFFFFFFFFFFFFFFFFFFFFFFFFFFFF AND MUL OR SWAP1 SSTORE POP SWAP1 POP POP JUMP INVALID LOG2 PUSH5 0x6970667358 0x22 SLT KECCAK256 0xE3 PUSH26 0x36C7C45DB5337DC2E30BF9F6D14D26683899CFC0258AF4203FF4 0x2E JUMPDEST 0xC3 0xD4 PUSH5 0x736F6C6343 STOP ADDMOD EQ STOP CALLER "
				},
				"gasEstimates": {
					"creation": {
						"codeDepositCost": "96200",
						"executionCost": "145",
						"totalCost": "96345"
					},
					"external": {
						"setStake128()": "48920",
						"setStake256()": "44516"
					}
				},
				"methodIdentifiers": {
					"setStake128()": "35b3a401",
					"setStake256()": "10c2f744"
				}
			},
			"storageLayout": {
				"storage": [
					{
						"astId": 124,
						"contract": "contracts/13_VariablePacking.sol:VariablePackingV2",
						"label": "stakeInfoV1",
						"offset": 0,
						"slot": "0",
						"type": "t_mapping(t_address,t_struct(StakeV1)114_storage)"
					},
					{
						"astId": 129,
						"contract": "contracts/13_VariablePacking.sol:VariablePackingV2",
						"label": "stakeInfoV2",
						"offset": 0,
						"slot": "1",
						"type": "t_mapping(t_address,t_struct(StakeV2)119_storage)"
					}
				],
				"types": {
					"t_address": {
						"encoding": "inplace",
						"label": "address",
						"numberOfBytes": "20"
					},
					"t_mapping(t_address,t_struct(StakeV1)114_storage)": {
						"encoding": "mapping",
						"key": "t_address",
						"label": "mapping(address => struct VariablePackingV2.StakeV1)",
						"numberOfBytes": "32",
						"value": "t_struct(StakeV1)114_storage"
					},
					"t_mapping(t_address,t_struct(StakeV2)119_storage)": {
						"encoding": "mapping",
						"key": "t_address",
						"label": "mapping(address => struct VariablePackingV2.StakeV2)",
						"numberOfBytes": "32",
						"value": "t_struct(StakeV2)119_storage"
					},
					"t_struct(StakeV1)114_storage": {
						"encoding": "inplace",
						"label": "struct VariablePackingV2.StakeV1",
						"members": [
							{
								"astId": 111,
								"contract": "contracts/13_VariablePacking.sol:VariablePackingV2",
								"label": "amount",
								"offset": 0,
								"slot": "0",
								"type": "t_uint128"
							},
							{
								"astId": 113,
								"contract": "contracts/13_VariablePacking.sol:VariablePackingV2",
								"label": "stakeTimeStamp",
								"offset": 16,
								"slot": "0",
								"type": "t_uint128"
							}
						],
						"numberOfBytes": "32"
					},
					"t_struct(StakeV2)119_storage": {
						"encoding": "inplace",
						"label": "struct VariablePackingV2.StakeV2",
						"members": [
							{
								"astId": 116,
								"contract": "contracts/13_VariablePacking.sol:VariablePackingV2",
								"label": "amount",
								"offset": 0,
								"slot": "0",
								"type": "t_uint256"
							},
							{
								"astId": 118,
								"contract": "contracts/13_VariablePacking.sol:VariablePackingV2",
								"label": "stakeTimeStamp",
								"offset": 0,
								"slot": "1",
								"type": "t_uint256"
							}
						],
						"numberOfBytes": "64"
					},
					"t_uint128": {
						"encoding": "inplace",
						"label": "uint128",
						"numberOfBytes": "16"
					},
					"t_uint256": {
						"encoding": "inplace",
						"label": "uint256",
						"numberOfBytes": "32"
					}
				}
			},
			"userdoc": {
				"kind": "user",
				"methods": {},
				"version": 1
			}
		}
	}
}