{
	"data": {
		"bytecode": {
			"linkReferences": {},
			"object": "6080604052604051806101400160405280600160ff168152602001600260ff168152602001600360ff168152602001600460ff168152602001600560ff168152602001600660ff168152602001600760ff168152602001600860ff168152602001600960ff168152602001600a60ff168152505f90600a610081929190610112565b50604051806101400160405280600160ff168152602001600260ff168152602001600360ff168152602001600460ff168152602001600560ff168152602001600660ff168152602001600760ff168152602001600860ff168152602001600960ff168152602001600a60ff16815250600190600a610100929190610162565b5034801561010c575f80fd5b506101c2565b828054828255905f5260205f20908101928215610151579160200282015b82811115610150578251829060ff16905591602001919060010190610130565b5b50905061015e91906101a7565b5090565b82600a8101928215610196579160200282015b82811115610195578251829060ff16905591602001919060010190610175565b5b5090506101a391906101a7565b5090565b5b808211156101be575f815f9055506001016101a8565b5090565b61039e806101cf5f395ff3fe608060405234801561000f575f80fd5b5060043610610060575f3560e01c80635bef5835146100645780637583c7721461008257806382052f5a146100a057806382321566146100be57806395a52fb8146100dc5780639c009f85146100fa575b5f80fd5b61006c610118565b604051610079919061027b565b60405180910390f35b61008a610163565b604051610097919061027b565b60405180910390f35b6100a861016c565b6040516100b5919061027b565b60405180910390f35b6100c6610174565b6040516100d3919061027b565b60405180910390f35b6100e46101c6565b6040516100f1919061027b565b60405180910390f35b61010261021a565b60405161010f919061027b565b60405180910390f35b5f80600a90505f5b8181101561015e57600181600a811061013c5761013b610294565b5b01548361014991906102ee565b9250808061015690610321565b915050610120565b505090565b5f600154905090565b5f8054905090565b5f805f90505b5f805490508110156101c2575f818154811061019957610198610294565b5b905f5260205f200154826101ad91906102ee565b915080806101ba90610321565b91505061017a565b5090565b5f805f8054905090505f5b81811015610215575f81815481106101ec576101eb610294565b5b905f5260205f2001548361020091906102ee565b9250808061020d90610321565b9150506101d1565b505090565b5f805f90505b600a81101561025f57600181600a811061023d5761023c610294565b5b01548261024a91906102ee565b9150808061025790610321565b915050610220565b5090565b5f819050919050565b61027581610263565b82525050565b5f60208201905061028e5f83018461026c565b92915050565b7f4e487b71000000000000000000000000000000000000000000000000000000005f52603260045260245ffd5b7f4e487b71000000000000000000000000000000000000000000000000000000005f52601160045260245ffd5b5f6102f882610263565b915061030383610263565b925082820190508082111561031b5761031a6102c1565b5b92915050565b5f61032b82610263565b91507fffffffffffffffffffffffffffffffffffffffffffffffffffffffffffffffff820361035d5761035c6102c1565b5b60018201905091905056fea264697066735822122058f24b09640582d02495f67e74694bff75b47aaa190746c408a6773d2cf1f59464736f6c63430008140033",
			"opcodes": "PUSH1 0x80 PUSH1 0x40 MSTORE PUSH1 0x40 MLOAD DUP1 PUSH2 0x140 ADD PUSH1 0x40 MSTORE DUP1 PUSH1 0x1 PUSH1 0xFF AND DUP2 MSTORE PUSH1 0x20 ADD PUSH1 0x2 PUSH1 0xFF AND DUP2 MSTORE PUSH1 0x20 ADD PUSH1 0x3 PUSH1 0xFF AND DUP2 MSTORE PUSH1 0x20 ADD PUSH1 0x4 PUSH1 0xFF AND DUP2 MSTORE PUSH1 0x20 ADD PUSH1 0x5 PUSH1 0xFF AND DUP2 MSTORE PUSH1 0x20 ADD PUSH1 0x6 PUSH1 0xFF AND DUP2 MSTORE PUSH1 0x20 ADD PUSH1 0x7 PUSH1 0xFF AND DUP2 MSTORE PUSH1 0x20 ADD PUSH1 0x8 PUSH1 0xFF AND DUP2 MSTORE PUSH1 0x20 ADD PUSH1 0x9 PUSH1 0xFF AND DUP2 MSTORE PUSH1 0x20 ADD PUSH1 0xA PUSH1 0xFF AND DUP2 MSTORE POP PUSH0 SWAP1 PUSH1 0xA PUSH2 0x81 SWAP3 SWAP2 SWAP1 PUSH2 0x112 JUMP JUMPDEST POP PUSH1 0x40 MLOAD DUP1 PUSH2 0x140 ADD PUSH1 0x40 MSTORE DUP1 PUSH1 0x1 PUSH1 0xFF AND DUP2 MSTORE PUSH1 0x20 ADD PUSH1 0x2 PUSH1 0xFF AND DUP2 MSTORE PUSH1 0x20 ADD PUSH1 0x3 PUSH1 0xFF AND DUP2 MSTORE PUSH1 0x20 ADD PUSH1 0x4 PUSH1 0xFF AND DUP2 MSTORE PUSH1 0x20 ADD PUSH1 0x5 PUSH1 0xFF AND DUP2 MSTORE PUSH1 0x20 ADD PUSH1 0x6 PUSH1 0xFF AND DUP2 MSTORE PUSH1 0x20 ADD PUSH1 0x7 PUSH1 0xFF AND DUP2 MSTORE PUSH1 0x20 ADD PUSH1 0x8 PUSH1 0xFF AND DUP2 MSTORE PUSH1 0x20 ADD PUSH1 0x9 PUSH1 0xFF AND DUP2 MSTORE PUSH1 0x20 ADD PUSH1 0xA PUSH1 0xFF AND DUP2 MSTORE POP PUSH1 0x1 SWAP1 PUSH1 0xA PUSH2 0x100 SWAP3 SWAP2 SWAP1 PUSH2 0x162 JUMP JUMPDEST POP CALLVALUE DUP1 ISZERO PUSH2 0x10C JUMPI PUSH0 DUP1 REVERT JUMPDEST POP PUSH2 0x1C2 JUMP JUMPDEST DUP3 DUP1 SLOAD DUP3 DUP3 SSTORE SWAP1 PUSH0 MSTORE PUSH1 0x20 PUSH0 KECCAK256 SWAP1 DUP2 ADD SWAP3 DUP3 ISZERO PUSH2 0x151 JUMPI SWAP2 PUSH1 0x20 MUL DUP3 ADD JUMPDEST DUP3 DUP2 GT ISZERO PUSH2 0x150 JUMPI DUP3 MLOAD DUP3 SWAP1 PUSH1 0xFF AND SWAP1 SSTORE SWAP2 PUSH1 0x20 ADD SWAP2 SWAP1 PUSH1 0x1 ADD SWAP1 PUSH2 0x130 JUMP JUMPDEST JUMPDEST POP SWAP1 POP PUSH2 0x15E SWAP2 SWAP1 PUSH2 0x1A7 JUMP JUMPDEST POP SWAP1 JUMP JUMPDEST DUP3 PUSH1 0xA DUP2 ADD SWAP3 DUP3 ISZERO PUSH2 0x196 JUMPI SWAP2 PUSH1 0x20 MUL DUP3 ADD JUMPDEST DUP3 DUP2 GT ISZERO PUSH2 0x195 JUMPI DUP3 MLOAD DUP3 SWAP1 PUSH1 0xFF AND SWAP1 SSTORE SWAP2 PUSH1 0x20 ADD SWAP2 SWAP1 PUSH1 0x1 ADD SWAP1 PUSH2 0x175 JUMP JUMPDEST JUMPDEST POP SWAP1 POP PUSH2 0x1A3 SWAP2 SWAP1 PUSH2 0x1A7 JUMP JUMPDEST POP SWAP1 JUMP JUMPDEST JUMPDEST DUP1 DUP3 GT ISZERO PUSH2 0x1BE JUMPI PUSH0 DUP2 PUSH0 SWAP1 SSTORE POP PUSH1 0x1 ADD PUSH2 0x1A8 JUMP JUMPDEST POP SWAP1 JUMP JUMPDEST PUSH2 0x39E DUP1 PUSH2 0x1CF PUSH0 CODECOPY PUSH0 RETURN INVALID PUSH1 0x80 PUSH1 0x40 MSTORE CALLVALUE DUP1 ISZERO PUSH2 0xF JUMPI PUSH0 DUP1 REVERT JUMPDEST POP PUSH1 0x4 CALLDATASIZE LT PUSH2 0x60 JUMPI PUSH0 CALLDATALOAD PUSH1 0xE0 SHR DUP1 PUSH4 0x5BEF5835 EQ PUSH2 0x64 JUMPI DUP1 PUSH4 0x7583C772 EQ PUSH2 0x82 JUMPI DUP1 PUSH4 0x82052F5A EQ PUSH2 0xA0 JUMPI DUP1 PUSH4 0x82321566 EQ PUSH2 0xBE JUMPI DUP1 PUSH4 0x95A52FB8 EQ PUSH2 0xDC JUMPI DUP1 PUSH4 0x9C009F85 EQ PUSH2 0xFA JUMPI JUMPDEST PUSH0 DUP1 REVERT JUMPDEST PUSH2 0x6C PUSH2 0x118 JUMP JUMPDEST PUSH1 0x40 MLOAD PUSH2 0x79 SWAP2 SWAP1 PUSH2 0x27B JUMP JUMPDEST PUSH1 0x40 MLOAD DUP1 SWAP2 SUB SWAP1 RETURN JUMPDEST PUSH2 0x8A PUSH2 0x163 JUMP JUMPDEST PUSH1 0x40 MLOAD PUSH2 0x97 SWAP2 SWAP1 PUSH2 0x27B JUMP JUMPDEST PUSH1 0x40 MLOAD DUP1 SWAP2 SUB SWAP1 RETURN JUMPDEST PUSH2 0xA8 PUSH2 0x16C JUMP JUMPDEST PUSH1 0x40 MLOAD PUSH2 0xB5 SWAP2 SWAP1 PUSH2 0x27B JUMP JUMPDEST PUSH1 0x40 MLOAD DUP1 SWAP2 SUB SWAP1 RETURN JUMPDEST PUSH2 0xC6 PUSH2 0x174 JUMP JUMPDEST PUSH1 0x40 MLOAD PUSH2 0xD3 SWAP2 SWAP1 PUSH2 0x27B JUMP JUMPDEST PUSH1 0x40 MLOAD DUP1 SWAP2 SUB SWAP1 RETURN JUMPDEST PUSH2 0xE4 PUSH2 0x1C6 JUMP JUMPDEST PUSH1 0x40 MLOAD PUSH2 0xF1 SWAP2 SWAP1 PUSH2 0x27B JUMP JUMPDEST PUSH1 0x40 MLOAD DUP1 SWAP2 SUB SWAP1 RETURN JUMPDEST PUSH2 0x102 PUSH2 0x21A JUMP JUMPDEST PUSH1 0x40 MLOAD PUSH2 0x10F SWAP2 SWAP1 PUSH2 0x27B JUMP JUMPDEST PUSH1 0x40 MLOAD DUP1 SWAP2 SUB SWAP1 RETURN JUMPDEST PUSH0 DUP1 PUSH1 0xA SWAP1 POP PUSH0 JUMPDEST DUP2 DUP2 LT ISZERO PUSH2 0x15E JUMPI PUSH1 0x1 DUP2 PUSH1 0xA DUP2 LT PUSH2 0x13C JUMPI PUSH2 0x13B PUSH2 0x294 JUMP JUMPDEST JUMPDEST ADD SLOAD DUP4 PUSH2 0x149 SWAP2 SWAP1 PUSH2 0x2EE JUMP JUMPDEST SWAP3 POP DUP1 DUP1 PUSH2 0x156 SWAP1 PUSH2 0x321 JUMP JUMPDEST SWAP2 POP POP PUSH2 0x120 JUMP JUMPDEST POP POP SWAP1 JUMP JUMPDEST PUSH0 PUSH1 0x1 SLOAD SWAP1 POP SWAP1 JUMP JUMPDEST PUSH0 DUP1 SLOAD SWAP1 POP SWAP1 JUMP JUMPDEST PUSH0 DUP1 PUSH0 SWAP1 POP JUMPDEST PUSH0 DUP1 SLOAD SWAP1 POP DUP2 LT ISZERO PUSH2 0x1C2 JUMPI PUSH0 DUP2 DUP2 SLOAD DUP2 LT PUSH2 0x199 JUMPI PUSH2 0x198 PUSH2 0x294 JUMP JUMPDEST JUMPDEST SWAP1 PUSH0 MSTORE PUSH1 0x20 PUSH0 KECCAK256 ADD SLOAD DUP3 PUSH2 0x1AD SWAP2 SWAP1 PUSH2 0x2EE JUMP JUMPDEST SWAP2 POP DUP1 DUP1 PUSH2 0x1BA SWAP1 PUSH2 0x321 JUMP JUMPDEST SWAP2 POP POP PUSH2 0x17A JUMP JUMPDEST POP SWAP1 JUMP JUMPDEST PUSH0 DUP1 PUSH0 DUP1 SLOAD SWAP1 POP SWAP1 POP PUSH0 JUMPDEST DUP2 DUP2 LT ISZERO PUSH2 0x215 JUMPI PUSH0 DUP2 DUP2 SLOAD DUP2 LT PUSH2 0x1EC JUMPI PUSH2 0x1EB PUSH2 0x294 JUMP JUMPDEST JUMPDEST SWAP1 PUSH0 MSTORE PUSH1 0x20 PUSH0 KECCAK256 ADD SLOAD DUP4 PUSH2 0x200 SWAP2 SWAP1 PUSH2 0x2EE JUMP JUMPDEST SWAP3 POP DUP1 DUP1 PUSH2 0x20D SWAP1 PUSH2 0x321 JUMP JUMPDEST SWAP2 POP POP PUSH2 0x1D1 JUMP JUMPDEST POP POP SWAP1 JUMP JUMPDEST PUSH0 DUP1 PUSH0 SWAP1 POP JUMPDEST PUSH1 0xA DUP2 LT ISZERO PUSH2 0x25F JUMPI PUSH1 0x1 DUP2 PUSH1 0xA DUP2 LT PUSH2 0x23D JUMPI PUSH2 0x23C PUSH2 0x294 JUMP JUMPDEST JUMPDEST ADD SLOAD DUP3 PUSH2 0x24A SWAP2 SWAP1 PUSH2 0x2EE JUMP JUMPDEST SWAP2 POP DUP1 DUP1 PUSH2 0x257 SWAP1 PUSH2 0x321 JUMP JUMPDEST SWAP2 POP POP PUSH2 0x220 JUMP JUMPDEST POP SWAP1 JUMP JUMPDEST PUSH0 DUP2 SWAP1 POP SWAP2 SWAP1 POP JUMP JUMPDEST PUSH2 0x275 DUP2 PUSH2 0x263 JUMP JUMPDEST DUP3 MSTORE POP POP JUMP JUMPDEST PUSH0 PUSH1 0x20 DUP3 ADD SWAP1 POP PUSH2 0x28E PUSH0 DUP4 ADD DUP5 PUSH2 0x26C JUMP JUMPDEST SWAP3 SWAP2 POP POP JUMP JUMPDEST PUSH32 0x4E487B7100000000000000000000000000000000000000000000000000000000 PUSH0 MSTORE PUSH1 0x32 PUSH1 0x4 MSTORE PUSH1 0x24 PUSH0 REVERT JUMPDEST PUSH32 0x4E487B7100000000000000000000000000000000000000000000000000000000 PUSH0 MSTORE PUSH1 0x11 PUSH1 0x4 MSTORE PUSH1 0x24 PUSH0 REVERT JUMPDEST PUSH0 PUSH2 0x2F8 DUP3 PUSH2 0x263 JUMP JUMPDEST SWAP2 POP PUSH2 0x303 DUP4 PUSH2 0x263 JUMP JUMPDEST SWAP3 POP DUP3 DUP3 ADD SWAP1 POP DUP1 DUP3 GT ISZERO PUSH2 0x31B JUMPI PUSH2 0x31A PUSH2 0x2C1 JUMP JUMPDEST JUMPDEST SWAP3 SWAP2 POP POP JUMP JUMPDEST PUSH0 PUSH2 0x32B DUP3 PUSH2 0x263 JUMP JUMPDEST SWAP2 POP PUSH32 0xFFFFFFFFFFFFFFFFFFFFFFFFFFFFFFFFFFFFFFFFFFFFFFFFFFFFFFFFFFFFFFFF DUP3 SUB PUSH2 0x35D JUMPI PUSH2 0x35C PUSH2 0x2C1 JUMP JUMPDEST JUMPDEST PUSH1 0x1 DUP3 ADD SWAP1 POP SWAP2 SWAP1 POP JUMP INVALID LOG2 PUSH5 0x6970667358 0x22 SLT KECCAK256 PC CALLCODE 0x4B MULMOD PUSH5 0x582D02495 0xF6 PUSH31 0x74694BFF75B47AAA190746C408A6773D2CF1F59464736F6C63430008140033 "
		},
		"gasEstimates": {
			"creation": {
				"codeDepositCost": "185200",
				"executionCost": "infinite",
				"totalCost": "infinite"
			},
			"external": {
				"getSlot0ValueDynamic()": "2454",
				"getSlot0ValueFixed()": "2432",
				"getSumV1()": "infinite",
				"getSumV2()": "infinite",
				"getSumV3()": "infinite",
				"getSumV4()": "infinite"
			}
		},
		"methodIdentifiers": {
			"getSlot0ValueDynamic()": "82052f5a",
			"getSlot0ValueFixed()": "7583c772",
			"getSumV1()": "82321566",
			"getSumV2()": "95a52fb8",
			"getSumV3()": "9c009f85",
			"getSumV4()": "5bef5835"
		}
	},
	"abi": [
		{
			"inputs": [],
			"name": "getSlot0ValueDynamic",
			"outputs": [
				{
					"internalType": "uint256",
					"name": "slotValue",
					"type": "uint256"
				}
			],
			"stateMutability": "view",
			"type": "function"
		},
		{
			"inputs": [],
			"name": "getSlot0ValueFixed",
			"outputs": [
				{
					"internalType": "uint256",
					"name": "slotValue",
					"type": "uint256"
				}
			],
			"stateMutability": "view",
			"type": "function"
		},
		{
			"inputs": [],
			"name": "getSumV1",
			"outputs": [
				{
					"internalType": "uint256",
					"name": "sum",
					"type": "uint256"
				}
			],
			"stateMutability": "view",
			"type": "function"
		},
		{
			"inputs": [],
			"name": "getSumV2",
			"outputs": [
				{
					"internalType": "uint256",
					"name": "sum",
					"type": "uint256"
				}
			],
			"stateMutability": "view",
			"type": "function"
		},
		{
			"inputs": [],
			"name": "getSumV3",
			"outputs": [
				{
					"internalType": "uint256",
					"name": "sum",
					"type": "uint256"
				}
			],
			"stateMutability": "view",
			"type": "function"
		},
		{
			"inputs": [],
			"name": "getSumV4",
			"outputs": [
				{
					"internalType": "uint256",
					"name": "sum",
					"type": "uint256"
				}
			],
			"stateMutability": "view",
			"type": "function"
		}
	]
}