{
	"data": {
		"bytecode": {
			"linkReferences": {},
			"object": "6080604052348015600f57600080fd5b50606180601d6000396000f3fe608060405260043610601c5760003560e01c80632f576f20146021575b600080fd5b60276029565b005b56fea26469706673582212206a633c7054eb3f61a7b8a4e5e3f8dd7241c2b560fb170f277c11218734fe825764736f6c63430008000033",
			"opcodes": "PUSH1 0x80 PUSH1 0x40 MSTORE CALLVALUE DUP1 ISZERO PUSH1 0xF JUMPI PUSH1 0x0 DUP1 REVERT JUMPDEST POP PUSH1 0x61 DUP1 PUSH1 0x1D PUSH1 0x0 CODECOPY PUSH1 0x0 RETURN INVALID PUSH1 0x80 PUSH1 0x40 MSTORE PUSH1 0x4 CALLDATASIZE LT PUSH1 0x1C JUMPI PUSH1 0x0 CALLDATALOAD PUSH1 0xE0 SHR DUP1 PUSH4 0x2F576F20 EQ PUSH1 0x21 JUMPI JUMPDEST PUSH1 0x0 DUP1 REVERT JUMPDEST PUSH1 0x27 PUSH1 0x29 JUMP JUMPDEST STOP JUMPDEST JUMP INVALID LOG2 PUSH5 0x6970667358 0x22 SLT KECCAK256 PUSH11 0x633C7054EB3F61A7B8A4E5 0xE3 0xF8 0xDD PUSH19 0x41C2B560FB170F277C11218734FE825764736F PUSH13 0x63430008000033000000000000 "
		},
		"deployedBytecode": {
			"immutableReferences": {},
			"linkReferences": {},
			"object": "608060405260043610601c5760003560e01c80632f576f20146021575b600080fd5b60276029565b005b56fea26469706673582212206a633c7054eb3f61a7b8a4e5e3f8dd7241c2b560fb170f277c11218734fe825764736f6c63430008000033",
			"opcodes": "PUSH1 0x80 PUSH1 0x40 MSTORE PUSH1 0x4 CALLDATASIZE LT PUSH1 0x1C JUMPI PUSH1 0x0 CALLDATALOAD PUSH1 0xE0 SHR DUP1 PUSH4 0x2F576F20 EQ PUSH1 0x21 JUMPI JUMPDEST PUSH1 0x0 DUP1 REVERT JUMPDEST PUSH1 0x27 PUSH1 0x29 JUMP JUMPDEST STOP JUMPDEST JUMP INVALID LOG2 PUSH5 0x6970667358 0x22 SLT KECCAK256 PUSH11 0x633C7054EB3F61A7B8A4E5 0xE3 0xF8 0xDD PUSH19 0x41C2B560FB170F277C11218734FE825764736F PUSH13 0x63430008000033000000000000 "
		},
		"gasEstimates": {
			"creation": {
				"codeDepositCost": "19400",
				"executionCost": "75",
				"totalCost": "19475"
			},
			"external": {
				"doNothing()": "98"
			}
		},
		"methodIdentifiers": {
			"doNothing()": "2f576f20"
		}
	},
	"abi": [
		{
			"inputs": [],
			"name": "doNothing",
			"outputs": [],
			"stateMutability": "payable",
			"type": "function"
		}
	]
}