{
	"data": {
		"bytecode": {
			"linkReferences": {},
			"object": "608060405260016000556001805560006002556001600355600160045560016005556001600655600160075560016008556001600b556000600c556001600d556001600e556000600f556001601055600160115534801561005f57600080fd5b506040518060600160405280600160ff168152602001600260ff168152602001600360ff1681525060096000600281526020019081526020016000209060036100a9929190610154565b50604051806101800160405280600160ff168152602001600260ff168152602001600360ff168152602001600460ff168152602001600560ff168152602001600660ff168152602001600760ff168152602001600860ff168152602001600960ff168152602001600a60ff168152602001600b60ff168152602001600c60ff16815250600a60006002815260200190815260200160002090600c61014e9291906101a6565b50610215565b828054828255906000526020600020908101928215610195579160200282015b82811115610194578251829060ff16905591602001919060010190610174565b5b5090506101a291906101f8565b5090565b8280548282559060005260206000209081019282156101e7579160200282015b828111156101e6578251829060ff169055916020019190600101906101c6565b5b5090506101f491906101f8565b5090565b5b808211156102115760008160009055506001016101f9565b5090565b610241806102246000396000f3fe6080604052600436106100915760003560e01c8063778dfe2d11610059578063778dfe2d146100c8578063b791938e146100d2578063c896bbb0146100dc578063e8d76c95146100e6578063fe25fbe7146100f057610091565b806306050b961461009657806306a18519146100a057806313f2d65c146100aa5780636af88e1b146100b457806376bde603146100be575b600080fd5b61009e6100fa565b005b6100a8610114565b005b6100b261011e565b005b6100bc610127565b005b6100c6610141565b005b6100d0610153565b005b6100da610165565b005b6100e4610187565b005b6100ee610199565b005b6100f86101bb565b005b600060068190555060006007819055506000600881905550565b6000600381905550565b60008081905550565b6000600d819055506000600e819055506001600f81905550565b60006004819055506000600581905550565b60006001819055506001600281905550565b600a600060028152602001908152602001600020600061018591906101cd565b565b60006010819055506002601181905550565b600960006002815260200190815260200160002060006101b991906101cd565b565b6000600b819055506001600c81905550565b50805460008255906000526020600020908101906101eb91906101ee565b50565b5b808211156102075760008160009055506001016101ef565b509056fea264697066735822122079548468f66192c591ad7a38ae50f33ace8e78465a1cb7e897c785510343a42464736f6c63430008070033",
			"opcodes": "PUSH1 0x80 PUSH1 0x40 MSTORE PUSH1 0x1 PUSH1 0x0 SSTORE PUSH1 0x1 DUP1 SSTORE PUSH1 0x0 PUSH1 0x2 SSTORE PUSH1 0x1 PUSH1 0x3 SSTORE PUSH1 0x1 PUSH1 0x4 SSTORE PUSH1 0x1 PUSH1 0x5 SSTORE PUSH1 0x1 PUSH1 0x6 SSTORE PUSH1 0x1 PUSH1 0x7 SSTORE PUSH1 0x1 PUSH1 0x8 SSTORE PUSH1 0x1 PUSH1 0xB SSTORE PUSH1 0x0 PUSH1 0xC SSTORE PUSH1 0x1 PUSH1 0xD SSTORE PUSH1 0x1 PUSH1 0xE SSTORE PUSH1 0x0 PUSH1 0xF SSTORE PUSH1 0x1 PUSH1 0x10 SSTORE PUSH1 0x1 PUSH1 0x11 SSTORE CALLVALUE DUP1 ISZERO PUSH2 0x5F JUMPI PUSH1 0x0 DUP1 REVERT JUMPDEST POP PUSH1 0x40 MLOAD DUP1 PUSH1 0x60 ADD PUSH1 0x40 MSTORE DUP1 PUSH1 0x1 PUSH1 0xFF AND DUP2 MSTORE PUSH1 0x20 ADD PUSH1 0x2 PUSH1 0xFF AND DUP2 MSTORE PUSH1 0x20 ADD PUSH1 0x3 PUSH1 0xFF AND DUP2 MSTORE POP PUSH1 0x9 PUSH1 0x0 PUSH1 0x2 DUP2 MSTORE PUSH1 0x20 ADD SWAP1 DUP2 MSTORE PUSH1 0x20 ADD PUSH1 0x0 KECCAK256 SWAP1 PUSH1 0x3 PUSH2 0xA9 SWAP3 SWAP2 SWAP1 PUSH2 0x154 JUMP JUMPDEST POP PUSH1 0x40 MLOAD DUP1 PUSH2 0x180 ADD PUSH1 0x40 MSTORE DUP1 PUSH1 0x1 PUSH1 0xFF AND DUP2 MSTORE PUSH1 0x20 ADD PUSH1 0x2 PUSH1 0xFF AND DUP2 MSTORE PUSH1 0x20 ADD PUSH1 0x3 PUSH1 0xFF AND DUP2 MSTORE PUSH1 0x20 ADD PUSH1 0x4 PUSH1 0xFF AND DUP2 MSTORE PUSH1 0x20 ADD PUSH1 0x5 PUSH1 0xFF AND DUP2 MSTORE PUSH1 0x20 ADD PUSH1 0x6 PUSH1 0xFF AND DUP2 MSTORE PUSH1 0x20 ADD PUSH1 0x7 PUSH1 0xFF AND DUP2 MSTORE PUSH1 0x20 ADD PUSH1 0x8 PUSH1 0xFF AND DUP2 MSTORE PUSH1 0x20 ADD PUSH1 0x9 PUSH1 0xFF AND DUP2 MSTORE PUSH1 0x20 ADD PUSH1 0xA PUSH1 0xFF AND DUP2 MSTORE PUSH1 0x20 ADD PUSH1 0xB PUSH1 0xFF AND DUP2 MSTORE PUSH1 0x20 ADD PUSH1 0xC PUSH1 0xFF AND DUP2 MSTORE POP PUSH1 0xA PUSH1 0x0 PUSH1 0x2 DUP2 MSTORE PUSH1 0x20 ADD SWAP1 DUP2 MSTORE PUSH1 0x20 ADD PUSH1 0x0 KECCAK256 SWAP1 PUSH1 0xC PUSH2 0x14E SWAP3 SWAP2 SWAP1 PUSH2 0x1A6 JUMP JUMPDEST POP PUSH2 0x215 JUMP JUMPDEST DUP3 DUP1 SLOAD DUP3 DUP3 SSTORE SWAP1 PUSH1 0x0 MSTORE PUSH1 0x20 PUSH1 0x0 KECCAK256 SWAP1 DUP2 ADD SWAP3 DUP3 ISZERO PUSH2 0x195 JUMPI SWAP2 PUSH1 0x20 MUL DUP3 ADD JUMPDEST DUP3 DUP2 GT ISZERO PUSH2 0x194 JUMPI DUP3 MLOAD DUP3 SWAP1 PUSH1 0xFF AND SWAP1 SSTORE SWAP2 PUSH1 0x20 ADD SWAP2 SWAP1 PUSH1 0x1 ADD SWAP1 PUSH2 0x174 JUMP JUMPDEST JUMPDEST POP SWAP1 POP PUSH2 0x1A2 SWAP2 SWAP1 PUSH2 0x1F8 JUMP JUMPDEST POP SWAP1 JUMP JUMPDEST DUP3 DUP1 SLOAD DUP3 DUP3 SSTORE SWAP1 PUSH1 0x0 MSTORE PUSH1 0x20 PUSH1 0x0 KECCAK256 SWAP1 DUP2 ADD SWAP3 DUP3 ISZERO PUSH2 0x1E7 JUMPI SWAP2 PUSH1 0x20 MUL DUP3 ADD JUMPDEST DUP3 DUP2 GT ISZERO PUSH2 0x1E6 JUMPI DUP3 MLOAD DUP3 SWAP1 PUSH1 0xFF AND SWAP1 SSTORE SWAP2 PUSH1 0x20 ADD SWAP2 SWAP1 PUSH1 0x1 ADD SWAP1 PUSH2 0x1C6 JUMP JUMPDEST JUMPDEST POP SWAP1 POP PUSH2 0x1F4 SWAP2 SWAP1 PUSH2 0x1F8 JUMP JUMPDEST POP SWAP1 JUMP JUMPDEST JUMPDEST DUP1 DUP3 GT ISZERO PUSH2 0x211 JUMPI PUSH1 0x0 DUP2 PUSH1 0x0 SWAP1 SSTORE POP PUSH1 0x1 ADD PUSH2 0x1F9 JUMP JUMPDEST POP SWAP1 JUMP JUMPDEST PUSH2 0x241 DUP1 PUSH2 0x224 PUSH1 0x0 CODECOPY PUSH1 0x0 RETURN INVALID PUSH1 0x80 PUSH1 0x40 MSTORE PUSH1 0x4 CALLDATASIZE LT PUSH2 0x91 JUMPI PUSH1 0x0 CALLDATALOAD PUSH1 0xE0 SHR DUP1 PUSH4 0x778DFE2D GT PUSH2 0x59 JUMPI DUP1 PUSH4 0x778DFE2D EQ PUSH2 0xC8 JUMPI DUP1 PUSH4 0xB791938E EQ PUSH2 0xD2 JUMPI DUP1 PUSH4 0xC896BBB0 EQ PUSH2 0xDC JUMPI DUP1 PUSH4 0xE8D76C95 EQ PUSH2 0xE6 JUMPI DUP1 PUSH4 0xFE25FBE7 EQ PUSH2 0xF0 JUMPI PUSH2 0x91 JUMP JUMPDEST DUP1 PUSH4 0x6050B96 EQ PUSH2 0x96 JUMPI DUP1 PUSH4 0x6A18519 EQ PUSH2 0xA0 JUMPI DUP1 PUSH4 0x13F2D65C EQ PUSH2 0xAA JUMPI DUP1 PUSH4 0x6AF88E1B EQ PUSH2 0xB4 JUMPI DUP1 PUSH4 0x76BDE603 EQ PUSH2 0xBE JUMPI JUMPDEST PUSH1 0x0 DUP1 REVERT JUMPDEST PUSH2 0x9E PUSH2 0xFA JUMP JUMPDEST STOP JUMPDEST PUSH2 0xA8 PUSH2 0x114 JUMP JUMPDEST STOP JUMPDEST PUSH2 0xB2 PUSH2 0x11E JUMP JUMPDEST STOP JUMPDEST PUSH2 0xBC PUSH2 0x127 JUMP JUMPDEST STOP JUMPDEST PUSH2 0xC6 PUSH2 0x141 JUMP JUMPDEST STOP JUMPDEST PUSH2 0xD0 PUSH2 0x153 JUMP JUMPDEST STOP JUMPDEST PUSH2 0xDA PUSH2 0x165 JUMP JUMPDEST STOP JUMPDEST PUSH2 0xE4 PUSH2 0x187 JUMP JUMPDEST STOP JUMPDEST PUSH2 0xEE PUSH2 0x199 JUMP JUMPDEST STOP JUMPDEST PUSH2 0xF8 PUSH2 0x1BB JUMP JUMPDEST STOP JUMPDEST PUSH1 0x0 PUSH1 0x6 DUP2 SWAP1 SSTORE POP PUSH1 0x0 PUSH1 0x7 DUP2 SWAP1 SSTORE POP PUSH1 0x0 PUSH1 0x8 DUP2 SWAP1 SSTORE POP JUMP JUMPDEST PUSH1 0x0 PUSH1 0x3 DUP2 SWAP1 SSTORE POP JUMP JUMPDEST PUSH1 0x0 DUP1 DUP2 SWAP1 SSTORE POP JUMP JUMPDEST PUSH1 0x0 PUSH1 0xD DUP2 SWAP1 SSTORE POP PUSH1 0x0 PUSH1 0xE DUP2 SWAP1 SSTORE POP PUSH1 0x1 PUSH1 0xF DUP2 SWAP1 SSTORE POP JUMP JUMPDEST PUSH1 0x0 PUSH1 0x4 DUP2 SWAP1 SSTORE POP PUSH1 0x0 PUSH1 0x5 DUP2 SWAP1 SSTORE POP JUMP JUMPDEST PUSH1 0x0 PUSH1 0x1 DUP2 SWAP1 SSTORE POP PUSH1 0x1 PUSH1 0x2 DUP2 SWAP1 SSTORE POP JUMP JUMPDEST PUSH1 0xA PUSH1 0x0 PUSH1 0x2 DUP2 MSTORE PUSH1 0x20 ADD SWAP1 DUP2 MSTORE PUSH1 0x20 ADD PUSH1 0x0 KECCAK256 PUSH1 0x0 PUSH2 0x185 SWAP2 SWAP1 PUSH2 0x1CD JUMP JUMPDEST JUMP JUMPDEST PUSH1 0x0 PUSH1 0x10 DUP2 SWAP1 SSTORE POP PUSH1 0x2 PUSH1 0x11 DUP2 SWAP1 SSTORE POP JUMP JUMPDEST PUSH1 0x9 PUSH1 0x0 PUSH1 0x2 DUP2 MSTORE PUSH1 0x20 ADD SWAP1 DUP2 MSTORE PUSH1 0x20 ADD PUSH1 0x0 KECCAK256 PUSH1 0x0 PUSH2 0x1B9 SWAP2 SWAP1 PUSH2 0x1CD JUMP JUMPDEST JUMP JUMPDEST PUSH1 0x0 PUSH1 0xB DUP2 SWAP1 SSTORE POP PUSH1 0x1 PUSH1 0xC DUP2 SWAP1 SSTORE POP JUMP JUMPDEST POP DUP1 SLOAD PUSH1 0x0 DUP3 SSTORE SWAP1 PUSH1 0x0 MSTORE PUSH1 0x20 PUSH1 0x0 KECCAK256 SWAP1 DUP2 ADD SWAP1 PUSH2 0x1EB SWAP2 SWAP1 PUSH2 0x1EE JUMP JUMPDEST POP JUMP JUMPDEST JUMPDEST DUP1 DUP3 GT ISZERO PUSH2 0x207 JUMPI PUSH1 0x0 DUP2 PUSH1 0x0 SWAP1 SSTORE POP PUSH1 0x1 ADD PUSH2 0x1EF JUMP JUMPDEST POP SWAP1 JUMP INVALID LOG2 PUSH5 0x6970667358 0x22 SLT KECCAK256 PUSH26 0x548468F66192C591AD7A38AE50F33ACE8E78465A1CB7E897C785 MLOAD SUB NUMBER LOG4 0x24 PUSH5 0x736F6C6343 STOP ADDMOD SMOD STOP CALLER "
		},
		"gasEstimates": {
			"creation": {
				"codeDepositCost": "115400",
				"executionCost": "infinite",
				"totalCost": "infinite"
			},
			"external": {
				"case0Berlin()": "5179",
				"case1()": "5157",
				"case1Berlin()": "27248",
				"case2()": "10237",
				"case3()": "15163",
				"case4a()": "infinite",
				"case4b()": "infinite",
				"case5()": "27336",
				"case6()": "32329",
				"case7()": "27292"
			}
		},
		"methodIdentifiers": {
			"case0Berlin()": "13f2d65c",
			"case1()": "06a18519",
			"case1Berlin()": "778dfe2d",
			"case2()": "76bde603",
			"case3()": "06050b96",
			"case4a()": "e8d76c95",
			"case4b()": "b791938e",
			"case5()": "fe25fbe7",
			"case6()": "6af88e1b",
			"case7()": "c896bbb0"
		}
	},
	"abi": [
		{
			"inputs": [],
			"stateMutability": "nonpayable",
			"type": "constructor"
		},
		{
			"inputs": [],
			"name": "case0Berlin",
			"outputs": [],
			"stateMutability": "payable",
			"type": "function"
		},
		{
			"inputs": [],
			"name": "case1",
			"outputs": [],
			"stateMutability": "payable",
			"type": "function"
		},
		{
			"inputs": [],
			"name": "case1Berlin",
			"outputs": [],
			"stateMutability": "payable",
			"type": "function"
		},
		{
			"inputs": [],
			"name": "case2",
			"outputs": [],
			"stateMutability": "payable",
			"type": "function"
		},
		{
			"inputs": [],
			"name": "case3",
			"outputs": [],
			"stateMutability": "payable",
			"type": "function"
		},
		{
			"inputs": [],
			"name": "case4a",
			"outputs": [],
			"stateMutability": "payable",
			"type": "function"
		},
		{
			"inputs": [],
			"name": "case4b",
			"outputs": [],
			"stateMutability": "payable",
			"type": "function"
		},
		{
			"inputs": [],
			"name": "case5",
			"outputs": [],
			"stateMutability": "payable",
			"type": "function"
		},
		{
			"inputs": [],
			"name": "case6",
			"outputs": [],
			"stateMutability": "payable",
			"type": "function"
		},
		{
			"inputs": [],
			"name": "case7",
			"outputs": [],
			"stateMutability": "payable",
			"type": "function"
		}
	]
}