{
	"data": {
		"bytecode": {
			"linkReferences": {},
			"object": "608060405234801561000f575f80fd5b506101128061001d5f395ff3fe6080604052348015600e575f80fd5b5060043610603a575f3560e01c80632e966d5514603e5780636e75e7261460465780637edab86e14604e575b5f80fd5b60446056565b005b604c605f565b005b60546068565b005b605c6071565b50565b60656096565b50565b606e60b9565b50565b604051806204e200016040528061271090602082028036833780820191505090505090565b604051806101400160405280600a90602082028036833780820191505090505090565b60405180610280016040528060149060208202803683378082019150509050509056fea2646970667358221220fd4f756d2e813cb7a92f3b97243c4204462a20d31ba89382e002c360223f804364736f6c63430008140033",
			"opcodes": "PUSH1 0x80 PUSH1 0x40 MSTORE CALLVALUE DUP1 ISZERO PUSH2 0xF JUMPI PUSH0 DUP1 REVERT JUMPDEST POP PUSH2 0x112 DUP1 PUSH2 0x1D PUSH0 CODECOPY PUSH0 RETURN INVALID PUSH1 0x80 PUSH1 0x40 MSTORE CALLVALUE DUP1 ISZERO PUSH1 0xE JUMPI PUSH0 DUP1 REVERT JUMPDEST POP PUSH1 0x4 CALLDATASIZE LT PUSH1 0x3A JUMPI PUSH0 CALLDATALOAD PUSH1 0xE0 SHR DUP1 PUSH4 0x2E966D55 EQ PUSH1 0x3E JUMPI DUP1 PUSH4 0x6E75E726 EQ PUSH1 0x46 JUMPI DUP1 PUSH4 0x7EDAB86E EQ PUSH1 0x4E JUMPI JUMPDEST PUSH0 DUP1 REVERT JUMPDEST PUSH1 0x44 PUSH1 0x56 JUMP JUMPDEST STOP JUMPDEST PUSH1 0x4C PUSH1 0x5F JUMP JUMPDEST STOP JUMPDEST PUSH1 0x54 PUSH1 0x68 JUMP JUMPDEST STOP JUMPDEST PUSH1 0x5C PUSH1 0x71 JUMP JUMPDEST POP JUMP JUMPDEST PUSH1 0x65 PUSH1 0x96 JUMP JUMPDEST POP JUMP JUMPDEST PUSH1 0x6E PUSH1 0xB9 JUMP JUMPDEST POP JUMP JUMPDEST PUSH1 0x40 MLOAD DUP1 PUSH3 0x4E200 ADD PUSH1 0x40 MSTORE DUP1 PUSH2 0x2710 SWAP1 PUSH1 0x20 DUP3 MUL DUP1 CALLDATASIZE DUP4 CALLDATACOPY DUP1 DUP3 ADD SWAP2 POP POP SWAP1 POP POP SWAP1 JUMP JUMPDEST PUSH1 0x40 MLOAD DUP1 PUSH2 0x140 ADD PUSH1 0x40 MSTORE DUP1 PUSH1 0xA SWAP1 PUSH1 0x20 DUP3 MUL DUP1 CALLDATASIZE DUP4 CALLDATACOPY DUP1 DUP3 ADD SWAP2 POP POP SWAP1 POP POP SWAP1 JUMP JUMPDEST PUSH1 0x40 MLOAD DUP1 PUSH2 0x280 ADD PUSH1 0x40 MSTORE DUP1 PUSH1 0x14 SWAP1 PUSH1 0x20 DUP3 MUL DUP1 CALLDATASIZE DUP4 CALLDATACOPY DUP1 DUP3 ADD SWAP2 POP POP SWAP1 POP POP SWAP1 JUMP INVALID LOG2 PUSH5 0x6970667358 0x22 SLT KECCAK256 REVERT 0x4F PUSH22 0x6D2E813CB7A92F3B97243C4204462A20D31BA89382E0 MUL 0xC3 PUSH1 0x22 EXTCODEHASH DUP1 NUMBER PUSH5 0x736F6C6343 STOP ADDMOD EQ STOP CALLER "
		},
		"gasEstimates": {
			"creation": {
				"codeDepositCost": "54800",
				"executionCost": "103",
				"totalCost": "54903"
			},
			"external": {
				"testMemoryV1()": "310",
				"testMemoryV2()": "393",
				"testMemoryV3()": "255696"
			}
		},
		"methodIdentifiers": {
			"testMemoryV1()": "6e75e726",
			"testMemoryV2()": "7edab86e",
			"testMemoryV3()": "2e966d55"
		}
	},
	"abi": [
		{
			"inputs": [],
			"name": "testMemoryV1",
			"outputs": [],
			"stateMutability": "pure",
			"type": "function"
		},
		{
			"inputs": [],
			"name": "testMemoryV2",
			"outputs": [],
			"stateMutability": "pure",
			"type": "function"
		},
		{
			"inputs": [],
			"name": "testMemoryV3",
			"outputs": [],
			"stateMutability": "pure",
			"type": "function"
		}
	]
}