{
	"data": {
		"bytecode": {
			"linkReferences": {},
			"object": "608060405234801561000f575f80fd5b506106f38061001d5f395ff3fe608060405234801561000f575f80fd5b5060043610610085575f3560e01c806373c82c321161005957806373c82c3214610113578063784a9e4114610131578063cde3729a1461014f578063f9fa48c31461016d57610085565b8062d74564146100895780630f80fc58146100a7578063347e9817146100d757806358931c46146100f5575b5f80fd5b61009161018b565b60405161009e91906102e9565b60405180910390f35b6100c160048036038101906100bc9190610339565b6101f7565b6040516100ce9190610373565b60405180910390f35b6100df610218565b6040516100ec9190610373565b60405180910390f35b6100fd610231565b60405161010a9190610373565b60405180910390f35b61011b610239565b60405161012891906102e9565b60405180910390f35b610139610260565b60405161014691906103a4565b60405180910390f35b61015761028e565b6040516101649190610373565b60405180910390f35b6101756102a7565b6040516101829190610373565b60405180910390f35b5f806040518060400160405280600a81526020017f776974686472617728290000000000000000000000000000000000000000000081525090505f816040516020016101d79190610429565b604051602081830303815290604052805190602001209050809250505090565b5f8160076004610207919061046c565b610211919061046c565b9050919050565b5f806001905080600261022b91906105dc565b91505090565b5f6015905090565b5f7f3ccfd60b2e3ddce51ab210bfb9db13577f03a21684fa35e4bcd739dd5a30bda2905090565b5f60056040516020016102739190610646565b60405160208183030381529060405280519060200120905090565b5f80600290508060166102a1919061068d565b91505090565b5f600b905090565b5f7fffffffff0000000000000000000000000000000000000000000000000000000082169050919050565b6102e3816102af565b82525050565b5f6020820190506102fc5f8301846102da565b92915050565b5f80fd5b5f819050919050565b61031881610306565b8114610322575f80fd5b50565b5f813590506103338161030f565b92915050565b5f6020828403121561034e5761034d610302565b5b5f61035b84828501610325565b91505092915050565b61036d81610306565b82525050565b5f6020820190506103865f830184610364565b92915050565b5f819050919050565b61039e8161038c565b82525050565b5f6020820190506103b75f830184610395565b92915050565b5f81519050919050565b5f81905092915050565b5f5b838110156103ee5780820151818401526020810190506103d3565b5f8484015250505050565b5f610403826103bd565b61040d81856103c7565b935061041d8185602086016103d1565b80840191505092915050565b5f61043482846103f9565b915081905092915050565b7f4e487b71000000000000000000000000000000000000000000000000000000005f52601160045260245ffd5b5f61047682610306565b915061048183610306565b925082820261048f81610306565b915082820484148315176104a6576104a561043f565b5b5092915050565b5f8160011c9050919050565b5f808291508390505b6001851115610502578086048111156104de576104dd61043f565b5b60018516156104ed5780820291505b80810290506104fb856104ad565b94506104c2565b94509492505050565b5f8261051a57600190506105d5565b81610527575f90506105d5565b816001811461053d576002811461054757610576565b60019150506105d5565b60ff8411156105595761055861043f565b5b8360020a9150848211156105705761056f61043f565b5b506105d5565b5060208310610133831016604e8410600b84101617156105ab5782820a9050838111156105a6576105a561043f565b5b6105d5565b6105b884848460016104b9565b925090508184048111156105cf576105ce61043f565b5b81810290505b9392505050565b5f6105e682610306565b91506105f183610306565b925061061e7fffffffffffffffffffffffffffffffffffffffffffffffffffffffffffffffff848461050b565b905092915050565b5f819050919050565b61064061063b82610306565b610626565b82525050565b5f610651828461062f565b60208201915081905092915050565b7f4e487b71000000000000000000000000000000000000000000000000000000005f52601260045260245ffd5b5f61069782610306565b91506106a283610306565b9250826106b2576106b1610660565b5b82820490509291505056fea26469706673582212205b5016b0ddeddd92728337a16abca0db76956b0cc5986370d1c4fd62d81c7de064736f6c63430008140033",
			"opcodes": "PUSH1 0x80 PUSH1 0x40 MSTORE CALLVALUE DUP1 ISZERO PUSH2 0xF JUMPI PUSH0 DUP1 REVERT JUMPDEST POP PUSH2 0x6F3 DUP1 PUSH2 0x1D PUSH0 CODECOPY PUSH0 RETURN INVALID PUSH1 0x80 PUSH1 0x40 MSTORE CALLVALUE DUP1 ISZERO PUSH2 0xF JUMPI PUSH0 DUP1 REVERT JUMPDEST POP PUSH1 0x4 CALLDATASIZE LT PUSH2 0x85 JUMPI PUSH0 CALLDATALOAD PUSH1 0xE0 SHR DUP1 PUSH4 0x73C82C32 GT PUSH2 0x59 JUMPI DUP1 PUSH4 0x73C82C32 EQ PUSH2 0x113 JUMPI DUP1 PUSH4 0x784A9E41 EQ PUSH2 0x131 JUMPI DUP1 PUSH4 0xCDE3729A EQ PUSH2 0x14F JUMPI DUP1 PUSH4 0xF9FA48C3 EQ PUSH2 0x16D JUMPI PUSH2 0x85 JUMP JUMPDEST DUP1 PUSH3 0xD74564 EQ PUSH2 0x89 JUMPI DUP1 PUSH4 0xF80FC58 EQ PUSH2 0xA7 JUMPI DUP1 PUSH4 0x347E9817 EQ PUSH2 0xD7 JUMPI DUP1 PUSH4 0x58931C46 EQ PUSH2 0xF5 JUMPI JUMPDEST PUSH0 DUP1 REVERT JUMPDEST PUSH2 0x91 PUSH2 0x18B JUMP JUMPDEST PUSH1 0x40 MLOAD PUSH2 0x9E SWAP2 SWAP1 PUSH2 0x2E9 JUMP JUMPDEST PUSH1 0x40 MLOAD DUP1 SWAP2 SUB SWAP1 RETURN JUMPDEST PUSH2 0xC1 PUSH1 0x4 DUP1 CALLDATASIZE SUB DUP2 ADD SWAP1 PUSH2 0xBC SWAP2 SWAP1 PUSH2 0x339 JUMP JUMPDEST PUSH2 0x1F7 JUMP JUMPDEST PUSH1 0x40 MLOAD PUSH2 0xCE SWAP2 SWAP1 PUSH2 0x373 JUMP JUMPDEST PUSH1 0x40 MLOAD DUP1 SWAP2 SUB SWAP1 RETURN JUMPDEST PUSH2 0xDF PUSH2 0x218 JUMP JUMPDEST PUSH1 0x40 MLOAD PUSH2 0xEC SWAP2 SWAP1 PUSH2 0x373 JUMP JUMPDEST PUSH1 0x40 MLOAD DUP1 SWAP2 SUB SWAP1 RETURN JUMPDEST PUSH2 0xFD PUSH2 0x231 JUMP JUMPDEST PUSH1 0x40 MLOAD PUSH2 0x10A SWAP2 SWAP1 PUSH2 0x373 JUMP JUMPDEST PUSH1 0x40 MLOAD DUP1 SWAP2 SUB SWAP1 RETURN JUMPDEST PUSH2 0x11B PUSH2 0x239 JUMP JUMPDEST PUSH1 0x40 MLOAD PUSH2 0x128 SWAP2 SWAP1 PUSH2 0x2E9 JUMP JUMPDEST PUSH1 0x40 MLOAD DUP1 SWAP2 SUB SWAP1 RETURN JUMPDEST PUSH2 0x139 PUSH2 0x260 JUMP JUMPDEST PUSH1 0x40 MLOAD PUSH2 0x146 SWAP2 SWAP1 PUSH2 0x3A4 JUMP JUMPDEST PUSH1 0x40 MLOAD DUP1 SWAP2 SUB SWAP1 RETURN JUMPDEST PUSH2 0x157 PUSH2 0x28E JUMP JUMPDEST PUSH1 0x40 MLOAD PUSH2 0x164 SWAP2 SWAP1 PUSH2 0x373 JUMP JUMPDEST PUSH1 0x40 MLOAD DUP1 SWAP2 SUB SWAP1 RETURN JUMPDEST PUSH2 0x175 PUSH2 0x2A7 JUMP JUMPDEST PUSH1 0x40 MLOAD PUSH2 0x182 SWAP2 SWAP1 PUSH2 0x373 JUMP JUMPDEST PUSH1 0x40 MLOAD DUP1 SWAP2 SUB SWAP1 RETURN JUMPDEST PUSH0 DUP1 PUSH1 0x40 MLOAD DUP1 PUSH1 0x40 ADD PUSH1 0x40 MSTORE DUP1 PUSH1 0xA DUP2 MSTORE PUSH1 0x20 ADD PUSH32 0x7769746864726177282900000000000000000000000000000000000000000000 DUP2 MSTORE POP SWAP1 POP PUSH0 DUP2 PUSH1 0x40 MLOAD PUSH1 0x20 ADD PUSH2 0x1D7 SWAP2 SWAP1 PUSH2 0x429 JUMP JUMPDEST PUSH1 0x40 MLOAD PUSH1 0x20 DUP2 DUP4 SUB SUB DUP2 MSTORE SWAP1 PUSH1 0x40 MSTORE DUP1 MLOAD SWAP1 PUSH1 0x20 ADD KECCAK256 SWAP1 POP DUP1 SWAP3 POP POP POP SWAP1 JUMP JUMPDEST PUSH0 DUP2 PUSH1 0x7 PUSH1 0x4 PUSH2 0x207 SWAP2 SWAP1 PUSH2 0x46C JUMP JUMPDEST PUSH2 0x211 SWAP2 SWAP1 PUSH2 0x46C JUMP JUMPDEST SWAP1 POP SWAP2 SWAP1 POP JUMP JUMPDEST PUSH0 DUP1 PUSH1 0x1 SWAP1 POP DUP1 PUSH1 0x2 PUSH2 0x22B SWAP2 SWAP1 PUSH2 0x5DC JUMP JUMPDEST SWAP2 POP POP SWAP1 JUMP JUMPDEST PUSH0 PUSH1 0x15 SWAP1 POP SWAP1 JUMP JUMPDEST PUSH0 PUSH32 0x3CCFD60B2E3DDCE51AB210BFB9DB13577F03A21684FA35E4BCD739DD5A30BDA2 SWAP1 POP SWAP1 JUMP JUMPDEST PUSH0 PUSH1 0x5 PUSH1 0x40 MLOAD PUSH1 0x20 ADD PUSH2 0x273 SWAP2 SWAP1 PUSH2 0x646 JUMP JUMPDEST PUSH1 0x40 MLOAD PUSH1 0x20 DUP2 DUP4 SUB SUB DUP2 MSTORE SWAP1 PUSH1 0x40 MSTORE DUP1 MLOAD SWAP1 PUSH1 0x20 ADD KECCAK256 SWAP1 POP SWAP1 JUMP JUMPDEST PUSH0 DUP1 PUSH1 0x2 SWAP1 POP DUP1 PUSH1 0x16 PUSH2 0x2A1 SWAP2 SWAP1 PUSH2 0x68D JUMP JUMPDEST SWAP2 POP POP SWAP1 JUMP JUMPDEST PUSH0 PUSH1 0xB SWAP1 POP SWAP1 JUMP JUMPDEST PUSH0 PUSH32 0xFFFFFFFF00000000000000000000000000000000000000000000000000000000 DUP3 AND SWAP1 POP SWAP2 SWAP1 POP JUMP JUMPDEST PUSH2 0x2E3 DUP2 PUSH2 0x2AF JUMP JUMPDEST DUP3 MSTORE POP POP JUMP JUMPDEST PUSH0 PUSH1 0x20 DUP3 ADD SWAP1 POP PUSH2 0x2FC PUSH0 DUP4 ADD DUP5 PUSH2 0x2DA JUMP JUMPDEST SWAP3 SWAP2 POP POP JUMP JUMPDEST PUSH0 DUP1 REVERT JUMPDEST PUSH0 DUP2 SWAP1 POP SWAP2 SWAP1 POP JUMP JUMPDEST PUSH2 0x318 DUP2 PUSH2 0x306 JUMP JUMPDEST DUP2 EQ PUSH2 0x322 JUMPI PUSH0 DUP1 REVERT JUMPDEST POP JUMP JUMPDEST PUSH0 DUP2 CALLDATALOAD SWAP1 POP PUSH2 0x333 DUP2 PUSH2 0x30F JUMP JUMPDEST SWAP3 SWAP2 POP POP JUMP JUMPDEST PUSH0 PUSH1 0x20 DUP3 DUP5 SUB SLT ISZERO PUSH2 0x34E JUMPI PUSH2 0x34D PUSH2 0x302 JUMP JUMPDEST JUMPDEST PUSH0 PUSH2 0x35B DUP5 DUP3 DUP6 ADD PUSH2 0x325 JUMP JUMPDEST SWAP2 POP POP SWAP3 SWAP2 POP POP JUMP JUMPDEST PUSH2 0x36D DUP2 PUSH2 0x306 JUMP JUMPDEST DUP3 MSTORE POP POP JUMP JUMPDEST PUSH0 PUSH1 0x20 DUP3 ADD SWAP1 POP PUSH2 0x386 PUSH0 DUP4 ADD DUP5 PUSH2 0x364 JUMP JUMPDEST SWAP3 SWAP2 POP POP JUMP JUMPDEST PUSH0 DUP2 SWAP1 POP SWAP2 SWAP1 POP JUMP JUMPDEST PUSH2 0x39E DUP2 PUSH2 0x38C JUMP JUMPDEST DUP3 MSTORE POP POP JUMP JUMPDEST PUSH0 PUSH1 0x20 DUP3 ADD SWAP1 POP PUSH2 0x3B7 PUSH0 DUP4 ADD DUP5 PUSH2 0x395 JUMP JUMPDEST SWAP3 SWAP2 POP POP JUMP JUMPDEST PUSH0 DUP2 MLOAD SWAP1 POP SWAP2 SWAP1 POP JUMP JUMPDEST PUSH0 DUP2 SWAP1 POP SWAP3 SWAP2 POP POP JUMP JUMPDEST PUSH0 JUMPDEST DUP4 DUP2 LT ISZERO PUSH2 0x3EE JUMPI DUP1 DUP3 ADD MLOAD DUP2 DUP5 ADD MSTORE PUSH1 0x20 DUP2 ADD SWAP1 POP PUSH2 0x3D3 JUMP JUMPDEST PUSH0 DUP5 DUP5 ADD MSTORE POP POP POP POP JUMP JUMPDEST PUSH0 PUSH2 0x403 DUP3 PUSH2 0x3BD JUMP JUMPDEST PUSH2 0x40D DUP2 DUP6 PUSH2 0x3C7 JUMP JUMPDEST SWAP4 POP PUSH2 0x41D DUP2 DUP6 PUSH1 0x20 DUP7 ADD PUSH2 0x3D1 JUMP JUMPDEST DUP1 DUP5 ADD SWAP2 POP POP SWAP3 SWAP2 POP POP JUMP JUMPDEST PUSH0 PUSH2 0x434 DUP3 DUP5 PUSH2 0x3F9 JUMP JUMPDEST SWAP2 POP DUP2 SWAP1 POP SWAP3 SWAP2 POP POP JUMP JUMPDEST PUSH32 0x4E487B7100000000000000000000000000000000000000000000000000000000 PUSH0 MSTORE PUSH1 0x11 PUSH1 0x4 MSTORE PUSH1 0x24 PUSH0 REVERT JUMPDEST PUSH0 PUSH2 0x476 DUP3 PUSH2 0x306 JUMP JUMPDEST SWAP2 POP PUSH2 0x481 DUP4 PUSH2 0x306 JUMP JUMPDEST SWAP3 POP DUP3 DUP3 MUL PUSH2 0x48F DUP2 PUSH2 0x306 JUMP JUMPDEST SWAP2 POP DUP3 DUP3 DIV DUP5 EQ DUP4 ISZERO OR PUSH2 0x4A6 JUMPI PUSH2 0x4A5 PUSH2 0x43F JUMP JUMPDEST JUMPDEST POP SWAP3 SWAP2 POP POP JUMP JUMPDEST PUSH0 DUP2 PUSH1 0x1 SHR SWAP1 POP SWAP2 SWAP1 POP JUMP JUMPDEST PUSH0 DUP1 DUP3 SWAP2 POP DUP4 SWAP1 POP JUMPDEST PUSH1 0x1 DUP6 GT ISZERO PUSH2 0x502 JUMPI DUP1 DUP7 DIV DUP2 GT ISZERO PUSH2 0x4DE JUMPI PUSH2 0x4DD PUSH2 0x43F JUMP JUMPDEST JUMPDEST PUSH1 0x1 DUP6 AND ISZERO PUSH2 0x4ED JUMPI DUP1 DUP3 MUL SWAP2 POP JUMPDEST DUP1 DUP2 MUL SWAP1 POP PUSH2 0x4FB DUP6 PUSH2 0x4AD JUMP JUMPDEST SWAP5 POP PUSH2 0x4C2 JUMP JUMPDEST SWAP5 POP SWAP5 SWAP3 POP POP POP JUMP JUMPDEST PUSH0 DUP3 PUSH2 0x51A JUMPI PUSH1 0x1 SWAP1 POP PUSH2 0x5D5 JUMP JUMPDEST DUP2 PUSH2 0x527 JUMPI PUSH0 SWAP1 POP PUSH2 0x5D5 JUMP JUMPDEST DUP2 PUSH1 0x1 DUP2 EQ PUSH2 0x53D JUMPI PUSH1 0x2 DUP2 EQ PUSH2 0x547 JUMPI PUSH2 0x576 JUMP JUMPDEST PUSH1 0x1 SWAP2 POP POP PUSH2 0x5D5 JUMP JUMPDEST PUSH1 0xFF DUP5 GT ISZERO PUSH2 0x559 JUMPI PUSH2 0x558 PUSH2 0x43F JUMP JUMPDEST JUMPDEST DUP4 PUSH1 0x2 EXP SWAP2 POP DUP5 DUP3 GT ISZERO PUSH2 0x570 JUMPI PUSH2 0x56F PUSH2 0x43F JUMP JUMPDEST JUMPDEST POP PUSH2 0x5D5 JUMP JUMPDEST POP PUSH1 0x20 DUP4 LT PUSH2 0x133 DUP4 LT AND PUSH1 0x4E DUP5 LT PUSH1 0xB DUP5 LT AND OR ISZERO PUSH2 0x5AB JUMPI DUP3 DUP3 EXP SWAP1 POP DUP4 DUP2 GT ISZERO PUSH2 0x5A6 JUMPI PUSH2 0x5A5 PUSH2 0x43F JUMP JUMPDEST JUMPDEST PUSH2 0x5D5 JUMP JUMPDEST PUSH2 0x5B8 DUP5 DUP5 DUP5 PUSH1 0x1 PUSH2 0x4B9 JUMP JUMPDEST SWAP3 POP SWAP1 POP DUP2 DUP5 DIV DUP2 GT ISZERO PUSH2 0x5CF JUMPI PUSH2 0x5CE PUSH2 0x43F JUMP JUMPDEST JUMPDEST DUP2 DUP2 MUL SWAP1 POP JUMPDEST SWAP4 SWAP3 POP POP POP JUMP JUMPDEST PUSH0 PUSH2 0x5E6 DUP3 PUSH2 0x306 JUMP JUMPDEST SWAP2 POP PUSH2 0x5F1 DUP4 PUSH2 0x306 JUMP JUMPDEST SWAP3 POP PUSH2 0x61E PUSH32 0xFFFFFFFFFFFFFFFFFFFFFFFFFFFFFFFFFFFFFFFFFFFFFFFFFFFFFFFFFFFFFFFF DUP5 DUP5 PUSH2 0x50B JUMP JUMPDEST SWAP1 POP SWAP3 SWAP2 POP POP JUMP JUMPDEST PUSH0 DUP2 SWAP1 POP SWAP2 SWAP1 POP JUMP JUMPDEST PUSH2 0x640 PUSH2 0x63B DUP3 PUSH2 0x306 JUMP JUMPDEST PUSH2 0x626 JUMP JUMPDEST DUP3 MSTORE POP POP JUMP JUMPDEST PUSH0 PUSH2 0x651 DUP3 DUP5 PUSH2 0x62F JUMP JUMPDEST PUSH1 0x20 DUP3 ADD SWAP2 POP DUP2 SWAP1 POP SWAP3 SWAP2 POP POP JUMP JUMPDEST PUSH32 0x4E487B7100000000000000000000000000000000000000000000000000000000 PUSH0 MSTORE PUSH1 0x12 PUSH1 0x4 MSTORE PUSH1 0x24 PUSH0 REVERT JUMPDEST PUSH0 PUSH2 0x697 DUP3 PUSH2 0x306 JUMP JUMPDEST SWAP2 POP PUSH2 0x6A2 DUP4 PUSH2 0x306 JUMP JUMPDEST SWAP3 POP DUP3 PUSH2 0x6B2 JUMPI PUSH2 0x6B1 PUSH2 0x660 JUMP JUMPDEST JUMPDEST DUP3 DUP3 DIV SWAP1 POP SWAP3 SWAP2 POP POP JUMP INVALID LOG2 PUSH5 0x6970667358 0x22 SLT KECCAK256 JUMPDEST POP AND 0xB0 0xDD 0xED 0xDD SWAP3 PUSH19 0x8337A16ABCA0DB76956B0CC5986370D1C4FD62 0xD8 SHR PUSH30 0xE064736F6C63430008140033000000000000000000000000000000000000 "
		},
		"gasEstimates": {
			"creation": {
				"codeDepositCost": "355800",
				"executionCost": "391",
				"totalCost": "356191"
			},
			"external": {
				"div()": "398",
				"divUnoptimized()": "infinite",
				"exponent(uint256)": "infinite",
				"functionSignatureOptimized()": "338",
				"hashNotOptimized()": "650",
				"mul()": "399",
				"multistepNotOptimized()": "infinite",
				"signatureTest()": "infinite"
			}
		},
		"methodIdentifiers": {
			"div()": "f9fa48c3",
			"divUnoptimized()": "cde3729a",
			"exponent(uint256)": "0f80fc58",
			"functionSignatureOptimized()": "73c82c32",
			"hashNotOptimized()": "784a9e41",
			"mul()": "58931c46",
			"multistepNotOptimized()": "347e9817",
			"signatureTest()": "00d74564"
		}
	},
	"abi": [
		{
			"inputs": [],
			"name": "div",
			"outputs": [
				{
					"internalType": "uint256",
					"name": "",
					"type": "uint256"
				}
			],
			"stateMutability": "pure",
			"type": "function"
		},
		{
			"inputs": [],
			"name": "divUnoptimized",
			"outputs": [
				{
					"internalType": "uint256",
					"name": "",
					"type": "uint256"
				}
			],
			"stateMutability": "pure",
			"type": "function"
		},
		{
			"inputs": [
				{
					"internalType": "uint256",
					"name": "i",
					"type": "uint256"
				}
			],
			"name": "exponent",
			"outputs": [
				{
					"internalType": "uint256",
					"name": "",
					"type": "uint256"
				}
			],
			"stateMutability": "pure",
			"type": "function"
		},
		{
			"inputs": [],
			"name": "functionSignatureOptimized",
			"outputs": [
				{
					"internalType": "bytes4",
					"name": "",
					"type": "bytes4"
				}
			],
			"stateMutability": "pure",
			"type": "function"
		},
		{
			"inputs": [],
			"name": "hashNotOptimized",
			"outputs": [
				{
					"internalType": "bytes32",
					"name": "",
					"type": "bytes32"
				}
			],
			"stateMutability": "pure",
			"type": "function"
		},
		{
			"inputs": [],
			"name": "mul",
			"outputs": [
				{
					"internalType": "uint256",
					"name": "",
					"type": "uint256"
				}
			],
			"stateMutability": "pure",
			"type": "function"
		},
		{
			"inputs": [],
			"name": "multistepNotOptimized",
			"outputs": [
				{
					"internalType": "uint256",
					"name": "",
					"type": "uint256"
				}
			],
			"stateMutability": "pure",
			"type": "function"
		},
		{
			"inputs": [],
			"name": "signatureTest",
			"outputs": [
				{
					"internalType": "bytes4",
					"name": "",
					"type": "bytes4"
				}
			],
			"stateMutability": "pure",
			"type": "function"
		}
	]
}