{
	"data": {
		"bytecode": {
			"linkReferences": {},
			"object": "608060405260015f55348015610013575f80fd5b50610214806100215f395ff3fe608060405234801561000f575f80fd5b5060043610610034575f3560e01c80630c55699c146100385780634394f5a914610056575b5f80fd5b610040610086565b60405161004d91906100f4565b60405180910390f35b610070600480360381019061006b919061013b565b61008b565b60405161007d91906100f4565b60405180910390f35b5f5481565b5f815f54901b90505f548110156100d7576040517f08c379a00000000000000000000000000000000000000000000000000000000081526004016100ce906101c0565b60405180910390fd5b919050565b5f819050919050565b6100ee816100dc565b82525050565b5f6020820190506101075f8301846100e5565b92915050565b5f80fd5b61011a816100dc565b8114610124575f80fd5b50565b5f8135905061013581610111565b92915050565b5f602082840312156101505761014f61010d565b5b5f61015d84828501610127565b91505092915050565b5f82825260208201905092915050565b7f6f766572666c6f770000000000000000000000000000000000000000000000005f82015250565b5f6101aa600883610166565b91506101b582610176565b602082019050919050565b5f6020820190508181035f8301526101d78161019e565b905091905056fea2646970667358221220583526d32f292b70ee9e818d83a2abcb0d8e8b2bd2571a0d12981855350ea32164736f6c63430008140033",
			"opcodes": "PUSH1 0x80 PUSH1 0x40 MSTORE PUSH1 0x1 PUSH0 SSTORE CALLVALUE DUP1 ISZERO PUSH2 0x13 JUMPI PUSH0 DUP1 REVERT JUMPDEST POP PUSH2 0x214 DUP1 PUSH2 0x21 PUSH0 CODECOPY PUSH0 RETURN INVALID PUSH1 0x80 PUSH1 0x40 MSTORE CALLVALUE DUP1 ISZERO PUSH2 0xF JUMPI PUSH0 DUP1 REVERT JUMPDEST POP PUSH1 0x4 CALLDATASIZE LT PUSH2 0x34 JUMPI PUSH0 CALLDATALOAD PUSH1 0xE0 SHR DUP1 PUSH4 0xC55699C EQ PUSH2 0x38 JUMPI DUP1 PUSH4 0x4394F5A9 EQ PUSH2 0x56 JUMPI JUMPDEST PUSH0 DUP1 REVERT JUMPDEST PUSH2 0x40 PUSH2 0x86 JUMP JUMPDEST PUSH1 0x40 MLOAD PUSH2 0x4D SWAP2 SWAP1 PUSH2 0xF4 JUMP JUMPDEST PUSH1 0x40 MLOAD DUP1 SWAP2 SUB SWAP1 RETURN JUMPDEST PUSH2 0x70 PUSH1 0x4 DUP1 CALLDATASIZE SUB DUP2 ADD SWAP1 PUSH2 0x6B SWAP2 SWAP1 PUSH2 0x13B JUMP JUMPDEST PUSH2 0x8B JUMP JUMPDEST PUSH1 0x40 MLOAD PUSH2 0x7D SWAP2 SWAP1 PUSH2 0xF4 JUMP JUMPDEST PUSH1 0x40 MLOAD DUP1 SWAP2 SUB SWAP1 RETURN JUMPDEST PUSH0 SLOAD DUP2 JUMP JUMPDEST PUSH0 DUP2 PUSH0 SLOAD SWAP1 SHL SWAP1 POP PUSH0 SLOAD DUP2 LT ISZERO PUSH2 0xD7 JUMPI PUSH1 0x40 MLOAD PUSH32 0x8C379A000000000000000000000000000000000000000000000000000000000 DUP2 MSTORE PUSH1 0x4 ADD PUSH2 0xCE SWAP1 PUSH2 0x1C0 JUMP JUMPDEST PUSH1 0x40 MLOAD DUP1 SWAP2 SUB SWAP1 REVERT JUMPDEST SWAP2 SWAP1 POP JUMP JUMPDEST PUSH0 DUP2 SWAP1 POP SWAP2 SWAP1 POP JUMP JUMPDEST PUSH2 0xEE DUP2 PUSH2 0xDC JUMP JUMPDEST DUP3 MSTORE POP POP JUMP JUMPDEST PUSH0 PUSH1 0x20 DUP3 ADD SWAP1 POP PUSH2 0x107 PUSH0 DUP4 ADD DUP5 PUSH2 0xE5 JUMP JUMPDEST SWAP3 SWAP2 POP POP JUMP JUMPDEST PUSH0 DUP1 REVERT JUMPDEST PUSH2 0x11A DUP2 PUSH2 0xDC JUMP JUMPDEST DUP2 EQ PUSH2 0x124 JUMPI PUSH0 DUP1 REVERT JUMPDEST POP JUMP JUMPDEST PUSH0 DUP2 CALLDATALOAD SWAP1 POP PUSH2 0x135 DUP2 PUSH2 0x111 JUMP JUMPDEST SWAP3 SWAP2 POP POP JUMP JUMPDEST PUSH0 PUSH1 0x20 DUP3 DUP5 SUB SLT ISZERO PUSH2 0x150 JUMPI PUSH2 0x14F PUSH2 0x10D JUMP JUMPDEST JUMPDEST PUSH0 PUSH2 0x15D DUP5 DUP3 DUP6 ADD PUSH2 0x127 JUMP JUMPDEST SWAP2 POP POP SWAP3 SWAP2 POP POP JUMP JUMPDEST PUSH0 DUP3 DUP3 MSTORE PUSH1 0x20 DUP3 ADD SWAP1 POP SWAP3 SWAP2 POP POP JUMP JUMPDEST PUSH32 0x6F766572666C6F77000000000000000000000000000000000000000000000000 PUSH0 DUP3 ADD MSTORE POP JUMP JUMPDEST PUSH0 PUSH2 0x1AA PUSH1 0x8 DUP4 PUSH2 0x166 JUMP JUMPDEST SWAP2 POP PUSH2 0x1B5 DUP3 PUSH2 0x176 JUMP JUMPDEST PUSH1 0x20 DUP3 ADD SWAP1 POP SWAP2 SWAP1 POP JUMP JUMPDEST PUSH0 PUSH1 0x20 DUP3 ADD SWAP1 POP DUP2 DUP2 SUB PUSH0 DUP4 ADD MSTORE PUSH2 0x1D7 DUP2 PUSH2 0x19E JUMP JUMPDEST SWAP1 POP SWAP2 SWAP1 POP JUMP INVALID LOG2 PUSH5 0x6970667358 0x22 SLT KECCAK256 PC CALLDATALOAD 0x26 0xD3 0x2F 0x29 0x2B PUSH17 0xEE9E818D83A2ABCB0D8E8B2BD2571A0D12 SWAP9 XOR SSTORE CALLDATALOAD 0xE LOG3 0x21 PUSH5 0x736F6C6343 STOP ADDMOD EQ STOP CALLER "
		},
		"gasEstimates": {
			"creation": {
				"codeDepositCost": "106400",
				"executionCost": "22256",
				"totalCost": "128656"
			},
			"external": {
				"multiplyOverflow(uint256)": "infinite",
				"x()": "2402"
			}
		},
		"methodIdentifiers": {
			"multiplyOverflow(uint256)": "4394f5a9",
			"x()": "0c55699c"
		}
	},
	"abi": [
		{
			"inputs": [
				{
					"internalType": "uint256",
					"name": "i",
					"type": "uint256"
				}
			],
			"name": "multiplyOverflow",
			"outputs": [
				{
					"internalType": "uint256",
					"name": "result",
					"type": "uint256"
				}
			],
			"stateMutability": "view",
			"type": "function"
		},
		{
			"inputs": [],
			"name": "x",
			"outputs": [
				{
					"internalType": "uint256",
					"name": "",
					"type": "uint256"
				}
			],
			"stateMutability": "view",
			"type": "function"
		}
	]
}