{
	"data": {
		"bytecode": {
			"linkReferences": {},
			"object": "608060405260016000556001805534801561001957600080fd5b5061011f806100296000396000f3fe60806040526004361060265760003560e01c8063352c104614602b578063cbfe2f06146043575b600080fd5b60416004803603810190603d9190609e565b605b565b005b6059600480360381019060559190609e565b6065565b005b8060008190555050565b600060015490506064811415607957600080fd5b818114608757816001819055505b5050565b60008135905060988160d5565b92915050565b60006020828403121560b15760b060d0565b5b600060bd84828501608b565b91505092915050565b6000819050919050565b600080fd5b60dc8160c6565b811460e657600080fd5b5056fea26469706673582212204118520e00fa691bba96b56e875248d86ae9d55de94b3d30f0b1ca047e35947664736f6c63430008070033",
			"opcodes": "PUSH1 0x80 PUSH1 0x40 MSTORE PUSH1 0x1 PUSH1 0x0 SSTORE PUSH1 0x1 DUP1 SSTORE CALLVALUE DUP1 ISZERO PUSH2 0x19 JUMPI PUSH1 0x0 DUP1 REVERT JUMPDEST POP PUSH2 0x11F DUP1 PUSH2 0x29 PUSH1 0x0 CODECOPY PUSH1 0x0 RETURN INVALID PUSH1 0x80 PUSH1 0x40 MSTORE PUSH1 0x4 CALLDATASIZE LT PUSH1 0x26 JUMPI PUSH1 0x0 CALLDATALOAD PUSH1 0xE0 SHR DUP1 PUSH4 0x352C1046 EQ PUSH1 0x2B JUMPI DUP1 PUSH4 0xCBFE2F06 EQ PUSH1 0x43 JUMPI JUMPDEST PUSH1 0x0 DUP1 REVERT JUMPDEST PUSH1 0x41 PUSH1 0x4 DUP1 CALLDATASIZE SUB DUP2 ADD SWAP1 PUSH1 0x3D SWAP2 SWAP1 PUSH1 0x9E JUMP JUMPDEST PUSH1 0x5B JUMP JUMPDEST STOP JUMPDEST PUSH1 0x59 PUSH1 0x4 DUP1 CALLDATASIZE SUB DUP2 ADD SWAP1 PUSH1 0x55 SWAP2 SWAP1 PUSH1 0x9E JUMP JUMPDEST PUSH1 0x65 JUMP JUMPDEST STOP JUMPDEST DUP1 PUSH1 0x0 DUP2 SWAP1 SSTORE POP POP JUMP JUMPDEST PUSH1 0x0 PUSH1 0x1 SLOAD SWAP1 POP PUSH1 0x64 DUP2 EQ ISZERO PUSH1 0x79 JUMPI PUSH1 0x0 DUP1 REVERT JUMPDEST DUP2 DUP2 EQ PUSH1 0x87 JUMPI DUP2 PUSH1 0x1 DUP2 SWAP1 SSTORE POP JUMPDEST POP POP JUMP JUMPDEST PUSH1 0x0 DUP2 CALLDATALOAD SWAP1 POP PUSH1 0x98 DUP2 PUSH1 0xD5 JUMP JUMPDEST SWAP3 SWAP2 POP POP JUMP JUMPDEST PUSH1 0x0 PUSH1 0x20 DUP3 DUP5 SUB SLT ISZERO PUSH1 0xB1 JUMPI PUSH1 0xB0 PUSH1 0xD0 JUMP JUMPDEST JUMPDEST PUSH1 0x0 PUSH1 0xBD DUP5 DUP3 DUP6 ADD PUSH1 0x8B JUMP JUMPDEST SWAP2 POP POP SWAP3 SWAP2 POP POP JUMP JUMPDEST PUSH1 0x0 DUP2 SWAP1 POP SWAP2 SWAP1 POP JUMP JUMPDEST PUSH1 0x0 DUP1 REVERT JUMPDEST PUSH1 0xDC DUP2 PUSH1 0xC6 JUMP JUMPDEST DUP2 EQ PUSH1 0xE6 JUMPI PUSH1 0x0 DUP1 REVERT JUMPDEST POP JUMP INVALID LOG2 PUSH5 0x6970667358 0x22 SLT KECCAK256 COINBASE XOR MSTORE 0xE STOP STATICCALL PUSH10 0x1BBA96B56E875248D86A 0xE9 0xD5 0x5D 0xE9 0x4B RETURNDATASIZE ADDRESS CREATE 0xB1 0xCA DIV PUSH31 0x35947664736F6C634300080700330000000000000000000000000000000000 "
		},
		"gasEstimates": {
			"creation": {
				"codeDepositCost": "57400",
				"executionCost": "44317",
				"totalCost": "101717"
			},
			"external": {
				"mayBeSet(uint256)": "22474",
				"mayBetSet1(uint256)": "24658"
			}
		},
		"methodIdentifiers": {
			"mayBeSet(uint256)": "352c1046",
			"mayBetSet1(uint256)": "cbfe2f06"
		}
	},
	"abi": [
		{
			"inputs": [
				{
					"internalType": "uint256",
					"name": "i",
					"type": "uint256"
				}
			],
			"name": "mayBeSet",
			"outputs": [],
			"stateMutability": "payable",
			"type": "function"
		},
		{
			"inputs": [
				{
					"internalType": "uint256",
					"name": "i",
					"type": "uint256"
				}
			],
			"name": "mayBetSet1",
			"outputs": [],
			"stateMutability": "payable",
			"type": "function"
		}
	]
}