{
	"data": {
		"bytecode": {
			"linkReferences": {},
			"object": "6080604052600080556000600160006101000a81548173ffffffffffffffffffffffffffffffffffffffff021916908373ffffffffffffffffffffffffffffffffffffffff1602179055506040518060800160405280600060ff168152602001600060ff168152602001600060ff168152602001600060ff16815250600290600461008b9291906100b9565b506000600860006101000a81548160ff0219169083151502179055503480156100b357600080fd5b5061011b565b82600481019282156100ed579160200282015b828111156100ec578251829060ff169055916020019190600101906100cc565b5b5090506100fa91906100fe565b5090565b5b808211156101175760008160009055506001016100ff565b5090565b6103278061012a6000396000f3fe6080604052600436106100915760003560e01c80639f5bd876116100595780639f5bd876146100c8578063ad097336146100d2578063b8f452b0146100dc578063d55c1940146100e6578063e3ce79fc146100f057610091565b80632724898b146100965780633ded6308146100a05780636e1d3c09146100aa5780638d114482146100b45780638e8ad59a146100be575b600080fd5b61009e6100fa565b005b6100a8610117565b005b6100b2610135565b005b6100bc610178565b005b6100c66101d8565b005b6100d0610216565b005b6100da610233565b005b6100e461026f565b005b6100ee61029c565b005b6100f86102a6565b005b6006600280600481106101105761010f6102c2565b5b0181905550565b6003600c60006101000a81548160ff021916908360ff160217905550565b33600160006101000a81548173ffffffffffffffffffffffffffffffffffffffff021916908373ffffffffffffffffffffffffffffffffffffffff160217905550565b60196009600060056fffffffffffffffffffffffffffffffff16815260200190815260200160002060006101000a8154816fffffffffffffffffffffffffffffffff02191690836fffffffffffffffffffffffffffffffff160217905550565b6032600b6001600481106101ef576101ee6102c2565b5b601091828204019190066002026101000a81548161ffff021916908361ffff160217905550565b6001600860006101000a81548160ff021916908315150217905550565b6005600a60006101000a8154816fffffffffffffffffffffffffffffffff02191690836fffffffffffffffffffffffffffffffff160217905550565b60066007600080815260200190815260200160002060006001815260200190815260200160002081905550565b6001600081905550565b6001600660006002815260200190815260200160002081905550565b7f4e487b7100000000000000000000000000000000000000000000000000000000600052603260045260246000fdfea2646970667358221220d3bbd8148bda2f8cffda5ceed5da3fd4797e556c59183c072eed6b1a3a11a13f64736f6c63430008070033",
			"opcodes": "PUSH1 0x80 PUSH1 0x40 MSTORE PUSH1 0x0 DUP1 SSTORE PUSH1 0x0 PUSH1 0x1 PUSH1 0x0 PUSH2 0x100 EXP DUP2 SLOAD DUP2 PUSH20 0xFFFFFFFFFFFFFFFFFFFFFFFFFFFFFFFFFFFFFFFF MUL NOT AND SWAP1 DUP4 PUSH20 0xFFFFFFFFFFFFFFFFFFFFFFFFFFFFFFFFFFFFFFFF AND MUL OR SWAP1 SSTORE POP PUSH1 0x40 MLOAD DUP1 PUSH1 0x80 ADD PUSH1 0x40 MSTORE DUP1 PUSH1 0x0 PUSH1 0xFF AND DUP2 MSTORE PUSH1 0x20 ADD PUSH1 0x0 PUSH1 0xFF AND DUP2 MSTORE PUSH1 0x20 ADD PUSH1 0x0 PUSH1 0xFF AND DUP2 MSTORE PUSH1 0x20 ADD PUSH1 0x0 PUSH1 0xFF AND DUP2 MSTORE POP PUSH1 0x2 SWAP1 PUSH1 0x4 PUSH2 0x8B SWAP3 SWAP2 SWAP1 PUSH2 0xB9 JUMP JUMPDEST POP PUSH1 0x0 PUSH1 0x8 PUSH1 0x0 PUSH2 0x100 EXP DUP2 SLOAD DUP2 PUSH1 0xFF MUL NOT AND SWAP1 DUP4 ISZERO ISZERO MUL OR SWAP1 SSTORE POP CALLVALUE DUP1 ISZERO PUSH2 0xB3 JUMPI PUSH1 0x0 DUP1 REVERT JUMPDEST POP PUSH2 0x11B JUMP JUMPDEST DUP3 PUSH1 0x4 DUP2 ADD SWAP3 DUP3 ISZERO PUSH2 0xED JUMPI SWAP2 PUSH1 0x20 MUL DUP3 ADD JUMPDEST DUP3 DUP2 GT ISZERO PUSH2 0xEC JUMPI DUP3 MLOAD DUP3 SWAP1 PUSH1 0xFF AND SWAP1 SSTORE SWAP2 PUSH1 0x20 ADD SWAP2 SWAP1 PUSH1 0x1 ADD SWAP1 PUSH2 0xCC JUMP JUMPDEST JUMPDEST POP SWAP1 POP PUSH2 0xFA SWAP2 SWAP1 PUSH2 0xFE JUMP JUMPDEST POP SWAP1 JUMP JUMPDEST JUMPDEST DUP1 DUP3 GT ISZERO PUSH2 0x117 JUMPI PUSH1 0x0 DUP2 PUSH1 0x0 SWAP1 SSTORE POP PUSH1 0x1 ADD PUSH2 0xFF JUMP JUMPDEST POP SWAP1 JUMP JUMPDEST PUSH2 0x327 DUP1 PUSH2 0x12A PUSH1 0x0 CODECOPY PUSH1 0x0 RETURN INVALID PUSH1 0x80 PUSH1 0x40 MSTORE PUSH1 0x4 CALLDATASIZE LT PUSH2 0x91 JUMPI PUSH1 0x0 CALLDATALOAD PUSH1 0xE0 SHR DUP1 PUSH4 0x9F5BD876 GT PUSH2 0x59 JUMPI DUP1 PUSH4 0x9F5BD876 EQ PUSH2 0xC8 JUMPI DUP1 PUSH4 0xAD097336 EQ PUSH2 0xD2 JUMPI DUP1 PUSH4 0xB8F452B0 EQ PUSH2 0xDC JUMPI DUP1 PUSH4 0xD55C1940 EQ PUSH2 0xE6 JUMPI DUP1 PUSH4 0xE3CE79FC EQ PUSH2 0xF0 JUMPI PUSH2 0x91 JUMP JUMPDEST DUP1 PUSH4 0x2724898B EQ PUSH2 0x96 JUMPI DUP1 PUSH4 0x3DED6308 EQ PUSH2 0xA0 JUMPI DUP1 PUSH4 0x6E1D3C09 EQ PUSH2 0xAA JUMPI DUP1 PUSH4 0x8D114482 EQ PUSH2 0xB4 JUMPI DUP1 PUSH4 0x8E8AD59A EQ PUSH2 0xBE JUMPI JUMPDEST PUSH1 0x0 DUP1 REVERT JUMPDEST PUSH2 0x9E PUSH2 0xFA JUMP JUMPDEST STOP JUMPDEST PUSH2 0xA8 PUSH2 0x117 JUMP JUMPDEST STOP JUMPDEST PUSH2 0xB2 PUSH2 0x135 JUMP JUMPDEST STOP JUMPDEST PUSH2 0xBC PUSH2 0x178 JUMP JUMPDEST STOP JUMPDEST PUSH2 0xC6 PUSH2 0x1D8 JUMP JUMPDEST STOP JUMPDEST PUSH2 0xD0 PUSH2 0x216 JUMP JUMPDEST STOP JUMPDEST PUSH2 0xDA PUSH2 0x233 JUMP JUMPDEST STOP JUMPDEST PUSH2 0xE4 PUSH2 0x26F JUMP JUMPDEST STOP JUMPDEST PUSH2 0xEE PUSH2 0x29C JUMP JUMPDEST STOP JUMPDEST PUSH2 0xF8 PUSH2 0x2A6 JUMP JUMPDEST STOP JUMPDEST PUSH1 0x6 PUSH1 0x2 DUP1 PUSH1 0x4 DUP2 LT PUSH2 0x110 JUMPI PUSH2 0x10F PUSH2 0x2C2 JUMP JUMPDEST JUMPDEST ADD DUP2 SWAP1 SSTORE POP JUMP JUMPDEST PUSH1 0x3 PUSH1 0xC PUSH1 0x0 PUSH2 0x100 EXP DUP2 SLOAD DUP2 PUSH1 0xFF MUL NOT AND SWAP1 DUP4 PUSH1 0xFF AND MUL OR SWAP1 SSTORE POP JUMP JUMPDEST CALLER PUSH1 0x1 PUSH1 0x0 PUSH2 0x100 EXP DUP2 SLOAD DUP2 PUSH20 0xFFFFFFFFFFFFFFFFFFFFFFFFFFFFFFFFFFFFFFFF MUL NOT AND SWAP1 DUP4 PUSH20 0xFFFFFFFFFFFFFFFFFFFFFFFFFFFFFFFFFFFFFFFF AND MUL OR SWAP1 SSTORE POP JUMP JUMPDEST PUSH1 0x19 PUSH1 0x9 PUSH1 0x0 PUSH1 0x5 PUSH16 0xFFFFFFFFFFFFFFFFFFFFFFFFFFFFFFFF AND DUP2 MSTORE PUSH1 0x20 ADD SWAP1 DUP2 MSTORE PUSH1 0x20 ADD PUSH1 0x0 KECCAK256 PUSH1 0x0 PUSH2 0x100 EXP DUP2 SLOAD DUP2 PUSH16 0xFFFFFFFFFFFFFFFFFFFFFFFFFFFFFFFF MUL NOT AND SWAP1 DUP4 PUSH16 0xFFFFFFFFFFFFFFFFFFFFFFFFFFFFFFFF AND MUL OR SWAP1 SSTORE POP JUMP JUMPDEST PUSH1 0x32 PUSH1 0xB PUSH1 0x1 PUSH1 0x4 DUP2 LT PUSH2 0x1EF JUMPI PUSH2 0x1EE PUSH2 0x2C2 JUMP JUMPDEST JUMPDEST PUSH1 0x10 SWAP2 DUP3 DUP3 DIV ADD SWAP2 SWAP1 MOD PUSH1 0x2 MUL PUSH2 0x100 EXP DUP2 SLOAD DUP2 PUSH2 0xFFFF MUL NOT AND SWAP1 DUP4 PUSH2 0xFFFF AND MUL OR SWAP1 SSTORE POP JUMP JUMPDEST PUSH1 0x1 PUSH1 0x8 PUSH1 0x0 PUSH2 0x100 EXP DUP2 SLOAD DUP2 PUSH1 0xFF MUL NOT AND SWAP1 DUP4 ISZERO ISZERO MUL OR SWAP1 SSTORE POP JUMP JUMPDEST PUSH1 0x5 PUSH1 0xA PUSH1 0x0 PUSH2 0x100 EXP DUP2 SLOAD DUP2 PUSH16 0xFFFFFFFFFFFFFFFFFFFFFFFFFFFFFFFF MUL NOT AND SWAP1 DUP4 PUSH16 0xFFFFFFFFFFFFFFFFFFFFFFFFFFFFFFFF AND MUL OR SWAP1 SSTORE POP JUMP JUMPDEST PUSH1 0x6 PUSH1 0x7 PUSH1 0x0 DUP1 DUP2 MSTORE PUSH1 0x20 ADD SWAP1 DUP2 MSTORE PUSH1 0x20 ADD PUSH1 0x0 KECCAK256 PUSH1 0x0 PUSH1 0x1 DUP2 MSTORE PUSH1 0x20 ADD SWAP1 DUP2 MSTORE PUSH1 0x20 ADD PUSH1 0x0 KECCAK256 DUP2 SWAP1 SSTORE POP JUMP JUMPDEST PUSH1 0x1 PUSH1 0x0 DUP2 SWAP1 SSTORE POP JUMP JUMPDEST PUSH1 0x1 PUSH1 0x6 PUSH1 0x0 PUSH1 0x2 DUP2 MSTORE PUSH1 0x20 ADD SWAP1 DUP2 MSTORE PUSH1 0x20 ADD PUSH1 0x0 KECCAK256 DUP2 SWAP1 SSTORE POP JUMP JUMPDEST PUSH32 0x4E487B7100000000000000000000000000000000000000000000000000000000 PUSH1 0x0 MSTORE PUSH1 0x32 PUSH1 0x4 MSTORE PUSH1 0x24 PUSH1 0x0 REVERT INVALID LOG2 PUSH5 0x6970667358 0x22 SLT KECCAK256 0xD3 0xBB 0xD8 EQ DUP12 0xDA 0x2F DUP13 SELFDESTRUCT 0xDA 0x5C 0xEE 0xD5 0xDA EXTCODEHASH 0xD4 PUSH26 0x7E556C59183C072EED6B1A3A11A13F64736F6C63430008070033 "
		},
		"gasEstimates": {
			"creation": {
				"codeDepositCost": "161400",
				"executionCost": "infinite",
				"totalCost": "infinite"
			},
			"external": {
				"setArray()": "22264",
				"setBoolean()": "24387",
				"setInteger()": "22300",
				"setMyAddress()": "24431",
				"setMyInteger128()": "24409",
				"setMyMapping()": "22400",
				"setMySmallArray()": "24588",
				"setMySmallMapping()": "24538",
				"setNestedMapping()": "22434",
				"setUint8()": "24410"
			}
		},
		"methodIdentifiers": {
			"setArray()": "2724898b",
			"setBoolean()": "9f5bd876",
			"setInteger()": "d55c1940",
			"setMyAddress()": "6e1d3c09",
			"setMyInteger128()": "ad097336",
			"setMyMapping()": "e3ce79fc",
			"setMySmallArray()": "8e8ad59a",
			"setMySmallMapping()": "8d114482",
			"setNestedMapping()": "b8f452b0",
			"setUint8()": "3ded6308"
		}
	},
	"abi": [
		{
			"inputs": [],
			"name": "setArray",
			"outputs": [],
			"stateMutability": "payable",
			"type": "function"
		},
		{
			"inputs": [],
			"name": "setBoolean",
			"outputs": [],
			"stateMutability": "payable",
			"type": "function"
		},
		{
			"inputs": [],
			"name": "setInteger",
			"outputs": [],
			"stateMutability": "payable",
			"type": "function"
		},
		{
			"inputs": [],
			"name": "setMyAddress",
			"outputs": [],
			"stateMutability": "payable",
			"type": "function"
		},
		{
			"inputs": [],
			"name": "setMyInteger128",
			"outputs": [],
			"stateMutability": "payable",
			"type": "function"
		},
		{
			"inputs": [],
			"name": "setMyMapping",
			"outputs": [],
			"stateMutability": "payable",
			"type": "function"
		},
		{
			"inputs": [],
			"name": "setMySmallArray",
			"outputs": [],
			"stateMutability": "payable",
			"type": "function"
		},
		{
			"inputs": [],
			"name": "setMySmallMapping",
			"outputs": [],
			"stateMutability": "payable",
			"type": "function"
		},
		{
			"inputs": [],
			"name": "setNestedMapping",
			"outputs": [],
			"stateMutability": "payable",
			"type": "function"
		},
		{
			"inputs": [],
			"name": "setUint8",
			"outputs": [],
			"stateMutability": "payable",
			"type": "function"
		}
	]
}