{
	"data": {
		"bytecode": {
			"linkReferences": {},
			"object": "608060405234801561001057600080fd5b506101d3806100206000396000f3fe608060405234801561001057600080fd5b50600436106100575760003560e01c8063336358181461005c5780638b84925b14610066578063c32db84614610084578063fc7071301461008e578063ff8d810b14610098575b600080fd5b6100646100a2565b005b61006e6100ac565b60405161007b91906100f3565b60405180910390f35b61008c6100b5565b005b6100966100d1565b005b6100a06100db565b005b6002600081905550565b60008054905090565b6000805490506001816100c8919061010e565b60008190555050565b6001600081905550565b60008081905550565b6100ed81610164565b82525050565b600060208201905061010860008301846100e4565b92915050565b600061011982610164565b915061012483610164565b9250827fffffffffffffffffffffffffffffffffffffffffffffffffffffffffffffffff038211156101595761015861016e565b5b828201905092915050565b6000819050919050565b7f4e487b7100000000000000000000000000000000000000000000000000000000600052601160045260246000fdfea2646970667358221220a2380b127fd559d582942db92fc671dd8f42c3deca15214b41e9f520493828a764736f6c63430008070033",
			"opcodes": "PUSH1 0x80 PUSH1 0x40 MSTORE CALLVALUE DUP1 ISZERO PUSH2 0x10 JUMPI PUSH1 0x0 DUP1 REVERT JUMPDEST POP PUSH2 0x1D3 DUP1 PUSH2 0x20 PUSH1 0x0 CODECOPY PUSH1 0x0 RETURN INVALID PUSH1 0x80 PUSH1 0x40 MSTORE CALLVALUE DUP1 ISZERO PUSH2 0x10 JUMPI PUSH1 0x0 DUP1 REVERT JUMPDEST POP PUSH1 0x4 CALLDATASIZE LT PUSH2 0x57 JUMPI PUSH1 0x0 CALLDATALOAD PUSH1 0xE0 SHR DUP1 PUSH4 0x33635818 EQ PUSH2 0x5C JUMPI DUP1 PUSH4 0x8B84925B EQ PUSH2 0x66 JUMPI DUP1 PUSH4 0xC32DB846 EQ PUSH2 0x84 JUMPI DUP1 PUSH4 0xFC707130 EQ PUSH2 0x8E JUMPI DUP1 PUSH4 0xFF8D810B EQ PUSH2 0x98 JUMPI JUMPDEST PUSH1 0x0 DUP1 REVERT JUMPDEST PUSH2 0x64 PUSH2 0xA2 JUMP JUMPDEST STOP JUMPDEST PUSH2 0x6E PUSH2 0xAC JUMP JUMPDEST PUSH1 0x40 MLOAD PUSH2 0x7B SWAP2 SWAP1 PUSH2 0xF3 JUMP JUMPDEST PUSH1 0x40 MLOAD DUP1 SWAP2 SUB SWAP1 RETURN JUMPDEST PUSH2 0x8C PUSH2 0xB5 JUMP JUMPDEST STOP JUMPDEST PUSH2 0x96 PUSH2 0xD1 JUMP JUMPDEST STOP JUMPDEST PUSH2 0xA0 PUSH2 0xDB JUMP JUMPDEST STOP JUMPDEST PUSH1 0x2 PUSH1 0x0 DUP2 SWAP1 SSTORE POP JUMP JUMPDEST PUSH1 0x0 DUP1 SLOAD SWAP1 POP SWAP1 JUMP JUMPDEST PUSH1 0x0 DUP1 SLOAD SWAP1 POP PUSH1 0x1 DUP2 PUSH2 0xC8 SWAP2 SWAP1 PUSH2 0x10E JUMP JUMPDEST PUSH1 0x0 DUP2 SWAP1 SSTORE POP POP JUMP JUMPDEST PUSH1 0x1 PUSH1 0x0 DUP2 SWAP1 SSTORE POP JUMP JUMPDEST PUSH1 0x0 DUP1 DUP2 SWAP1 SSTORE POP JUMP JUMPDEST PUSH2 0xED DUP2 PUSH2 0x164 JUMP JUMPDEST DUP3 MSTORE POP POP JUMP JUMPDEST PUSH1 0x0 PUSH1 0x20 DUP3 ADD SWAP1 POP PUSH2 0x108 PUSH1 0x0 DUP4 ADD DUP5 PUSH2 0xE4 JUMP JUMPDEST SWAP3 SWAP2 POP POP JUMP JUMPDEST PUSH1 0x0 PUSH2 0x119 DUP3 PUSH2 0x164 JUMP JUMPDEST SWAP2 POP PUSH2 0x124 DUP4 PUSH2 0x164 JUMP JUMPDEST SWAP3 POP DUP3 PUSH32 0xFFFFFFFFFFFFFFFFFFFFFFFFFFFFFFFFFFFFFFFFFFFFFFFFFFFFFFFFFFFFFFFF SUB DUP3 GT ISZERO PUSH2 0x159 JUMPI PUSH2 0x158 PUSH2 0x16E JUMP JUMPDEST JUMPDEST DUP3 DUP3 ADD SWAP1 POP SWAP3 SWAP2 POP POP JUMP JUMPDEST PUSH1 0x0 DUP2 SWAP1 POP SWAP2 SWAP1 POP JUMP JUMPDEST PUSH32 0x4E487B7100000000000000000000000000000000000000000000000000000000 PUSH1 0x0 MSTORE PUSH1 0x11 PUSH1 0x4 MSTORE PUSH1 0x24 PUSH1 0x0 REVERT INVALID LOG2 PUSH5 0x6970667358 0x22 SLT KECCAK256 LOG2 CODESIZE SIGNEXTEND SLT PUSH32 0xD559D582942DB92FC671DD8F42C3DECA15214B41E9F520493828A764736F6C63 NUMBER STOP ADDMOD SMOD STOP CALLER "
		},
		"gasEstimates": {
			"creation": {
				"codeDepositCost": "93400",
				"executionCost": "141",
				"totalCost": "93541"
			},
			"external": {
				"getAndSetInteger()": "infinite",
				"getInteger()": "2437",
				"setToOne()": "22302",
				"setToTwo()": "22236",
				"setToZero()": "5224"
			}
		},
		"methodIdentifiers": {
			"getAndSetInteger()": "c32db846",
			"getInteger()": "8b84925b",
			"setToOne()": "fc707130",
			"setToTwo()": "33635818",
			"setToZero()": "ff8d810b"
		}
	},
	"abi": [
		{
			"inputs": [],
			"name": "getAndSetInteger",
			"outputs": [],
			"stateMutability": "nonpayable",
			"type": "function"
		},
		{
			"inputs": [],
			"name": "getInteger",
			"outputs": [
				{
					"internalType": "uint256",
					"name": "",
					"type": "uint256"
				}
			],
			"stateMutability": "view",
			"type": "function"
		},
		{
			"inputs": [],
			"name": "setToOne",
			"outputs": [],
			"stateMutability": "nonpayable",
			"type": "function"
		},
		{
			"inputs": [],
			"name": "setToTwo",
			"outputs": [],
			"stateMutability": "nonpayable",
			"type": "function"
		},
		{
			"inputs": [],
			"name": "setToZero",
			"outputs": [],
			"stateMutability": "nonpayable",
			"type": "function"
		}
	]
}