{
	"data": {
		"bytecode": {
			"linkReferences": {},
			"object": "608060405260008060006101000a81548160ff021916908360ff16021790555034801561002b57600080fd5b5061027c8061003b6000396000f3fe608060405234801561001057600080fd5b50600436106100575760003560e01c806303231a741461005c57806323fd0e40146100665780632baeceb71461008457806374d9b8371461008e578063d09de08a14610098575b600080fd5b6100646100a2565b005b61006e6100d5565b60405161007b919061019b565b60405180910390f35b61008c6100e6565b005b61009661011f565b005b6100a0610153565b005b60008081819054906101000a900460ff168092919060010191906101000a81548160ff021916908360ff16021790555050565b60008054906101000a900460ff1681565b60008081819054906101000a900460ff1680929190610104906101c3565b91906101000a81548160ff021916908360ff16021790555050565b60008081819054906101000a900460ff16809291906001900391906101000a81548160ff021916908360ff16021790555050565b60008081819054906101000a900460ff1680929190610171906101ed565b91906101000a81548160ff021916908360ff16021790555050565b610195816101b6565b82525050565b60006020820190506101b0600083018461018c565b92915050565b600060ff82169050919050565b60006101ce826101b6565b915060008214156101e2576101e1610217565b5b600182039050919050565b60006101f8826101b6565b915060ff82141561020c5761020b610217565b5b600182019050919050565b7f4e487b7100000000000000000000000000000000000000000000000000000000600052601160045260246000fdfea264697066735822122045ca32498501494dba7da922e1cfdcf9c8e90ea3d63bc0b0f1d9e2425f04c1df64736f6c63430008000033",
			"opcodes": "PUSH1 0x80 PUSH1 0x40 MSTORE PUSH1 0x0 DUP1 PUSH1 0x0 PUSH2 0x100 EXP DUP2 SLOAD DUP2 PUSH1 0xFF MUL NOT AND SWAP1 DUP4 PUSH1 0xFF AND MUL OR SWAP1 SSTORE POP CALLVALUE DUP1 ISZERO PUSH2 0x2B JUMPI PUSH1 0x0 DUP1 REVERT JUMPDEST POP PUSH2 0x27C DUP1 PUSH2 0x3B PUSH1 0x0 CODECOPY PUSH1 0x0 RETURN INVALID PUSH1 0x80 PUSH1 0x40 MSTORE CALLVALUE DUP1 ISZERO PUSH2 0x10 JUMPI PUSH1 0x0 DUP1 REVERT JUMPDEST POP PUSH1 0x4 CALLDATASIZE LT PUSH2 0x57 JUMPI PUSH1 0x0 CALLDATALOAD PUSH1 0xE0 SHR DUP1 PUSH4 0x3231A74 EQ PUSH2 0x5C JUMPI DUP1 PUSH4 0x23FD0E40 EQ PUSH2 0x66 JUMPI DUP1 PUSH4 0x2BAECEB7 EQ PUSH2 0x84 JUMPI DUP1 PUSH4 0x74D9B837 EQ PUSH2 0x8E JUMPI DUP1 PUSH4 0xD09DE08A EQ PUSH2 0x98 JUMPI JUMPDEST PUSH1 0x0 DUP1 REVERT JUMPDEST PUSH2 0x64 PUSH2 0xA2 JUMP JUMPDEST STOP JUMPDEST PUSH2 0x6E PUSH2 0xD5 JUMP JUMPDEST PUSH1 0x40 MLOAD PUSH2 0x7B SWAP2 SWAP1 PUSH2 0x19B JUMP JUMPDEST PUSH1 0x40 MLOAD DUP1 SWAP2 SUB SWAP1 RETURN JUMPDEST PUSH2 0x8C PUSH2 0xE6 JUMP JUMPDEST STOP JUMPDEST PUSH2 0x96 PUSH2 0x11F JUMP JUMPDEST STOP JUMPDEST PUSH2 0xA0 PUSH2 0x153 JUMP JUMPDEST STOP JUMPDEST PUSH1 0x0 DUP1 DUP2 DUP2 SWAP1 SLOAD SWAP1 PUSH2 0x100 EXP SWAP1 DIV PUSH1 0xFF AND DUP1 SWAP3 SWAP2 SWAP1 PUSH1 0x1 ADD SWAP2 SWAP1 PUSH2 0x100 EXP DUP2 SLOAD DUP2 PUSH1 0xFF MUL NOT AND SWAP1 DUP4 PUSH1 0xFF AND MUL OR SWAP1 SSTORE POP POP JUMP JUMPDEST PUSH1 0x0 DUP1 SLOAD SWAP1 PUSH2 0x100 EXP SWAP1 DIV PUSH1 0xFF AND DUP2 JUMP JUMPDEST PUSH1 0x0 DUP1 DUP2 DUP2 SWAP1 SLOAD SWAP1 PUSH2 0x100 EXP SWAP1 DIV PUSH1 0xFF AND DUP1 SWAP3 SWAP2 SWAP1 PUSH2 0x104 SWAP1 PUSH2 0x1C3 JUMP JUMPDEST SWAP2 SWAP1 PUSH2 0x100 EXP DUP2 SLOAD DUP2 PUSH1 0xFF MUL NOT AND SWAP1 DUP4 PUSH1 0xFF AND MUL OR SWAP1 SSTORE POP POP JUMP JUMPDEST PUSH1 0x0 DUP1 DUP2 DUP2 SWAP1 SLOAD SWAP1 PUSH2 0x100 EXP SWAP1 DIV PUSH1 0xFF AND DUP1 SWAP3 SWAP2 SWAP1 PUSH1 0x1 SWAP1 SUB SWAP2 SWAP1 PUSH2 0x100 EXP DUP2 SLOAD DUP2 PUSH1 0xFF MUL NOT AND SWAP1 DUP4 PUSH1 0xFF AND MUL OR SWAP1 SSTORE POP POP JUMP JUMPDEST PUSH1 0x0 DUP1 DUP2 DUP2 SWAP1 SLOAD SWAP1 PUSH2 0x100 EXP SWAP1 DIV PUSH1 0xFF AND DUP1 SWAP3 SWAP2 SWAP1 PUSH2 0x171 SWAP1 PUSH2 0x1ED JUMP JUMPDEST SWAP2 SWAP1 PUSH2 0x100 EXP DUP2 SLOAD DUP2 PUSH1 0xFF MUL NOT AND SWAP1 DUP4 PUSH1 0xFF AND MUL OR SWAP1 SSTORE POP POP JUMP JUMPDEST PUSH2 0x195 DUP2 PUSH2 0x1B6 JUMP JUMPDEST DUP3 MSTORE POP POP JUMP JUMPDEST PUSH1 0x0 PUSH1 0x20 DUP3 ADD SWAP1 POP PUSH2 0x1B0 PUSH1 0x0 DUP4 ADD DUP5 PUSH2 0x18C JUMP JUMPDEST SWAP3 SWAP2 POP POP JUMP JUMPDEST PUSH1 0x0 PUSH1 0xFF DUP3 AND SWAP1 POP SWAP2 SWAP1 POP JUMP JUMPDEST PUSH1 0x0 PUSH2 0x1CE DUP3 PUSH2 0x1B6 JUMP JUMPDEST SWAP2 POP PUSH1 0x0 DUP3 EQ ISZERO PUSH2 0x1E2 JUMPI PUSH2 0x1E1 PUSH2 0x217 JUMP JUMPDEST JUMPDEST PUSH1 0x1 DUP3 SUB SWAP1 POP SWAP2 SWAP1 POP JUMP JUMPDEST PUSH1 0x0 PUSH2 0x1F8 DUP3 PUSH2 0x1B6 JUMP JUMPDEST SWAP2 POP PUSH1 0xFF DUP3 EQ ISZERO PUSH2 0x20C JUMPI PUSH2 0x20B PUSH2 0x217 JUMP JUMPDEST JUMPDEST PUSH1 0x1 DUP3 ADD SWAP1 POP SWAP2 SWAP1 POP JUMP JUMPDEST PUSH32 0x4E487B7100000000000000000000000000000000000000000000000000000000 PUSH1 0x0 MSTORE PUSH1 0x11 PUSH1 0x4 MSTORE PUSH1 0x24 PUSH1 0x0 REVERT INVALID LOG2 PUSH5 0x6970667358 0x22 SLT KECCAK256 GASLIMIT 0xCA ORIGIN 0x49 DUP6 ADD 0x49 0x4D 0xBA PUSH30 0xA922E1CFDCF9C8E90EA3D63BC0B0F1D9E2425F04C1DF64736F6C63430008 STOP STOP CALLER "
		},
		"gasEstimates": {
			"creation": {
				"codeDepositCost": "127200",
				"executionCost": "21038",
				"totalCost": "148238"
			},
			"external": {
				"decrement()": "22024",
				"increment()": "22068",
				"myNumber()": "1168",
				"uncheckedDecrement()": "21920",
				"uncheckedIncrement()": "21851"
			}
		},
		"methodIdentifiers": {
			"decrement()": "2baeceb7",
			"increment()": "d09de08a",
			"myNumber()": "23fd0e40",
			"uncheckedDecrement()": "74d9b837",
			"uncheckedIncrement()": "03231a74"
		}
	},
	"abi": [
		{
			"inputs": [],
			"name": "decrement",
			"outputs": [],
			"stateMutability": "nonpayable",
			"type": "function"
		},
		{
			"inputs": [],
			"name": "increment",
			"outputs": [],
			"stateMutability": "nonpayable",
			"type": "function"
		},
		{
			"inputs": [],
			"name": "myNumber",
			"outputs": [
				{
					"internalType": "uint8",
					"name": "",
					"type": "uint8"
				}
			],
			"stateMutability": "view",
			"type": "function"
		},
		{
			"inputs": [],
			"name": "uncheckedDecrement",
			"outputs": [],
			"stateMutability": "nonpayable",
			"type": "function"
		},
		{
			"inputs": [],
			"name": "uncheckedIncrement",
			"outputs": [],
			"stateMutability": "nonpayable",
			"type": "function"
		}
	]
}